{
	"HelloWorld.sol": {
		"HelloWorld": {
			"abi": [
				{
					"inputs": [],
					"stateMutability": "nonpayable",
					"type": "constructor"
				},
				{
					"inputs": [],
					"name": "helloWorld",
					"outputs": [
						{
							"internalType": "string",
							"name": "",
							"type": "string"
						}
					],
					"stateMutability": "view",
					"type": "function"
				},
				{
					"inputs": [],
					"name": "isPure",
					"outputs": [
						{
							"internalType": "bool",
							"name": "_returnValue",
							"type": "bool"
						}
					],
					"stateMutability": "view",
					"type": "function"
				},
				{
					"inputs": [],
					"name": "pureText",
					"outputs": [
						{
							"internalType": "string",
							"name": "",
							"type": "string"
						}
					],
					"stateMutability": "pure",
					"type": "function"
				},
				{
					"inputs": [],
					"name": "restore",
					"outputs": [
						{
							"internalType": "bool",
							"name": "",
							"type": "bool"
						}
					],
					"stateMutability": "nonpayable",
					"type": "function"
				},
				{
					"inputs": [
						{
							"internalType": "string",
							"name": "newText",
							"type": "string"
						}
					],
					"name": "setText",
					"outputs": [],
					"stateMutability": "payable",
					"type": "function"
				}
			],
			"devdoc": {
				"details": "This is a contract for learning",
				"kind": "dev",
				"methods": {
					"helloWorld()": {
						"returns": {
							"_0": "Value of the string stored in the text variable "
						}
					},
					"setText(string)": {
						"params": {
							"newText": "Text string that is going to replace the text variable"
						}
					}
				},
				"title": "Hello World",
				"version": 1
			},
			"evm": {
				"assembly": "    /* \"HelloWorld.sol\":191:1306  contract HelloWorld{... */\n  mstore(0x40, 0x80)\n    /* \"HelloWorld.sol\":234:281  constructor(){... */\n  callvalue\n  dup1\n  iszero\n  tag_1\n  jumpi\n  0x00\n  dup1\n  revert\ntag_1:\n  pop\n    /* \"HelloWorld.sol\":264:274  pureText() */\n  tag_4\n    /* \"HelloWorld.sol\":264:272  pureText */\n  shl(0x20, tag_5)\n    /* \"HelloWorld.sol\":264:274  pureText() */\n  0x20\n  shr\n  jump\t// in\ntag_4:\n    /* \"HelloWorld.sol\":257:261  text */\n  0x00\n    /* \"HelloWorld.sol\":257:274  text = pureText() */\n  swap1\n  dup1\n  mload\n  swap1\n  0x20\n  add\n  swap1\n  tag_6\n  swap3\n  swap2\n  swap1\n  tag_7\n  jump\t// in\ntag_6:\n  pop\n    /* \"HelloWorld.sol\":191:1306  contract HelloWorld{... */\n  jump(tag_8)\n    /* \"HelloWorld.sol\":610:702  function pureText() public pure returns (string memory){... */\ntag_5:\n    /* \"HelloWorld.sol\":651:664  string memory */\n  0x60\n    /* \"HelloWorld.sol\":675:695  return \"Hello World\" */\n  mload(0x40)\n  dup1\n  0x40\n  add\n  0x40\n  mstore\n  dup1\n  0x0b\n  dup2\n  mstore\n  0x20\n  add\n  0x48656c6c6f20576f726c64000000000000000000000000000000000000000000\n  dup2\n  mstore\n  pop\n  swap1\n  pop\n    /* \"HelloWorld.sol\":610:702  function pureText() public pure returns (string memory){... */\n  swap1\n  jump\t// out\n    /* \"HelloWorld.sol\":191:1306  contract HelloWorld{... */\ntag_7:\n  dup3\n  dup1\n  sload\n  tag_10\n  swap1\n  tag_11\n  jump\t// in\ntag_10:\n  swap1\n  0x00\n  mstore\n  keccak256(0x00, 0x20)\n  swap1\n  0x1f\n  add\n  0x20\n  swap1\n  div\n  dup2\n  add\n  swap3\n  dup3\n  tag_13\n  jumpi\n  0x00\n  dup6\n  sstore\n  jump(tag_12)\ntag_13:\n  dup3\n  0x1f\n  lt\n  tag_14\n  jumpi\n  dup1\n  mload\n  not(0xff)\n  and\n  dup4\n  dup1\n  add\n  or\n  dup6\n  sstore\n  jump(tag_12)\ntag_14:\n  dup3\n  dup1\n  add\n  0x01\n  add\n  dup6\n  sstore\n  dup3\n  iszero\n  tag_12\n  jumpi\n  swap2\n  dup3\n  add\ntag_15:\n  dup3\n  dup2\n  gt\n  iszero\n  tag_16\n  jumpi\n  dup3\n  mload\n  dup3\n  sstore\n  swap2\n  0x20\n  add\n  swap2\n  swap1\n  0x01\n  add\n  swap1\n  jump(tag_15)\ntag_16:\ntag_12:\n  pop\n  swap1\n  pop\n  tag_17\n  swap2\n  swap1\n  tag_18\n  jump\t// in\ntag_17:\n  pop\n  swap1\n  jump\t// out\ntag_18:\ntag_19:\n  dup1\n  dup3\n  gt\n  iszero\n  tag_20\n  jumpi\n  0x00\n  dup2\n  0x00\n  swap1\n  sstore\n  pop\n  0x01\n  add\n  jump(tag_19)\ntag_20:\n  pop\n  swap1\n  jump\t// out\n    /* \"#utility.yul\":7:327   */\ntag_11:\n    /* \"#utility.yul\":51:57   */\n  0x00\n    /* \"#utility.yul\":88:89   */\n  0x02\n    /* \"#utility.yul\":82:86   */\n  dup3\n    /* \"#utility.yul\":78:90   */\n  div\n    /* \"#utility.yul\":68:90   */\n  swap1\n  pop\n    /* \"#utility.yul\":135:136   */\n  0x01\n    /* \"#utility.yul\":129:133   */\n  dup3\n    /* \"#utility.yul\":125:137   */\n  and\n    /* \"#utility.yul\":156:174   */\n  dup1\n    /* \"#utility.yul\":146:227   */\n  tag_23\n  jumpi\n    /* \"#utility.yul\":212:216   */\n  0x7f\n    /* \"#utility.yul\":204:210   */\n  dup3\n    /* \"#utility.yul\":200:217   */\n  and\n    /* \"#utility.yul\":190:217   */\n  swap2\n  pop\n    /* \"#utility.yul\":146:227   */\ntag_23:\n    /* \"#utility.yul\":274:276   */\n  0x20\n    /* \"#utility.yul\":266:272   */\n  dup3\n    /* \"#utility.yul\":263:277   */\n  lt\n    /* \"#utility.yul\":243:261   */\n  dup2\n    /* \"#utility.yul\":240:278   */\n  eq\n    /* \"#utility.yul\":237:321   */\n  iszero\n  tag_24\n  jumpi\n    /* \"#utility.yul\":293:311   */\n  tag_25\n  tag_26\n  jump\t// in\ntag_25:\n    /* \"#utility.yul\":237:321   */\ntag_24:\n    /* \"#utility.yul\":58:327   */\n  pop\n    /* \"#utility.yul\":7:327   */\n  swap2\n  swap1\n  pop\n  jump\t// out\n    /* \"#utility.yul\":333:513   */\ntag_26:\n    /* \"#utility.yul\":381:458   */\n  0x4e487b7100000000000000000000000000000000000000000000000000000000\n    /* \"#utility.yul\":378:379   */\n  0x00\n    /* \"#utility.yul\":371:459   */\n  mstore\n    /* \"#utility.yul\":478:482   */\n  0x22\n    /* \"#utility.yul\":475:476   */\n  0x04\n    /* \"#utility.yul\":468:483   */\n  mstore\n    /* \"#utility.yul\":502:506   */\n  0x24\n    /* \"#utility.yul\":499:500   */\n  0x00\n    /* \"#utility.yul\":492:507   */\n  revert\n    /* \"HelloWorld.sol\":191:1306  contract HelloWorld{... */\ntag_8:\n  dataSize(sub_0)\n  dup1\n  dataOffset(sub_0)\n  0x00\n  codecopy\n  0x00\n  return\nstop\n\nsub_0: assembly {\n        /* \"HelloWorld.sol\":191:1306  contract HelloWorld{... */\n      mstore(0x40, 0x80)\n      jumpi(tag_1, lt(calldatasize, 0x04))\n      shr(0xe0, calldataload(0x00))\n      dup1\n      0x0953aec5\n      eq\n      tag_2\n      jumpi\n      dup1\n      0x1089bbc8\n      eq\n      tag_3\n      jumpi\n      dup1\n      0x2fda332e\n      eq\n      tag_4\n      jumpi\n      dup1\n      0x5d3a1f9d\n      eq\n      tag_5\n      jumpi\n      dup1\n      0xc605f76c\n      eq\n      tag_6\n      jumpi\n    tag_1:\n      0x00\n      dup1\n      revert\n        /* \"HelloWorld.sol\":708:807  function isPure() public view returns (bool _returnValue) {... */\n    tag_2:\n      callvalue\n      dup1\n      iszero\n      tag_7\n      jumpi\n      0x00\n      dup1\n      revert\n    tag_7:\n      pop\n      tag_8\n      tag_9\n      jump\t// in\n    tag_8:\n      mload(0x40)\n      tag_10\n      swap2\n      swap1\n      tag_11\n      jump\t// in\n    tag_10:\n      mload(0x40)\n      dup1\n      swap2\n      sub\n      swap1\n      return\n        /* \"HelloWorld.sol\":610:702  function pureText() public pure returns (string memory){... */\n    tag_3:\n      callvalue\n      dup1\n      iszero\n      tag_12\n      jumpi\n      0x00\n      dup1\n      revert\n    tag_12:\n      pop\n      tag_13\n      tag_14\n      jump\t// in\n    tag_13:\n      mload(0x40)\n      tag_15\n      swap2\n      swap1\n      tag_16\n      jump\t// in\n    tag_15:\n      mload(0x40)\n      dup1\n      swap2\n      sub\n      swap1\n      return\n        /* \"HelloWorld.sol\":813:981  function restore() public returns (bool){... */\n    tag_4:\n      callvalue\n      dup1\n      iszero\n      tag_17\n      jumpi\n      0x00\n      dup1\n      revert\n    tag_17:\n      pop\n      tag_18\n      tag_19\n      jump\t// in\n    tag_18:\n      mload(0x40)\n      tag_20\n      swap2\n      swap1\n      tag_11\n      jump\t// in\n    tag_20:\n      mload(0x40)\n      dup1\n      swap2\n      sub\n      swap1\n      return\n        /* \"HelloWorld.sol\":519:604  function setText(string memory newText) public payable{... */\n    tag_5:\n      tag_21\n      0x04\n      dup1\n      calldatasize\n      sub\n      dup2\n      add\n      swap1\n      tag_22\n      swap2\n      swap1\n      tag_23\n      jump\t// in\n    tag_22:\n      tag_24\n      jump\t// in\n    tag_21:\n      stop\n        /* \"HelloWorld.sol\":352:435  function helloWorld() public view returns(string memory){... */\n    tag_6:\n      callvalue\n      dup1\n      iszero\n      tag_25\n      jumpi\n      0x00\n      dup1\n      revert\n    tag_25:\n      pop\n      tag_26\n      tag_27\n      jump\t// in\n    tag_26:\n      mload(0x40)\n      tag_28\n      swap2\n      swap1\n      tag_16\n      jump\t// in\n    tag_28:\n      mload(0x40)\n      dup1\n      swap2\n      sub\n      swap1\n      return\n        /* \"HelloWorld.sol\":708:807  function isPure() public view returns (bool _returnValue) {... */\n    tag_9:\n        /* \"HelloWorld.sol\":747:764  bool _returnValue */\n      0x00\n        /* \"HelloWorld.sol\":791:800  _isPure() */\n      tag_30\n        /* \"HelloWorld.sol\":791:798  _isPure */\n      tag_31\n        /* \"HelloWorld.sol\":791:800  _isPure() */\n      jump\t// in\n    tag_30:\n        /* \"HelloWorld.sol\":776:800  _returnValue = _isPure() */\n      swap1\n      pop\n        /* \"HelloWorld.sol\":708:807  function isPure() public view returns (bool _returnValue) {... */\n      swap1\n      jump\t// out\n        /* \"HelloWorld.sol\":610:702  function pureText() public pure returns (string memory){... */\n    tag_14:\n        /* \"HelloWorld.sol\":651:664  string memory */\n      0x60\n        /* \"HelloWorld.sol\":675:695  return \"Hello World\" */\n      mload(0x40)\n      dup1\n      0x40\n      add\n      0x40\n      mstore\n      dup1\n      0x0b\n      dup2\n      mstore\n      0x20\n      add\n      0x48656c6c6f20576f726c64000000000000000000000000000000000000000000\n      dup2\n      mstore\n      pop\n      swap1\n      pop\n        /* \"HelloWorld.sol\":610:702  function pureText() public pure returns (string memory){... */\n      swap1\n      jump\t// out\n        /* \"HelloWorld.sol\":813:981  function restore() public returns (bool){... */\n    tag_19:\n        /* \"HelloWorld.sol\":848:852  bool */\n      0x00\n        /* \"HelloWorld.sol\":874:883  _isPure() */\n      tag_34\n        /* \"HelloWorld.sol\":874:881  _isPure */\n      tag_31\n        /* \"HelloWorld.sol\":874:883  _isPure() */\n      jump\t// in\n    tag_34:\n        /* \"HelloWorld.sol\":872:883  ! _isPure() */\n      iszero\n        /* \"HelloWorld.sol\":863:933  require (! _isPure(), \"HelloWorld: The value of text is already pure\") */\n      tag_35\n      jumpi\n      mload(0x40)\n      0x08c379a000000000000000000000000000000000000000000000000000000000\n      dup2\n      mstore\n      0x04\n      add\n      tag_36\n      swap1\n      tag_37\n      jump\t// in\n    tag_36:\n      mload(0x40)\n      dup1\n      swap2\n      sub\n      swap1\n      revert\n    tag_35:\n        /* \"HelloWorld.sol\":943:953  _restore() */\n      tag_38\n        /* \"HelloWorld.sol\":943:951  _restore */\n      tag_39\n        /* \"HelloWorld.sol\":943:953  _restore() */\n      jump\t// in\n    tag_38:\n        /* \"HelloWorld.sol\":970:974  true */\n      0x01\n        /* \"HelloWorld.sol\":963:974  return true */\n      swap1\n      pop\n        /* \"HelloWorld.sol\":813:981  function restore() public returns (bool){... */\n      swap1\n      jump\t// out\n        /* \"HelloWorld.sol\":519:604  function setText(string memory newText) public payable{... */\n    tag_24:\n        /* \"HelloWorld.sol\":590:597  newText */\n      dup1\n        /* \"HelloWorld.sol\":583:587  text */\n      0x00\n        /* \"HelloWorld.sol\":583:597  text = newText */\n      swap1\n      dup1\n      mload\n      swap1\n      0x20\n      add\n      swap1\n      tag_41\n      swap3\n      swap2\n      swap1\n      tag_42\n      jump\t// in\n    tag_41:\n      pop\n        /* \"HelloWorld.sol\":519:604  function setText(string memory newText) public payable{... */\n      pop\n      jump\t// out\n        /* \"HelloWorld.sol\":352:435  function helloWorld() public view returns(string memory){... */\n    tag_27:\n        /* \"HelloWorld.sol\":394:407  string memory */\n      0x60\n        /* \"HelloWorld.sol\":424:428  text */\n      0x00\n        /* \"HelloWorld.sol\":417:428  return text */\n      dup1\n      sload\n      tag_44\n      swap1\n      tag_45\n      jump\t// in\n    tag_44:\n      dup1\n      0x1f\n      add\n      0x20\n      dup1\n      swap2\n      div\n      mul\n      0x20\n      add\n      mload(0x40)\n      swap1\n      dup2\n      add\n      0x40\n      mstore\n      dup1\n      swap3\n      swap2\n      swap1\n      dup2\n      dup2\n      mstore\n      0x20\n      add\n      dup3\n      dup1\n      sload\n      tag_46\n      swap1\n      tag_45\n      jump\t// in\n    tag_46:\n      dup1\n      iszero\n      tag_47\n      jumpi\n      dup1\n      0x1f\n      lt\n      tag_48\n      jumpi\n      0x0100\n      dup1\n      dup4\n      sload\n      div\n      mul\n      dup4\n      mstore\n      swap2\n      0x20\n      add\n      swap2\n      jump(tag_47)\n    tag_48:\n      dup3\n      add\n      swap2\n      swap1\n      0x00\n      mstore\n      keccak256(0x00, 0x20)\n      swap1\n    tag_49:\n      dup2\n      sload\n      dup2\n      mstore\n      swap1\n      0x01\n      add\n      swap1\n      0x20\n      add\n      dup1\n      dup4\n      gt\n      tag_49\n      jumpi\n      dup3\n      swap1\n      sub\n      0x1f\n      and\n      dup3\n      add\n      swap2\n    tag_47:\n      pop\n      pop\n      pop\n      pop\n      pop\n      swap1\n      pop\n        /* \"HelloWorld.sol\":352:435  function helloWorld() public view returns(string memory){... */\n      swap1\n      jump\t// out\n        /* \"HelloWorld.sol\":1100:1235  function _isPure() internal view returns (bool _check){... */\n    tag_31:\n        /* \"HelloWorld.sol\":1142:1153  bool _check */\n      0x00\n        /* \"HelloWorld.sol\":1215:1225  pureText() */\n      tag_51\n        /* \"HelloWorld.sol\":1215:1223  pureText */\n      tag_14\n        /* \"HelloWorld.sol\":1215:1225  pureText() */\n      jump\t// in\n    tag_51:\n        /* \"HelloWorld.sol\":1199:1227  keccak256(bytes(pureText())) */\n      dup1\n      mload\n      swap1\n      0x20\n      add\n      keccak256\n        /* \"HelloWorld.sol\":1189:1193  text */\n      0x00\n        /* \"HelloWorld.sol\":1173:1195  keccak256(bytes(text)) */\n      mload(0x40)\n      tag_52\n      swap2\n      swap1\n      tag_53\n      jump\t// in\n    tag_52:\n      mload(0x40)\n      dup1\n      swap2\n      sub\n      swap1\n      keccak256\n        /* \"HelloWorld.sol\":1173:1227  keccak256(bytes(text)) == keccak256(bytes(pureText())) */\n      eq\n        /* \"HelloWorld.sol\":1164:1227  _check = keccak256(bytes(text)) == keccak256(bytes(pureText())) */\n      swap1\n      pop\n        /* \"HelloWorld.sol\":1100:1235  function _isPure() internal view returns (bool _check){... */\n      swap1\n      jump\t// out\n        /* \"HelloWorld.sol\":1241:1304  function _restore() internal {... */\n    tag_39:\n        /* \"HelloWorld.sol\":1287:1297  pureText() */\n      tag_55\n        /* \"HelloWorld.sol\":1287:1295  pureText */\n      tag_14\n        /* \"HelloWorld.sol\":1287:1297  pureText() */\n      jump\t// in\n    tag_55:\n        /* \"HelloWorld.sol\":1280:1284  text */\n      0x00\n        /* \"HelloWorld.sol\":1280:1297  text = pureText() */\n      swap1\n      dup1\n      mload\n      swap1\n      0x20\n      add\n      swap1\n      tag_56\n      swap3\n      swap2\n      swap1\n      tag_42\n      jump\t// in\n    tag_56:\n      pop\n        /* \"HelloWorld.sol\":1241:1304  function _restore() internal {... */\n      jump\t// out\n    tag_42:\n      dup3\n      dup1\n      sload\n      tag_57\n      swap1\n      tag_45\n      jump\t// in\n    tag_57:\n      swap1\n      0x00\n      mstore\n      keccak256(0x00, 0x20)\n      swap1\n      0x1f\n      add\n      0x20\n      swap1\n      div\n      dup2\n      add\n      swap3\n      dup3\n      tag_59\n      jumpi\n      0x00\n      dup6\n      sstore\n      jump(tag_58)\n    tag_59:\n      dup3\n      0x1f\n      lt\n      tag_60\n      jumpi\n      dup1\n      mload\n      not(0xff)\n      and\n      dup4\n      dup1\n      add\n      or\n      dup6\n      sstore\n      jump(tag_58)\n    tag_60:\n      dup3\n      dup1\n      add\n      0x01\n      add\n      dup6\n      sstore\n      dup3\n      iszero\n      tag_58\n      jumpi\n      swap2\n      dup3\n      add\n    tag_61:\n      dup3\n      dup2\n      gt\n      iszero\n      tag_62\n      jumpi\n      dup3\n      mload\n      dup3\n      sstore\n      swap2\n      0x20\n      add\n      swap2\n      swap1\n      0x01\n      add\n      swap1\n      jump(tag_61)\n    tag_62:\n    tag_58:\n      pop\n      swap1\n      pop\n      tag_63\n      swap2\n      swap1\n      tag_64\n      jump\t// in\n    tag_63:\n      pop\n      swap1\n      jump\t// out\n    tag_64:\n    tag_65:\n      dup1\n      dup3\n      gt\n      iszero\n      tag_66\n      jumpi\n      0x00\n      dup2\n      0x00\n      swap1\n      sstore\n      pop\n      0x01\n      add\n      jump(tag_65)\n    tag_66:\n      pop\n      swap1\n      jump\t// out\n        /* \"#utility.yul\":7:419   */\n    tag_68:\n        /* \"#utility.yul\":85:90   */\n      0x00\n        /* \"#utility.yul\":110:176   */\n      tag_70\n        /* \"#utility.yul\":126:175   */\n      tag_71\n        /* \"#utility.yul\":168:174   */\n      dup5\n        /* \"#utility.yul\":126:175   */\n      tag_72\n      jump\t// in\n    tag_71:\n        /* \"#utility.yul\":110:176   */\n      tag_73\n      jump\t// in\n    tag_70:\n        /* \"#utility.yul\":101:176   */\n      swap1\n      pop\n        /* \"#utility.yul\":199:205   */\n      dup3\n        /* \"#utility.yul\":192:197   */\n      dup2\n        /* \"#utility.yul\":185:206   */\n      mstore\n        /* \"#utility.yul\":237:241   */\n      0x20\n        /* \"#utility.yul\":230:235   */\n      dup2\n        /* \"#utility.yul\":226:242   */\n      add\n        /* \"#utility.yul\":275:278   */\n      dup5\n        /* \"#utility.yul\":266:272   */\n      dup5\n        /* \"#utility.yul\":261:264   */\n      dup5\n        /* \"#utility.yul\":257:273   */\n      add\n        /* \"#utility.yul\":254:279   */\n      gt\n        /* \"#utility.yul\":251:363   */\n      iszero\n      tag_74\n      jumpi\n        /* \"#utility.yul\":282:361   */\n      tag_75\n      tag_76\n      jump\t// in\n    tag_75:\n        /* \"#utility.yul\":251:363   */\n    tag_74:\n        /* \"#utility.yul\":372:413   */\n      tag_77\n        /* \"#utility.yul\":406:412   */\n      dup5\n        /* \"#utility.yul\":401:404   */\n      dup3\n        /* \"#utility.yul\":396:399   */\n      dup6\n        /* \"#utility.yul\":372:413   */\n      tag_78\n      jump\t// in\n    tag_77:\n        /* \"#utility.yul\":91:419   */\n      pop\n        /* \"#utility.yul\":7:419   */\n      swap4\n      swap3\n      pop\n      pop\n      pop\n      jump\t// out\n        /* \"#utility.yul\":439:779   */\n    tag_79:\n        /* \"#utility.yul\":495:500   */\n      0x00\n        /* \"#utility.yul\":544:547   */\n      dup3\n        /* \"#utility.yul\":537:541   */\n      0x1f\n        /* \"#utility.yul\":529:535   */\n      dup4\n        /* \"#utility.yul\":525:542   */\n      add\n        /* \"#utility.yul\":521:548   */\n      slt\n        /* \"#utility.yul\":511:633   */\n      tag_81\n      jumpi\n        /* \"#utility.yul\":552:631   */\n      tag_82\n      tag_83\n      jump\t// in\n    tag_82:\n        /* \"#utility.yul\":511:633   */\n    tag_81:\n        /* \"#utility.yul\":669:675   */\n      dup2\n        /* \"#utility.yul\":656:676   */\n      calldataload\n        /* \"#utility.yul\":694:773   */\n      tag_84\n        /* \"#utility.yul\":769:772   */\n      dup5\n        /* \"#utility.yul\":761:767   */\n      dup3\n        /* \"#utility.yul\":754:758   */\n      0x20\n        /* \"#utility.yul\":746:752   */\n      dup7\n        /* \"#utility.yul\":742:759   */\n      add\n        /* \"#utility.yul\":694:773   */\n      tag_68\n      jump\t// in\n    tag_84:\n        /* \"#utility.yul\":685:773   */\n      swap2\n      pop\n        /* \"#utility.yul\":501:779   */\n      pop\n        /* \"#utility.yul\":439:779   */\n      swap3\n      swap2\n      pop\n      pop\n      jump\t// out\n        /* \"#utility.yul\":785:1294   */\n    tag_23:\n        /* \"#utility.yul\":854:860   */\n      0x00\n        /* \"#utility.yul\":903:905   */\n      0x20\n        /* \"#utility.yul\":891:900   */\n      dup3\n        /* \"#utility.yul\":882:889   */\n      dup5\n        /* \"#utility.yul\":878:901   */\n      sub\n        /* \"#utility.yul\":874:906   */\n      slt\n        /* \"#utility.yul\":871:990   */\n      iszero\n      tag_86\n      jumpi\n        /* \"#utility.yul\":909:988   */\n      tag_87\n      tag_88\n      jump\t// in\n    tag_87:\n        /* \"#utility.yul\":871:990   */\n    tag_86:\n        /* \"#utility.yul\":1057:1058   */\n      0x00\n        /* \"#utility.yul\":1046:1055   */\n      dup3\n        /* \"#utility.yul\":1042:1059   */\n      add\n        /* \"#utility.yul\":1029:1060   */\n      calldataload\n        /* \"#utility.yul\":1087:1105   */\n      0xffffffffffffffff\n        /* \"#utility.yul\":1079:1085   */\n      dup2\n        /* \"#utility.yul\":1076:1106   */\n      gt\n        /* \"#utility.yul\":1073:1190   */\n      iszero\n      tag_89\n      jumpi\n        /* \"#utility.yul\":1109:1188   */\n      tag_90\n      tag_91\n      jump\t// in\n    tag_90:\n        /* \"#utility.yul\":1073:1190   */\n    tag_89:\n        /* \"#utility.yul\":1214:1277   */\n      tag_92\n        /* \"#utility.yul\":1269:1276   */\n      dup5\n        /* \"#utility.yul\":1260:1266   */\n      dup3\n        /* \"#utility.yul\":1249:1258   */\n      dup6\n        /* \"#utility.yul\":1245:1267   */\n      add\n        /* \"#utility.yul\":1214:1277   */\n      tag_79\n      jump\t// in\n    tag_92:\n        /* \"#utility.yul\":1204:1277   */\n      swap2\n      pop\n        /* \"#utility.yul\":1000:1287   */\n      pop\n        /* \"#utility.yul\":785:1294   */\n      swap3\n      swap2\n      pop\n      pop\n      jump\t// out\n        /* \"#utility.yul\":1300:1409   */\n    tag_93:\n        /* \"#utility.yul\":1381:1402   */\n      tag_95\n        /* \"#utility.yul\":1396:1401   */\n      dup2\n        /* \"#utility.yul\":1381:1402   */\n      tag_96\n      jump\t// in\n    tag_95:\n        /* \"#utility.yul\":1376:1379   */\n      dup3\n        /* \"#utility.yul\":1369:1403   */\n      mstore\n        /* \"#utility.yul\":1300:1409   */\n      pop\n      pop\n      jump\t// out\n        /* \"#utility.yul\":1437:2286   */\n    tag_97:\n        /* \"#utility.yul\":1542:1545   */\n      0x00\n        /* \"#utility.yul\":1579:1584   */\n      dup2\n        /* \"#utility.yul\":1573:1585   */\n      sload\n        /* \"#utility.yul\":1608:1644   */\n      tag_99\n        /* \"#utility.yul\":1634:1643   */\n      dup2\n        /* \"#utility.yul\":1608:1644   */\n      tag_45\n      jump\t// in\n    tag_99:\n        /* \"#utility.yul\":1660:1748   */\n      tag_100\n        /* \"#utility.yul\":1741:1747   */\n      dup2\n        /* \"#utility.yul\":1736:1739   */\n      dup7\n        /* \"#utility.yul\":1660:1748   */\n      tag_101\n      jump\t// in\n    tag_100:\n        /* \"#utility.yul\":1653:1748   */\n      swap5\n      pop\n        /* \"#utility.yul\":1779:1780   */\n      0x01\n        /* \"#utility.yul\":1768:1777   */\n      dup3\n        /* \"#utility.yul\":1764:1781   */\n      and\n        /* \"#utility.yul\":1795:1796   */\n      0x00\n        /* \"#utility.yul\":1790:1927   */\n      dup2\n      eq\n      tag_103\n      jumpi\n        /* \"#utility.yul\":1941:1942   */\n      0x01\n        /* \"#utility.yul\":1936:2280   */\n      dup2\n      eq\n      tag_104\n      jumpi\n        /* \"#utility.yul\":1757:2280   */\n      jump(tag_102)\n        /* \"#utility.yul\":1790:1927   */\n    tag_103:\n        /* \"#utility.yul\":1874:1878   */\n      0xff\n        /* \"#utility.yul\":1870:1879   */\n      not\n        /* \"#utility.yul\":1859:1868   */\n      dup4\n        /* \"#utility.yul\":1855:1880   */\n      and\n        /* \"#utility.yul\":1850:1853   */\n      dup7\n        /* \"#utility.yul\":1843:1881   */\n      mstore\n        /* \"#utility.yul\":1910:1916   */\n      dup2\n        /* \"#utility.yul\":1905:1908   */\n      dup7\n        /* \"#utility.yul\":1901:1917   */\n      add\n        /* \"#utility.yul\":1894:1917   */\n      swap4\n      pop\n        /* \"#utility.yul\":1790:1927   */\n      jump(tag_102)\n        /* \"#utility.yul\":1936:2280   */\n    tag_104:\n        /* \"#utility.yul\":2003:2044   */\n      tag_105\n        /* \"#utility.yul\":2038:2043   */\n      dup6\n        /* \"#utility.yul\":2003:2044   */\n      tag_106\n      jump\t// in\n    tag_105:\n        /* \"#utility.yul\":2066:2067   */\n      0x00\n        /* \"#utility.yul\":2080:2234   */\n    tag_107:\n        /* \"#utility.yul\":2094:2100   */\n      dup4\n        /* \"#utility.yul\":2091:2092   */\n      dup2\n        /* \"#utility.yul\":2088:2101   */\n      lt\n        /* \"#utility.yul\":2080:2234   */\n      iszero\n      tag_109\n      jumpi\n        /* \"#utility.yul\":2168:2175   */\n      dup2\n        /* \"#utility.yul\":2162:2176   */\n      sload\n        /* \"#utility.yul\":2158:2159   */\n      dup2\n        /* \"#utility.yul\":2153:2156   */\n      dup10\n        /* \"#utility.yul\":2149:2160   */\n      add\n        /* \"#utility.yul\":2142:2177   */\n      mstore\n        /* \"#utility.yul\":2218:2219   */\n      0x01\n        /* \"#utility.yul\":2209:2216   */\n      dup3\n        /* \"#utility.yul\":2205:2220   */\n      add\n        /* \"#utility.yul\":2194:2220   */\n      swap2\n      pop\n        /* \"#utility.yul\":2116:2120   */\n      0x20\n        /* \"#utility.yul\":2113:2114   */\n      dup2\n        /* \"#utility.yul\":2109:2121   */\n      add\n        /* \"#utility.yul\":2104:2121   */\n      swap1\n      pop\n        /* \"#utility.yul\":2080:2234   */\n      jump(tag_107)\n    tag_109:\n        /* \"#utility.yul\":2263:2269   */\n      dup4\n        /* \"#utility.yul\":2258:2261   */\n      dup9\n        /* \"#utility.yul\":2254:2270   */\n      add\n        /* \"#utility.yul\":2247:2270   */\n      swap6\n      pop\n        /* \"#utility.yul\":1943:2280   */\n      pop\n      pop\n        /* \"#utility.yul\":1757:2280   */\n    tag_102:\n      pop\n        /* \"#utility.yul\":1546:2286   */\n      pop\n      pop\n        /* \"#utility.yul\":1437:2286   */\n      swap3\n      swap2\n      pop\n      pop\n      jump\t// out\n        /* \"#utility.yul\":2292:2656   */\n    tag_110:\n        /* \"#utility.yul\":2380:2383   */\n      0x00\n        /* \"#utility.yul\":2408:2447   */\n      tag_112\n        /* \"#utility.yul\":2441:2446   */\n      dup3\n        /* \"#utility.yul\":2408:2447   */\n      tag_113\n      jump\t// in\n    tag_112:\n        /* \"#utility.yul\":2463:2534   */\n      tag_114\n        /* \"#utility.yul\":2527:2533   */\n      dup2\n        /* \"#utility.yul\":2522:2525   */\n      dup6\n        /* \"#utility.yul\":2463:2534   */\n      tag_115\n      jump\t// in\n    tag_114:\n        /* \"#utility.yul\":2456:2534   */\n      swap4\n      pop\n        /* \"#utility.yul\":2543:2595   */\n      tag_116\n        /* \"#utility.yul\":2588:2594   */\n      dup2\n        /* \"#utility.yul\":2583:2586   */\n      dup6\n        /* \"#utility.yul\":2576:2580   */\n      0x20\n        /* \"#utility.yul\":2569:2574   */\n      dup7\n        /* \"#utility.yul\":2565:2581   */\n      add\n        /* \"#utility.yul\":2543:2595   */\n      tag_117\n      jump\t// in\n    tag_116:\n        /* \"#utility.yul\":2620:2649   */\n      tag_118\n        /* \"#utility.yul\":2642:2648   */\n      dup2\n        /* \"#utility.yul\":2620:2649   */\n      tag_119\n      jump\t// in\n    tag_118:\n        /* \"#utility.yul\":2615:2618   */\n      dup5\n        /* \"#utility.yul\":2611:2650   */\n      add\n        /* \"#utility.yul\":2604:2650   */\n      swap2\n      pop\n        /* \"#utility.yul\":2384:2656   */\n      pop\n        /* \"#utility.yul\":2292:2656   */\n      swap3\n      swap2\n      pop\n      pop\n      jump\t// out\n        /* \"#utility.yul\":2662:3028   */\n    tag_120:\n        /* \"#utility.yul\":2804:2807   */\n      0x00\n        /* \"#utility.yul\":2825:2892   */\n      tag_122\n        /* \"#utility.yul\":2889:2891   */\n      0x2d\n        /* \"#utility.yul\":2884:2887   */\n      dup4\n        /* \"#utility.yul\":2825:2892   */\n      tag_115\n      jump\t// in\n    tag_122:\n        /* \"#utility.yul\":2818:2892   */\n      swap2\n      pop\n        /* \"#utility.yul\":2901:2994   */\n      tag_123\n        /* \"#utility.yul\":2990:2993   */\n      dup3\n        /* \"#utility.yul\":2901:2994   */\n      tag_124\n      jump\t// in\n    tag_123:\n        /* \"#utility.yul\":3019:3021   */\n      0x40\n        /* \"#utility.yul\":3014:3017   */\n      dup3\n        /* \"#utility.yul\":3010:3022   */\n      add\n        /* \"#utility.yul\":3003:3022   */\n      swap1\n      pop\n        /* \"#utility.yul\":2662:3028   */\n      swap2\n      swap1\n      pop\n      jump\t// out\n        /* \"#utility.yul\":3034:3307   */\n    tag_53:\n        /* \"#utility.yul\":3165:3168   */\n      0x00\n        /* \"#utility.yul\":3187:3281   */\n      tag_126\n        /* \"#utility.yul\":3277:3280   */\n      dup3\n        /* \"#utility.yul\":3268:3274   */\n      dup5\n        /* \"#utility.yul\":3187:3281   */\n      tag_97\n      jump\t// in\n    tag_126:\n        /* \"#utility.yul\":3180:3281   */\n      swap2\n      pop\n        /* \"#utility.yul\":3298:3301   */\n      dup2\n        /* \"#utility.yul\":3291:3301   */\n      swap1\n      pop\n        /* \"#utility.yul\":3034:3307   */\n      swap3\n      swap2\n      pop\n      pop\n      jump\t// out\n        /* \"#utility.yul\":3313:3523   */\n    tag_11:\n        /* \"#utility.yul\":3400:3404   */\n      0x00\n        /* \"#utility.yul\":3438:3440   */\n      0x20\n        /* \"#utility.yul\":3427:3436   */\n      dup3\n        /* \"#utility.yul\":3423:3441   */\n      add\n        /* \"#utility.yul\":3415:3441   */\n      swap1\n      pop\n        /* \"#utility.yul\":3451:3516   */\n      tag_128\n        /* \"#utility.yul\":3513:3514   */\n      0x00\n        /* \"#utility.yul\":3502:3511   */\n      dup4\n        /* \"#utility.yul\":3498:3515   */\n      add\n        /* \"#utility.yul\":3489:3495   */\n      dup5\n        /* \"#utility.yul\":3451:3516   */\n      tag_93\n      jump\t// in\n    tag_128:\n        /* \"#utility.yul\":3313:3523   */\n      swap3\n      swap2\n      pop\n      pop\n      jump\t// out\n        /* \"#utility.yul\":3529:3842   */\n    tag_16:\n        /* \"#utility.yul\":3642:3646   */\n      0x00\n        /* \"#utility.yul\":3680:3682   */\n      0x20\n        /* \"#utility.yul\":3669:3678   */\n      dup3\n        /* \"#utility.yul\":3665:3683   */\n      add\n        /* \"#utility.yul\":3657:3683   */\n      swap1\n      pop\n        /* \"#utility.yul\":3729:3738   */\n      dup2\n        /* \"#utility.yul\":3723:3727   */\n      dup2\n        /* \"#utility.yul\":3719:3739   */\n      sub\n        /* \"#utility.yul\":3715:3716   */\n      0x00\n        /* \"#utility.yul\":3704:3713   */\n      dup4\n        /* \"#utility.yul\":3700:3717   */\n      add\n        /* \"#utility.yul\":3693:3740   */\n      mstore\n        /* \"#utility.yul\":3757:3835   */\n      tag_130\n        /* \"#utility.yul\":3830:3834   */\n      dup2\n        /* \"#utility.yul\":3821:3827   */\n      dup5\n        /* \"#utility.yul\":3757:3835   */\n      tag_110\n      jump\t// in\n    tag_130:\n        /* \"#utility.yul\":3749:3835   */\n      swap1\n      pop\n        /* \"#utility.yul\":3529:3842   */\n      swap3\n      swap2\n      pop\n      pop\n      jump\t// out\n        /* \"#utility.yul\":3848:4267   */\n    tag_37:\n        /* \"#utility.yul\":4014:4018   */\n      0x00\n        /* \"#utility.yul\":4052:4054   */\n      0x20\n        /* \"#utility.yul\":4041:4050   */\n      dup3\n        /* \"#utility.yul\":4037:4055   */\n      add\n        /* \"#utility.yul\":4029:4055   */\n      swap1\n      pop\n        /* \"#utility.yul\":4101:4110   */\n      dup2\n        /* \"#utility.yul\":4095:4099   */\n      dup2\n        /* \"#utility.yul\":4091:4111   */\n      sub\n        /* \"#utility.yul\":4087:4088   */\n      0x00\n        /* \"#utility.yul\":4076:4085   */\n      dup4\n        /* \"#utility.yul\":4072:4089   */\n      add\n        /* \"#utility.yul\":4065:4112   */\n      mstore\n        /* \"#utility.yul\":4129:4260   */\n      tag_132\n        /* \"#utility.yul\":4255:4259   */\n      dup2\n        /* \"#utility.yul\":4129:4260   */\n      tag_120\n      jump\t// in\n    tag_132:\n        /* \"#utility.yul\":4121:4260   */\n      swap1\n      pop\n        /* \"#utility.yul\":3848:4267   */\n      swap2\n      swap1\n      pop\n      jump\t// out\n        /* \"#utility.yul\":4273:4402   */\n    tag_73:\n        /* \"#utility.yul\":4307:4313   */\n      0x00\n        /* \"#utility.yul\":4334:4354   */\n      tag_134\n      tag_135\n      jump\t// in\n    tag_134:\n        /* \"#utility.yul\":4324:4354   */\n      swap1\n      pop\n        /* \"#utility.yul\":4363:4396   */\n      tag_136\n        /* \"#utility.yul\":4391:4395   */\n      dup3\n        /* \"#utility.yul\":4383:4389   */\n      dup3\n        /* \"#utility.yul\":4363:4396   */\n      tag_137\n      jump\t// in\n    tag_136:\n        /* \"#utility.yul\":4273:4402   */\n      swap2\n      swap1\n      pop\n      jump\t// out\n        /* \"#utility.yul\":4408:4483   */\n    tag_135:\n        /* \"#utility.yul\":4441:4447   */\n      0x00\n        /* \"#utility.yul\":4474:4476   */\n      0x40\n        /* \"#utility.yul\":4468:4477   */\n      mload\n        /* \"#utility.yul\":4458:4477   */\n      swap1\n      pop\n        /* \"#utility.yul\":4408:4483   */\n      swap1\n      jump\t// out\n        /* \"#utility.yul\":4489:4797   */\n    tag_72:\n        /* \"#utility.yul\":4551:4555   */\n      0x00\n        /* \"#utility.yul\":4641:4659   */\n      0xffffffffffffffff\n        /* \"#utility.yul\":4633:4639   */\n      dup3\n        /* \"#utility.yul\":4630:4660   */\n      gt\n        /* \"#utility.yul\":4627:4683   */\n      iszero\n      tag_140\n      jumpi\n        /* \"#utility.yul\":4663:4681   */\n      tag_141\n      tag_142\n      jump\t// in\n    tag_141:\n        /* \"#utility.yul\":4627:4683   */\n    tag_140:\n        /* \"#utility.yul\":4701:4730   */\n      tag_143\n        /* \"#utility.yul\":4723:4729   */\n      dup3\n        /* \"#utility.yul\":4701:4730   */\n      tag_119\n      jump\t// in\n    tag_143:\n        /* \"#utility.yul\":4693:4730   */\n      swap1\n      pop\n        /* \"#utility.yul\":4785:4789   */\n      0x20\n        /* \"#utility.yul\":4779:4783   */\n      dup2\n        /* \"#utility.yul\":4775:4790   */\n      add\n        /* \"#utility.yul\":4767:4790   */\n      swap1\n      pop\n        /* \"#utility.yul\":4489:4797   */\n      swap2\n      swap1\n      pop\n      jump\t// out\n        /* \"#utility.yul\":4803:4947   */\n    tag_106:\n        /* \"#utility.yul\":4855:4859   */\n      0x00\n        /* \"#utility.yul\":4878:4881   */\n      dup2\n        /* \"#utility.yul\":4870:4881   */\n      swap1\n      pop\n        /* \"#utility.yul\":4901:4904   */\n      dup2\n        /* \"#utility.yul\":4898:4899   */\n      0x00\n        /* \"#utility.yul\":4891:4905   */\n      mstore\n        /* \"#utility.yul\":4935:4939   */\n      0x20\n        /* \"#utility.yul\":4932:4933   */\n      0x00\n        /* \"#utility.yul\":4922:4940   */\n      keccak256\n        /* \"#utility.yul\":4914:4940   */\n      swap1\n      pop\n        /* \"#utility.yul\":4803:4947   */\n      swap2\n      swap1\n      pop\n      jump\t// out\n        /* \"#utility.yul\":4953:5052   */\n    tag_113:\n        /* \"#utility.yul\":5005:5011   */\n      0x00\n        /* \"#utility.yul\":5039:5044   */\n      dup2\n        /* \"#utility.yul\":5033:5045   */\n      mload\n        /* \"#utility.yul\":5023:5045   */\n      swap1\n      pop\n        /* \"#utility.yul\":4953:5052   */\n      swap2\n      swap1\n      pop\n      jump\t// out\n        /* \"#utility.yul\":5058:5205   */\n    tag_101:\n        /* \"#utility.yul\":5159:5170   */\n      0x00\n        /* \"#utility.yul\":5196:5199   */\n      dup2\n        /* \"#utility.yul\":5181:5199   */\n      swap1\n      pop\n        /* \"#utility.yul\":5058:5205   */\n      swap3\n      swap2\n      pop\n      pop\n      jump\t// out\n        /* \"#utility.yul\":5211:5380   */\n    tag_115:\n        /* \"#utility.yul\":5295:5306   */\n      0x00\n        /* \"#utility.yul\":5329:5335   */\n      dup3\n        /* \"#utility.yul\":5324:5327   */\n      dup3\n        /* \"#utility.yul\":5317:5336   */\n      mstore\n        /* \"#utility.yul\":5369:5373   */\n      0x20\n        /* \"#utility.yul\":5364:5367   */\n      dup3\n        /* \"#utility.yul\":5360:5374   */\n      add\n        /* \"#utility.yul\":5345:5374   */\n      swap1\n      pop\n        /* \"#utility.yul\":5211:5380   */\n      swap3\n      swap2\n      pop\n      pop\n      jump\t// out\n        /* \"#utility.yul\":5386:5476   */\n    tag_96:\n        /* \"#utility.yul\":5420:5427   */\n      0x00\n        /* \"#utility.yul\":5463:5468   */\n      dup2\n        /* \"#utility.yul\":5456:5469   */\n      iszero\n        /* \"#utility.yul\":5449:5470   */\n      iszero\n        /* \"#utility.yul\":5438:5470   */\n      swap1\n      pop\n        /* \"#utility.yul\":5386:5476   */\n      swap2\n      swap1\n      pop\n      jump\t// out\n        /* \"#utility.yul\":5482:5636   */\n    tag_78:\n        /* \"#utility.yul\":5566:5572   */\n      dup3\n        /* \"#utility.yul\":5561:5564   */\n      dup2\n        /* \"#utility.yul\":5556:5559   */\n      dup4\n        /* \"#utility.yul\":5543:5573   */\n      calldatacopy\n        /* \"#utility.yul\":5628:5629   */\n      0x00\n        /* \"#utility.yul\":5619:5625   */\n      dup4\n        /* \"#utility.yul\":5614:5617   */\n      dup4\n        /* \"#utility.yul\":5610:5626   */\n      add\n        /* \"#utility.yul\":5603:5630   */\n      mstore\n        /* \"#utility.yul\":5482:5636   */\n      pop\n      pop\n      pop\n      jump\t// out\n        /* \"#utility.yul\":5642:5949   */\n    tag_117:\n        /* \"#utility.yul\":5710:5711   */\n      0x00\n        /* \"#utility.yul\":5720:5833   */\n    tag_151:\n        /* \"#utility.yul\":5734:5740   */\n      dup4\n        /* \"#utility.yul\":5731:5732   */\n      dup2\n        /* \"#utility.yul\":5728:5741   */\n      lt\n        /* \"#utility.yul\":5720:5833   */\n      iszero\n      tag_153\n      jumpi\n        /* \"#utility.yul\":5819:5820   */\n      dup1\n        /* \"#utility.yul\":5814:5817   */\n      dup3\n        /* \"#utility.yul\":5810:5821   */\n      add\n        /* \"#utility.yul\":5804:5822   */\n      mload\n        /* \"#utility.yul\":5800:5801   */\n      dup2\n        /* \"#utility.yul\":5795:5798   */\n      dup5\n        /* \"#utility.yul\":5791:5802   */\n      add\n        /* \"#utility.yul\":5784:5823   */\n      mstore\n        /* \"#utility.yul\":5756:5758   */\n      0x20\n        /* \"#utility.yul\":5753:5754   */\n      dup2\n        /* \"#utility.yul\":5749:5759   */\n      add\n        /* \"#utility.yul\":5744:5759   */\n      swap1\n      pop\n        /* \"#utility.yul\":5720:5833   */\n      jump(tag_151)\n    tag_153:\n        /* \"#utility.yul\":5851:5857   */\n      dup4\n        /* \"#utility.yul\":5848:5849   */\n      dup2\n        /* \"#utility.yul\":5845:5858   */\n      gt\n        /* \"#utility.yul\":5842:5943   */\n      iszero\n      tag_154\n      jumpi\n        /* \"#utility.yul\":5931:5932   */\n      0x00\n        /* \"#utility.yul\":5922:5928   */\n      dup5\n        /* \"#utility.yul\":5917:5920   */\n      dup5\n        /* \"#utility.yul\":5913:5929   */\n      add\n        /* \"#utility.yul\":5906:5933   */\n      mstore\n        /* \"#utility.yul\":5842:5943   */\n    tag_154:\n        /* \"#utility.yul\":5691:5949   */\n      pop\n        /* \"#utility.yul\":5642:5949   */\n      pop\n      pop\n      pop\n      jump\t// out\n        /* \"#utility.yul\":5955:6275   */\n    tag_45:\n        /* \"#utility.yul\":5999:6005   */\n      0x00\n        /* \"#utility.yul\":6036:6037   */\n      0x02\n        /* \"#utility.yul\":6030:6034   */\n      dup3\n        /* \"#utility.yul\":6026:6038   */\n      div\n        /* \"#utility.yul\":6016:6038   */\n      swap1\n      pop\n        /* \"#utility.yul\":6083:6084   */\n      0x01\n        /* \"#utility.yul\":6077:6081   */\n      dup3\n        /* \"#utility.yul\":6073:6085   */\n      and\n        /* \"#utility.yul\":6104:6122   */\n      dup1\n        /* \"#utility.yul\":6094:6175   */\n      tag_156\n      jumpi\n        /* \"#utility.yul\":6160:6164   */\n      0x7f\n        /* \"#utility.yul\":6152:6158   */\n      dup3\n        /* \"#utility.yul\":6148:6165   */\n      and\n        /* \"#utility.yul\":6138:6165   */\n      swap2\n      pop\n        /* \"#utility.yul\":6094:6175   */\n    tag_156:\n        /* \"#utility.yul\":6222:6224   */\n      0x20\n        /* \"#utility.yul\":6214:6220   */\n      dup3\n        /* \"#utility.yul\":6211:6225   */\n      lt\n        /* \"#utility.yul\":6191:6209   */\n      dup2\n        /* \"#utility.yul\":6188:6226   */\n      eq\n        /* \"#utility.yul\":6185:6269   */\n      iszero\n      tag_157\n      jumpi\n        /* \"#utility.yul\":6241:6259   */\n      tag_158\n      tag_159\n      jump\t// in\n    tag_158:\n        /* \"#utility.yul\":6185:6269   */\n    tag_157:\n        /* \"#utility.yul\":6006:6275   */\n      pop\n        /* \"#utility.yul\":5955:6275   */\n      swap2\n      swap1\n      pop\n      jump\t// out\n        /* \"#utility.yul\":6281:6562   */\n    tag_137:\n        /* \"#utility.yul\":6364:6391   */\n      tag_161\n        /* \"#utility.yul\":6386:6390   */\n      dup3\n        /* \"#utility.yul\":6364:6391   */\n      tag_119\n      jump\t// in\n    tag_161:\n        /* \"#utility.yul\":6356:6362   */\n      dup2\n        /* \"#utility.yul\":6352:6392   */\n      add\n        /* \"#utility.yul\":6494:6500   */\n      dup2\n        /* \"#utility.yul\":6482:6492   */\n      dup2\n        /* \"#utility.yul\":6479:6501   */\n      lt\n        /* \"#utility.yul\":6458:6476   */\n      0xffffffffffffffff\n        /* \"#utility.yul\":6446:6456   */\n      dup3\n        /* \"#utility.yul\":6443:6477   */\n      gt\n        /* \"#utility.yul\":6440:6502   */\n      or\n        /* \"#utility.yul\":6437:6525   */\n      iszero\n      tag_162\n      jumpi\n        /* \"#utility.yul\":6505:6523   */\n      tag_163\n      tag_142\n      jump\t// in\n    tag_163:\n        /* \"#utility.yul\":6437:6525   */\n    tag_162:\n        /* \"#utility.yul\":6545:6555   */\n      dup1\n        /* \"#utility.yul\":6541:6543   */\n      0x40\n        /* \"#utility.yul\":6534:6556   */\n      mstore\n        /* \"#utility.yul\":6324:6562   */\n      pop\n        /* \"#utility.yul\":6281:6562   */\n      pop\n      pop\n      jump\t// out\n        /* \"#utility.yul\":6568:6748   */\n    tag_159:\n        /* \"#utility.yul\":6616:6693   */\n      0x4e487b7100000000000000000000000000000000000000000000000000000000\n        /* \"#utility.yul\":6613:6614   */\n      0x00\n        /* \"#utility.yul\":6606:6694   */\n      mstore\n        /* \"#utility.yul\":6713:6717   */\n      0x22\n        /* \"#utility.yul\":6710:6711   */\n      0x04\n        /* \"#utility.yul\":6703:6718   */\n      mstore\n        /* \"#utility.yul\":6737:6741   */\n      0x24\n        /* \"#utility.yul\":6734:6735   */\n      0x00\n        /* \"#utility.yul\":6727:6742   */\n      revert\n        /* \"#utility.yul\":6754:6934   */\n    tag_142:\n        /* \"#utility.yul\":6802:6879   */\n      0x4e487b7100000000000000000000000000000000000000000000000000000000\n        /* \"#utility.yul\":6799:6800   */\n      0x00\n        /* \"#utility.yul\":6792:6880   */\n      mstore\n        /* \"#utility.yul\":6899:6903   */\n      0x41\n        /* \"#utility.yul\":6896:6897   */\n      0x04\n        /* \"#utility.yul\":6889:6904   */\n      mstore\n        /* \"#utility.yul\":6923:6927   */\n      0x24\n        /* \"#utility.yul\":6920:6921   */\n      0x00\n        /* \"#utility.yul\":6913:6928   */\n      revert\n        /* \"#utility.yul\":6940:7057   */\n    tag_83:\n        /* \"#utility.yul\":7049:7050   */\n      0x00\n        /* \"#utility.yul\":7046:7047   */\n      dup1\n        /* \"#utility.yul\":7039:7051   */\n      revert\n        /* \"#utility.yul\":7063:7180   */\n    tag_76:\n        /* \"#utility.yul\":7172:7173   */\n      0x00\n        /* \"#utility.yul\":7169:7170   */\n      dup1\n        /* \"#utility.yul\":7162:7174   */\n      revert\n        /* \"#utility.yul\":7186:7303   */\n    tag_91:\n        /* \"#utility.yul\":7295:7296   */\n      0x00\n        /* \"#utility.yul\":7292:7293   */\n      dup1\n        /* \"#utility.yul\":7285:7297   */\n      revert\n        /* \"#utility.yul\":7309:7426   */\n    tag_88:\n        /* \"#utility.yul\":7418:7419   */\n      0x00\n        /* \"#utility.yul\":7415:7416   */\n      dup1\n        /* \"#utility.yul\":7408:7420   */\n      revert\n        /* \"#utility.yul\":7432:7534   */\n    tag_119:\n        /* \"#utility.yul\":7473:7479   */\n      0x00\n        /* \"#utility.yul\":7524:7526   */\n      0x1f\n        /* \"#utility.yul\":7520:7527   */\n      not\n        /* \"#utility.yul\":7515:7517   */\n      0x1f\n        /* \"#utility.yul\":7508:7513   */\n      dup4\n        /* \"#utility.yul\":7504:7518   */\n      add\n        /* \"#utility.yul\":7500:7528   */\n      and\n        /* \"#utility.yul\":7490:7528   */\n      swap1\n      pop\n        /* \"#utility.yul\":7432:7534   */\n      swap2\n      swap1\n      pop\n      jump\t// out\n        /* \"#utility.yul\":7540:7772   */\n    tag_124:\n        /* \"#utility.yul\":7680:7714   */\n      0x48656c6c6f576f726c643a205468652076616c7565206f662074657874206973\n        /* \"#utility.yul\":7676:7677   */\n      0x00\n        /* \"#utility.yul\":7668:7674   */\n      dup3\n        /* \"#utility.yul\":7664:7678   */\n      add\n        /* \"#utility.yul\":7657:7715   */\n      mstore\n        /* \"#utility.yul\":7749:7764   */\n      0x20616c7265616479207075726500000000000000000000000000000000000000\n        /* \"#utility.yul\":7744:7746   */\n      0x20\n        /* \"#utility.yul\":7736:7742   */\n      dup3\n        /* \"#utility.yul\":7732:7747   */\n      add\n        /* \"#utility.yul\":7725:7765   */\n      mstore\n        /* \"#utility.yul\":7540:7772   */\n      pop\n      jump\t// out\n\n    auxdata: 0xa264697066735822122097010c60a791e2177b1ef71dcac25903d5363ee8089ce52f24041751039fde1f64736f6c63430008070033\n}\n",
				"bytecode": {
					"linkReferences": {},
					"object": "608060405234801561001057600080fd5b5061001f61003a60201b60201c565b60009080519060200190610034929190610077565b5061017b565b60606040518060400160405280600b81526020017f48656c6c6f20576f726c64000000000000000000000000000000000000000000815250905090565b8280546100839061011a565b90600052602060002090601f0160209004810192826100a557600085556100ec565b82601f106100be57805160ff19168380011785556100ec565b828001600101855582156100ec579182015b828111156100eb5782518255916020019190600101906100d0565b5b5090506100f991906100fd565b5090565b5b808211156101165760008160009055506001016100fe565b5090565b6000600282049050600182168061013257607f821691505b602082108114156101465761014561014c565b5b50919050565b7f4e487b7100000000000000000000000000000000000000000000000000000000600052602260045260246000fd5b6107bb8061018a6000396000f3fe60806040526004361061004a5760003560e01c80630953aec51461004f5780631089bbc81461007a5780632fda332e146100a55780635d3a1f9d146100d0578063c605f76c146100ec575b600080fd5b34801561005b57600080fd5b50610064610117565b6040516100719190610513565b60405180910390f35b34801561008657600080fd5b5061008f610126565b60405161009c919061052e565b60405180910390f35b3480156100b157600080fd5b506100ba610163565b6040516100c79190610513565b60405180910390f35b6100ea60048036038101906100e591906103c9565b6101bc565b005b3480156100f857600080fd5b506101016101d6565b60405161010e919061052e565b60405180910390f35b6000610121610268565b905090565b60606040518060400160405280600b81526020017f48656c6c6f20576f726c64000000000000000000000000000000000000000000815250905090565b600061016d610268565b156101ad576040517f08c379a00000000000000000000000000000000000000000000000000000000081526004016101a490610550565b60405180910390fd5b6101b5610296565b6001905090565b80600090805190602001906101d29291906102b6565b5050565b6060600080546101e590610650565b80601f016020809104026020016040519081016040528092919081815260200182805461021190610650565b801561025e5780601f106102335761010080835404028352916020019161025e565b820191906000526020600020905b81548152906001019060200180831161024157829003601f168201915b5050505050905090565b6000610272610126565b80519060200120600060405161028891906104fc565b604051809103902014905090565b61029e610126565b600090805190602001906102b39291906102b6565b50565b8280546102c290610650565b90600052602060002090601f0160209004810192826102e4576000855561032b565b82601f106102fd57805160ff191683800117855561032b565b8280016001018555821561032b579182015b8281111561032a57825182559160200191906001019061030f565b5b509050610338919061033c565b5090565b5b8082111561035557600081600090555060010161033d565b5090565b600061036c61036784610595565b610570565b90508281526020810184848401111561038857610387610716565b5b61039384828561060e565b509392505050565b600082601f8301126103b0576103af610711565b5b81356103c0848260208601610359565b91505092915050565b6000602082840312156103df576103de610720565b5b600082013567ffffffffffffffff8111156103fd576103fc61071b565b5b6104098482850161039b565b91505092915050565b61041b81610602565b82525050565b6000815461042e81610650565b61043881866105e6565b94506001821660008114610453576001811461046457610497565b60ff19831686528186019350610497565b61046d856105c6565b60005b8381101561048f57815481890152600182019150602081019050610470565b838801955050505b50505092915050565b60006104ab826105db565b6104b581856105f1565b93506104c581856020860161061d565b6104ce81610725565b840191505092915050565b60006104e6602d836105f1565b91506104f182610736565b604082019050919050565b60006105088284610421565b915081905092915050565b60006020820190506105286000830184610412565b92915050565b6000602082019050818103600083015261054881846104a0565b905092915050565b60006020820190508181036000830152610569816104d9565b9050919050565b600061057a61058b565b90506105868282610682565b919050565b6000604051905090565b600067ffffffffffffffff8211156105b0576105af6106e2565b5b6105b982610725565b9050602081019050919050565b60008190508160005260206000209050919050565b600081519050919050565b600081905092915050565b600082825260208201905092915050565b60008115159050919050565b82818337600083830152505050565b60005b8381101561063b578082015181840152602081019050610620565b8381111561064a576000848401525b50505050565b6000600282049050600182168061066857607f821691505b6020821081141561067c5761067b6106b3565b5b50919050565b61068b82610725565b810181811067ffffffffffffffff821117156106aa576106a96106e2565b5b80604052505050565b7f4e487b7100000000000000000000000000000000000000000000000000000000600052602260045260246000fd5b7f4e487b7100000000000000000000000000000000000000000000000000000000600052604160045260246000fd5b600080fd5b600080fd5b600080fd5b600080fd5b6000601f19601f8301169050919050565b7f48656c6c6f576f726c643a205468652076616c7565206f66207465787420697360008201527f20616c726561647920707572650000000000000000000000000000000000000060208201525056fea264697066735822122097010c60a791e2177b1ef71dcac25903d5363ee8089ce52f24041751039fde1f64736f6c63430008070033",
					"opcodes": "PUSH1 0x80 PUSH1 0x40 MSTORE CALLVALUE DUP1 ISZERO PUSH2 0x10 JUMPI PUSH1 0x0 DUP1 REVERT JUMPDEST POP PUSH2 0x1F PUSH2 0x3A PUSH1 0x20 SHL PUSH1 0x20 SHR JUMP JUMPDEST PUSH1 0x0 SWAP1 DUP1 MLOAD SWAP1 PUSH1 0x20 ADD SWAP1 PUSH2 0x34 SWAP3 SWAP2 SWAP1 PUSH2 0x77 JUMP JUMPDEST POP PUSH2 0x17B JUMP JUMPDEST PUSH1 0x60 PUSH1 0x40 MLOAD DUP1 PUSH1 0x40 ADD PUSH1 0x40 MSTORE DUP1 PUSH1 0xB DUP2 MSTORE PUSH1 0x20 ADD PUSH32 0x48656C6C6F20576F726C64000000000000000000000000000000000000000000 DUP2 MSTORE POP SWAP1 POP SWAP1 JUMP JUMPDEST DUP3 DUP1 SLOAD PUSH2 0x83 SWAP1 PUSH2 0x11A JUMP JUMPDEST SWAP1 PUSH1 0x0 MSTORE PUSH1 0x20 PUSH1 0x0 KECCAK256 SWAP1 PUSH1 0x1F ADD PUSH1 0x20 SWAP1 DIV DUP2 ADD SWAP3 DUP3 PUSH2 0xA5 JUMPI PUSH1 0x0 DUP6 SSTORE PUSH2 0xEC JUMP JUMPDEST DUP3 PUSH1 0x1F LT PUSH2 0xBE JUMPI DUP1 MLOAD PUSH1 0xFF NOT AND DUP4 DUP1 ADD OR DUP6 SSTORE PUSH2 0xEC JUMP JUMPDEST DUP3 DUP1 ADD PUSH1 0x1 ADD DUP6 SSTORE DUP3 ISZERO PUSH2 0xEC JUMPI SWAP2 DUP3 ADD JUMPDEST DUP3 DUP2 GT ISZERO PUSH2 0xEB JUMPI DUP3 MLOAD DUP3 SSTORE SWAP2 PUSH1 0x20 ADD SWAP2 SWAP1 PUSH1 0x1 ADD SWAP1 PUSH2 0xD0 JUMP JUMPDEST JUMPDEST POP SWAP1 POP PUSH2 0xF9 SWAP2 SWAP1 PUSH2 0xFD JUMP JUMPDEST POP SWAP1 JUMP JUMPDEST JUMPDEST DUP1 DUP3 GT ISZERO PUSH2 0x116 JUMPI PUSH1 0x0 DUP2 PUSH1 0x0 SWAP1 SSTORE POP PUSH1 0x1 ADD PUSH2 0xFE JUMP JUMPDEST POP SWAP1 JUMP JUMPDEST PUSH1 0x0 PUSH1 0x2 DUP3 DIV SWAP1 POP PUSH1 0x1 DUP3 AND DUP1 PUSH2 0x132 JUMPI PUSH1 0x7F DUP3 AND SWAP2 POP JUMPDEST PUSH1 0x20 DUP3 LT DUP2 EQ ISZERO PUSH2 0x146 JUMPI PUSH2 0x145 PUSH2 0x14C JUMP JUMPDEST JUMPDEST POP SWAP2 SWAP1 POP JUMP JUMPDEST PUSH32 0x4E487B7100000000000000000000000000000000000000000000000000000000 PUSH1 0x0 MSTORE PUSH1 0x22 PUSH1 0x4 MSTORE PUSH1 0x24 PUSH1 0x0 REVERT JUMPDEST PUSH2 0x7BB DUP1 PUSH2 0x18A PUSH1 0x0 CODECOPY PUSH1 0x0 RETURN INVALID PUSH1 0x80 PUSH1 0x40 MSTORE PUSH1 0x4 CALLDATASIZE LT PUSH2 0x4A JUMPI PUSH1 0x0 CALLDATALOAD PUSH1 0xE0 SHR DUP1 PUSH4 0x953AEC5 EQ PUSH2 0x4F JUMPI DUP1 PUSH4 0x1089BBC8 EQ PUSH2 0x7A JUMPI DUP1 PUSH4 0x2FDA332E EQ PUSH2 0xA5 JUMPI DUP1 PUSH4 0x5D3A1F9D EQ PUSH2 0xD0 JUMPI DUP1 PUSH4 0xC605F76C EQ PUSH2 0xEC JUMPI JUMPDEST PUSH1 0x0 DUP1 REVERT JUMPDEST CALLVALUE DUP1 ISZERO PUSH2 0x5B JUMPI PUSH1 0x0 DUP1 REVERT JUMPDEST POP PUSH2 0x64 PUSH2 0x117 JUMP JUMPDEST PUSH1 0x40 MLOAD PUSH2 0x71 SWAP2 SWAP1 PUSH2 0x513 JUMP JUMPDEST PUSH1 0x40 MLOAD DUP1 SWAP2 SUB SWAP1 RETURN JUMPDEST CALLVALUE DUP1 ISZERO PUSH2 0x86 JUMPI PUSH1 0x0 DUP1 REVERT JUMPDEST POP PUSH2 0x8F PUSH2 0x126 JUMP JUMPDEST PUSH1 0x40 MLOAD PUSH2 0x9C SWAP2 SWAP1 PUSH2 0x52E JUMP JUMPDEST PUSH1 0x40 MLOAD DUP1 SWAP2 SUB SWAP1 RETURN JUMPDEST CALLVALUE DUP1 ISZERO PUSH2 0xB1 JUMPI PUSH1 0x0 DUP1 REVERT JUMPDEST POP PUSH2 0xBA PUSH2 0x163 JUMP JUMPDEST PUSH1 0x40 MLOAD PUSH2 0xC7 SWAP2 SWAP1 PUSH2 0x513 JUMP JUMPDEST PUSH1 0x40 MLOAD DUP1 SWAP2 SUB SWAP1 RETURN JUMPDEST PUSH2 0xEA PUSH1 0x4 DUP1 CALLDATASIZE SUB DUP2 ADD SWAP1 PUSH2 0xE5 SWAP2 SWAP1 PUSH2 0x3C9 JUMP JUMPDEST PUSH2 0x1BC JUMP JUMPDEST STOP JUMPDEST CALLVALUE DUP1 ISZERO PUSH2 0xF8 JUMPI PUSH1 0x0 DUP1 REVERT JUMPDEST POP PUSH2 0x101 PUSH2 0x1D6 JUMP JUMPDEST PUSH1 0x40 MLOAD PUSH2 0x10E SWAP2 SWAP1 PUSH2 0x52E JUMP JUMPDEST PUSH1 0x40 MLOAD DUP1 SWAP2 SUB SWAP1 RETURN JUMPDEST PUSH1 0x0 PUSH2 0x121 PUSH2 0x268 JUMP JUMPDEST SWAP1 POP SWAP1 JUMP JUMPDEST PUSH1 0x60 PUSH1 0x40 MLOAD DUP1 PUSH1 0x40 ADD PUSH1 0x40 MSTORE DUP1 PUSH1 0xB DUP2 MSTORE PUSH1 0x20 ADD PUSH32 0x48656C6C6F20576F726C64000000000000000000000000000000000000000000 DUP2 MSTORE POP SWAP1 POP SWAP1 JUMP JUMPDEST PUSH1 0x0 PUSH2 0x16D PUSH2 0x268 JUMP JUMPDEST ISZERO PUSH2 0x1AD JUMPI PUSH1 0x40 MLOAD PUSH32 0x8C379A000000000000000000000000000000000000000000000000000000000 DUP2 MSTORE PUSH1 0x4 ADD PUSH2 0x1A4 SWAP1 PUSH2 0x550 JUMP JUMPDEST PUSH1 0x40 MLOAD DUP1 SWAP2 SUB SWAP1 REVERT JUMPDEST PUSH2 0x1B5 PUSH2 0x296 JUMP JUMPDEST PUSH1 0x1 SWAP1 POP SWAP1 JUMP JUMPDEST DUP1 PUSH1 0x0 SWAP1 DUP1 MLOAD SWAP1 PUSH1 0x20 ADD SWAP1 PUSH2 0x1D2 SWAP3 SWAP2 SWAP1 PUSH2 0x2B6 JUMP JUMPDEST POP POP JUMP JUMPDEST PUSH1 0x60 PUSH1 0x0 DUP1 SLOAD PUSH2 0x1E5 SWAP1 PUSH2 0x650 JUMP JUMPDEST DUP1 PUSH1 0x1F ADD PUSH1 0x20 DUP1 SWAP2 DIV MUL PUSH1 0x20 ADD PUSH1 0x40 MLOAD SWAP1 DUP2 ADD PUSH1 0x40 MSTORE DUP1 SWAP3 SWAP2 SWAP1 DUP2 DUP2 MSTORE PUSH1 0x20 ADD DUP3 DUP1 SLOAD PUSH2 0x211 SWAP1 PUSH2 0x650 JUMP JUMPDEST DUP1 ISZERO PUSH2 0x25E JUMPI DUP1 PUSH1 0x1F LT PUSH2 0x233 JUMPI PUSH2 0x100 DUP1 DUP4 SLOAD DIV MUL DUP4 MSTORE SWAP2 PUSH1 0x20 ADD SWAP2 PUSH2 0x25E JUMP JUMPDEST DUP3 ADD SWAP2 SWAP1 PUSH1 0x0 MSTORE PUSH1 0x20 PUSH1 0x0 KECCAK256 SWAP1 JUMPDEST DUP2 SLOAD DUP2 MSTORE SWAP1 PUSH1 0x1 ADD SWAP1 PUSH1 0x20 ADD DUP1 DUP4 GT PUSH2 0x241 JUMPI DUP3 SWAP1 SUB PUSH1 0x1F AND DUP3 ADD SWAP2 JUMPDEST POP POP POP POP POP SWAP1 POP SWAP1 JUMP JUMPDEST PUSH1 0x0 PUSH2 0x272 PUSH2 0x126 JUMP JUMPDEST DUP1 MLOAD SWAP1 PUSH1 0x20 ADD KECCAK256 PUSH1 0x0 PUSH1 0x40 MLOAD PUSH2 0x288 SWAP2 SWAP1 PUSH2 0x4FC JUMP JUMPDEST PUSH1 0x40 MLOAD DUP1 SWAP2 SUB SWAP1 KECCAK256 EQ SWAP1 POP SWAP1 JUMP JUMPDEST PUSH2 0x29E PUSH2 0x126 JUMP JUMPDEST PUSH1 0x0 SWAP1 DUP1 MLOAD SWAP1 PUSH1 0x20 ADD SWAP1 PUSH2 0x2B3 SWAP3 SWAP2 SWAP1 PUSH2 0x2B6 JUMP JUMPDEST POP JUMP JUMPDEST DUP3 DUP1 SLOAD PUSH2 0x2C2 SWAP1 PUSH2 0x650 JUMP JUMPDEST SWAP1 PUSH1 0x0 MSTORE PUSH1 0x20 PUSH1 0x0 KECCAK256 SWAP1 PUSH1 0x1F ADD PUSH1 0x20 SWAP1 DIV DUP2 ADD SWAP3 DUP3 PUSH2 0x2E4 JUMPI PUSH1 0x0 DUP6 SSTORE PUSH2 0x32B JUMP JUMPDEST DUP3 PUSH1 0x1F LT PUSH2 0x2FD JUMPI DUP1 MLOAD PUSH1 0xFF NOT AND DUP4 DUP1 ADD OR DUP6 SSTORE PUSH2 0x32B JUMP JUMPDEST DUP3 DUP1 ADD PUSH1 0x1 ADD DUP6 SSTORE DUP3 ISZERO PUSH2 0x32B JUMPI SWAP2 DUP3 ADD JUMPDEST DUP3 DUP2 GT ISZERO PUSH2 0x32A JUMPI DUP3 MLOAD DUP3 SSTORE SWAP2 PUSH1 0x20 ADD SWAP2 SWAP1 PUSH1 0x1 ADD SWAP1 PUSH2 0x30F JUMP JUMPDEST JUMPDEST POP SWAP1 POP PUSH2 0x338 SWAP2 SWAP1 PUSH2 0x33C JUMP JUMPDEST POP SWAP1 JUMP JUMPDEST JUMPDEST DUP1 DUP3 GT ISZERO PUSH2 0x355 JUMPI PUSH1 0x0 DUP2 PUSH1 0x0 SWAP1 SSTORE POP PUSH1 0x1 ADD PUSH2 0x33D JUMP JUMPDEST POP SWAP1 JUMP JUMPDEST PUSH1 0x0 PUSH2 0x36C PUSH2 0x367 DUP5 PUSH2 0x595 JUMP JUMPDEST PUSH2 0x570 JUMP JUMPDEST SWAP1 POP DUP3 DUP2 MSTORE PUSH1 0x20 DUP2 ADD DUP5 DUP5 DUP5 ADD GT ISZERO PUSH2 0x388 JUMPI PUSH2 0x387 PUSH2 0x716 JUMP JUMPDEST JUMPDEST PUSH2 0x393 DUP5 DUP3 DUP6 PUSH2 0x60E JUMP JUMPDEST POP SWAP4 SWAP3 POP POP POP JUMP JUMPDEST PUSH1 0x0 DUP3 PUSH1 0x1F DUP4 ADD SLT PUSH2 0x3B0 JUMPI PUSH2 0x3AF PUSH2 0x711 JUMP JUMPDEST JUMPDEST DUP2 CALLDATALOAD PUSH2 0x3C0 DUP5 DUP3 PUSH1 0x20 DUP7 ADD PUSH2 0x359 JUMP JUMPDEST SWAP2 POP POP SWAP3 SWAP2 POP POP JUMP JUMPDEST PUSH1 0x0 PUSH1 0x20 DUP3 DUP5 SUB SLT ISZERO PUSH2 0x3DF JUMPI PUSH2 0x3DE PUSH2 0x720 JUMP JUMPDEST JUMPDEST PUSH1 0x0 DUP3 ADD CALLDATALOAD PUSH8 0xFFFFFFFFFFFFFFFF DUP2 GT ISZERO PUSH2 0x3FD JUMPI PUSH2 0x3FC PUSH2 0x71B JUMP JUMPDEST JUMPDEST PUSH2 0x409 DUP5 DUP3 DUP6 ADD PUSH2 0x39B JUMP JUMPDEST SWAP2 POP POP SWAP3 SWAP2 POP POP JUMP JUMPDEST PUSH2 0x41B DUP2 PUSH2 0x602 JUMP JUMPDEST DUP3 MSTORE POP POP JUMP JUMPDEST PUSH1 0x0 DUP2 SLOAD PUSH2 0x42E DUP2 PUSH2 0x650 JUMP JUMPDEST PUSH2 0x438 DUP2 DUP7 PUSH2 0x5E6 JUMP JUMPDEST SWAP5 POP PUSH1 0x1 DUP3 AND PUSH1 0x0 DUP2 EQ PUSH2 0x453 JUMPI PUSH1 0x1 DUP2 EQ PUSH2 0x464 JUMPI PUSH2 0x497 JUMP JUMPDEST PUSH1 0xFF NOT DUP4 AND DUP7 MSTORE DUP2 DUP7 ADD SWAP4 POP PUSH2 0x497 JUMP JUMPDEST PUSH2 0x46D DUP6 PUSH2 0x5C6 JUMP JUMPDEST PUSH1 0x0 JUMPDEST DUP4 DUP2 LT ISZERO PUSH2 0x48F JUMPI DUP2 SLOAD DUP2 DUP10 ADD MSTORE PUSH1 0x1 DUP3 ADD SWAP2 POP PUSH1 0x20 DUP2 ADD SWAP1 POP PUSH2 0x470 JUMP JUMPDEST DUP4 DUP9 ADD SWAP6 POP POP POP JUMPDEST POP POP POP SWAP3 SWAP2 POP POP JUMP JUMPDEST PUSH1 0x0 PUSH2 0x4AB DUP3 PUSH2 0x5DB JUMP JUMPDEST PUSH2 0x4B5 DUP2 DUP6 PUSH2 0x5F1 JUMP JUMPDEST SWAP4 POP PUSH2 0x4C5 DUP2 DUP6 PUSH1 0x20 DUP7 ADD PUSH2 0x61D JUMP JUMPDEST PUSH2 0x4CE DUP2 PUSH2 0x725 JUMP JUMPDEST DUP5 ADD SWAP2 POP POP SWAP3 SWAP2 POP POP JUMP JUMPDEST PUSH1 0x0 PUSH2 0x4E6 PUSH1 0x2D DUP4 PUSH2 0x5F1 JUMP JUMPDEST SWAP2 POP PUSH2 0x4F1 DUP3 PUSH2 0x736 JUMP JUMPDEST PUSH1 0x40 DUP3 ADD SWAP1 POP SWAP2 SWAP1 POP JUMP JUMPDEST PUSH1 0x0 PUSH2 0x508 DUP3 DUP5 PUSH2 0x421 JUMP JUMPDEST SWAP2 POP DUP2 SWAP1 POP SWAP3 SWAP2 POP POP JUMP JUMPDEST PUSH1 0x0 PUSH1 0x20 DUP3 ADD SWAP1 POP PUSH2 0x528 PUSH1 0x0 DUP4 ADD DUP5 PUSH2 0x412 JUMP JUMPDEST SWAP3 SWAP2 POP POP JUMP JUMPDEST PUSH1 0x0 PUSH1 0x20 DUP3 ADD SWAP1 POP DUP2 DUP2 SUB PUSH1 0x0 DUP4 ADD MSTORE PUSH2 0x548 DUP2 DUP5 PUSH2 0x4A0 JUMP JUMPDEST SWAP1 POP SWAP3 SWAP2 POP POP JUMP JUMPDEST PUSH1 0x0 PUSH1 0x20 DUP3 ADD SWAP1 POP DUP2 DUP2 SUB PUSH1 0x0 DUP4 ADD MSTORE PUSH2 0x569 DUP2 PUSH2 0x4D9 JUMP JUMPDEST SWAP1 POP SWAP2 SWAP1 POP JUMP JUMPDEST PUSH1 0x0 PUSH2 0x57A PUSH2 0x58B JUMP JUMPDEST SWAP1 POP PUSH2 0x586 DUP3 DUP3 PUSH2 0x682 JUMP JUMPDEST SWAP2 SWAP1 POP JUMP JUMPDEST PUSH1 0x0 PUSH1 0x40 MLOAD SWAP1 POP SWAP1 JUMP JUMPDEST PUSH1 0x0 PUSH8 0xFFFFFFFFFFFFFFFF DUP3 GT ISZERO PUSH2 0x5B0 JUMPI PUSH2 0x5AF PUSH2 0x6E2 JUMP JUMPDEST JUMPDEST PUSH2 0x5B9 DUP3 PUSH2 0x725 JUMP JUMPDEST SWAP1 POP PUSH1 0x20 DUP2 ADD SWAP1 POP SWAP2 SWAP1 POP JUMP JUMPDEST PUSH1 0x0 DUP2 SWAP1 POP DUP2 PUSH1 0x0 MSTORE PUSH1 0x20 PUSH1 0x0 KECCAK256 SWAP1 POP SWAP2 SWAP1 POP JUMP JUMPDEST PUSH1 0x0 DUP2 MLOAD SWAP1 POP SWAP2 SWAP1 POP JUMP JUMPDEST PUSH1 0x0 DUP2 SWAP1 POP SWAP3 SWAP2 POP POP JUMP JUMPDEST PUSH1 0x0 DUP3 DUP3 MSTORE PUSH1 0x20 DUP3 ADD SWAP1 POP SWAP3 SWAP2 POP POP JUMP JUMPDEST PUSH1 0x0 DUP2 ISZERO ISZERO SWAP1 POP SWAP2 SWAP1 POP JUMP JUMPDEST DUP3 DUP2 DUP4 CALLDATACOPY PUSH1 0x0 DUP4 DUP4 ADD MSTORE POP POP POP JUMP JUMPDEST PUSH1 0x0 JUMPDEST DUP4 DUP2 LT ISZERO PUSH2 0x63B JUMPI DUP1 DUP3 ADD MLOAD DUP2 DUP5 ADD MSTORE PUSH1 0x20 DUP2 ADD SWAP1 POP PUSH2 0x620 JUMP JUMPDEST DUP4 DUP2 GT ISZERO PUSH2 0x64A JUMPI PUSH1 0x0 DUP5 DUP5 ADD MSTORE JUMPDEST POP POP POP POP JUMP JUMPDEST PUSH1 0x0 PUSH1 0x2 DUP3 DIV SWAP1 POP PUSH1 0x1 DUP3 AND DUP1 PUSH2 0x668 JUMPI PUSH1 0x7F DUP3 AND SWAP2 POP JUMPDEST PUSH1 0x20 DUP3 LT DUP2 EQ ISZERO PUSH2 0x67C JUMPI PUSH2 0x67B PUSH2 0x6B3 JUMP JUMPDEST JUMPDEST POP SWAP2 SWAP1 POP JUMP JUMPDEST PUSH2 0x68B DUP3 PUSH2 0x725 JUMP JUMPDEST DUP2 ADD DUP2 DUP2 LT PUSH8 0xFFFFFFFFFFFFFFFF DUP3 GT OR ISZERO PUSH2 0x6AA JUMPI PUSH2 0x6A9 PUSH2 0x6E2 JUMP JUMPDEST JUMPDEST DUP1 PUSH1 0x40 MSTORE POP POP POP JUMP JUMPDEST PUSH32 0x4E487B7100000000000000000000000000000000000000000000000000000000 PUSH1 0x0 MSTORE PUSH1 0x22 PUSH1 0x4 MSTORE PUSH1 0x24 PUSH1 0x0 REVERT JUMPDEST PUSH32 0x4E487B7100000000000000000000000000000000000000000000000000000000 PUSH1 0x0 MSTORE PUSH1 0x41 PUSH1 0x4 MSTORE PUSH1 0x24 PUSH1 0x0 REVERT JUMPDEST PUSH1 0x0 DUP1 REVERT JUMPDEST PUSH1 0x0 DUP1 REVERT JUMPDEST PUSH1 0x0 DUP1 REVERT JUMPDEST PUSH1 0x0 DUP1 REVERT JUMPDEST PUSH1 0x0 PUSH1 0x1F NOT PUSH1 0x1F DUP4 ADD AND SWAP1 POP SWAP2 SWAP1 POP JUMP JUMPDEST PUSH32 0x48656C6C6F576F726C643A205468652076616C7565206F662074657874206973 PUSH1 0x0 DUP3 ADD MSTORE PUSH32 0x20616C7265616479207075726500000000000000000000000000000000000000 PUSH1 0x20 DUP3 ADD MSTORE POP JUMP INVALID LOG2 PUSH5 0x6970667358 0x22 SLT KECCAK256 SWAP8 ADD 0xC PUSH1 0xA7 SWAP2 0xE2 OR PUSH28 0x1EF71DCAC25903D5363EE8089CE52F24041751039FDE1F64736F6C63 NUMBER STOP ADDMOD SMOD STOP CALLER "
				},
				"gasEstimates": {
					"creation": {
						"codeDepositCost": "395800",
						"executionCost": "infinite",
						"totalCost": "infinite"
					},
					"external": {
						"helloWorld()": "infinite",
						"isPure()": "infinite",
						"pureText()": "infinite",
						"restore()": "infinite",
						"setText(string)": "infinite"
					},
					"internal": {
						"_isPure()": "infinite",
						"_restore()": "infinite"
					}
				},
				"methodIdentifiers": {
					"helloWorld()": "c605f76c",
					"isPure()": "0953aec5",
					"pureText()": "1089bbc8",
					"restore()": "2fda332e",
					"setText(string)": "5d3a1f9d"
				}
			},
			"storageLayout": {
				"storage": [
					{
						"astId": 4,
						"contract": "HelloWorld.sol:HelloWorld",
						"label": "text",
						"offset": 0,
						"slot": "0",
						"type": "t_string_storage"
					}
				],
				"types": {
					"t_string_storage": {
						"encoding": "bytes",
						"label": "string",
						"numberOfBytes": "32"
					}
				}
			},
			"userdoc": {
				"kind": "user",
				"methods": {},
				"notice": "Hello World implementation example with solidity",
				"version": 1
			}
		}
	}
}