{
	"HelloWorld.sol": {
		"HelloWorld": {
			"abi": [
				{
					"inputs": [],
					"stateMutability": "nonpayable",
					"type": "constructor"
				},
				{
					"inputs": [],
					"name": "helloWorld",
					"outputs": [
						{
							"internalType": "string",
							"name": "",
							"type": "string"
						}
					],
					"stateMutability": "view",
					"type": "function"
				},
				{
					"inputs": [],
					"name": "sample",
					"outputs": [
						{
							"internalType": "address",
							"name": "",
							"type": "address"
						}
					],
					"stateMutability": "view",
					"type": "function"
				},
				{
					"inputs": [
						{
							"internalType": "string",
							"name": "newText",
							"type": "string"
						}
					],
					"name": "setText",
					"outputs": [],
					"stateMutability": "payable",
					"type": "function"
				}
			],
			"devdoc": {
				"details": "This is a contract for learning",
				"kind": "dev",
				"methods": {
					"helloWorld()": {
						"returns": {
							"_0": "Value of the string stored in the text variable "
						}
					},
					"setText(string)": {
						"params": {
							"newText": "Text string that is going to replace the text variable"
						}
					}
				},
				"title": "Hello World",
				"version": 1
			},
			"evm": {
				"assembly": "    /* \"HelloWorld.sol\":191:718  contract HelloWorld{... */\n  mstore(0x40, 0x80)\n    /* \"HelloWorld.sol\":256:307  constructor(){... */\n  callvalue\n  dup1\n  iszero\n  tag_1\n  jumpi\n  0x00\n  dup1\n  revert\ntag_1:\n  pop\n    /* \"HelloWorld.sol\":290:300  msg.sender */\n  caller\n    /* \"HelloWorld.sol\":279:287  deployer */\n  0x01\n  0x00\n    /* \"HelloWorld.sol\":279:300  deployer = msg.sender */\n  0x0100\n  exp\n  dup2\n  sload\n  dup2\n  0xffffffffffffffffffffffffffffffffffffffff\n  mul\n  not\n  and\n  swap1\n  dup4\n  0xffffffffffffffffffffffffffffffffffffffff\n  and\n  mul\n  or\n  swap1\n  sstore\n  pop\n    /* \"HelloWorld.sol\":191:718  contract HelloWorld{... */\n  dataSize(sub_0)\n  dup1\n  dataOffset(sub_0)\n  0x00\n  codecopy\n  0x00\n  return\nstop\n\nsub_0: assembly {\n        /* \"HelloWorld.sol\":191:718  contract HelloWorld{... */\n      mstore(0x40, 0x80)\n      jumpi(tag_1, lt(calldatasize, 0x04))\n      shr(0xe0, calldataload(0x00))\n      dup1\n      0x5d3a1f9d\n      eq\n      tag_2\n      jumpi\n      dup1\n      0xc605f76c\n      eq\n      tag_3\n      jumpi\n      dup1\n      0xc9482a5d\n      eq\n      tag_4\n      jumpi\n    tag_1:\n      0x00\n      dup1\n      revert\n        /* \"HelloWorld.sol\":545:630  function setText(string memory newText) public payable{... */\n    tag_2:\n      tag_5\n      0x04\n      dup1\n      calldatasize\n      sub\n      dup2\n      add\n      swap1\n      tag_6\n      swap2\n      swap1\n      tag_7\n      jump\t// in\n    tag_6:\n      tag_8\n      jump\t// in\n    tag_5:\n      stop\n        /* \"HelloWorld.sol\":378:461  function helloWorld() public view returns(string memory){... */\n    tag_3:\n      callvalue\n      dup1\n      iszero\n      tag_9\n      jumpi\n      0x00\n      dup1\n      revert\n    tag_9:\n      pop\n      tag_10\n      tag_11\n      jump\t// in\n    tag_10:\n      mload(0x40)\n      tag_12\n      swap2\n      swap1\n      tag_13\n      jump\t// in\n    tag_12:\n      mload(0x40)\n      dup1\n      swap2\n      sub\n      swap1\n      return\n        /* \"HelloWorld.sol\":636:715  function sample() public view returns (address){... */\n    tag_4:\n      callvalue\n      dup1\n      iszero\n      tag_14\n      jumpi\n      0x00\n      dup1\n      revert\n    tag_14:\n      pop\n      tag_15\n      tag_16\n      jump\t// in\n    tag_15:\n      mload(0x40)\n      tag_17\n      swap2\n      swap1\n      tag_18\n      jump\t// in\n    tag_17:\n      mload(0x40)\n      dup1\n      swap2\n      sub\n      swap1\n      return\n        /* \"HelloWorld.sol\":545:630  function setText(string memory newText) public payable{... */\n    tag_8:\n        /* \"HelloWorld.sol\":616:623  newText */\n      dup1\n        /* \"HelloWorld.sol\":609:613  text */\n      0x00\n        /* \"HelloWorld.sol\":609:623  text = newText */\n      swap1\n      dup1\n      mload\n      swap1\n      0x20\n      add\n      swap1\n      tag_20\n      swap3\n      swap2\n      swap1\n      tag_21\n      jump\t// in\n    tag_20:\n      pop\n        /* \"HelloWorld.sol\":545:630  function setText(string memory newText) public payable{... */\n      pop\n      jump\t// out\n        /* \"HelloWorld.sol\":378:461  function helloWorld() public view returns(string memory){... */\n    tag_11:\n        /* \"HelloWorld.sol\":420:433  string memory */\n      0x60\n        /* \"HelloWorld.sol\":450:454  text */\n      0x00\n        /* \"HelloWorld.sol\":443:454  return text */\n      dup1\n      sload\n      tag_23\n      swap1\n      tag_24\n      jump\t// in\n    tag_23:\n      dup1\n      0x1f\n      add\n      0x20\n      dup1\n      swap2\n      div\n      mul\n      0x20\n      add\n      mload(0x40)\n      swap1\n      dup2\n      add\n      0x40\n      mstore\n      dup1\n      swap3\n      swap2\n      swap1\n      dup2\n      dup2\n      mstore\n      0x20\n      add\n      dup3\n      dup1\n      sload\n      tag_25\n      swap1\n      tag_24\n      jump\t// in\n    tag_25:\n      dup1\n      iszero\n      tag_26\n      jumpi\n      dup1\n      0x1f\n      lt\n      tag_27\n      jumpi\n      0x0100\n      dup1\n      dup4\n      sload\n      div\n      mul\n      dup4\n      mstore\n      swap2\n      0x20\n      add\n      swap2\n      jump(tag_26)\n    tag_27:\n      dup3\n      add\n      swap2\n      swap1\n      0x00\n      mstore\n      keccak256(0x00, 0x20)\n      swap1\n    tag_28:\n      dup2\n      sload\n      dup2\n      mstore\n      swap1\n      0x01\n      add\n      swap1\n      0x20\n      add\n      dup1\n      dup4\n      gt\n      tag_28\n      jumpi\n      dup3\n      swap1\n      sub\n      0x1f\n      and\n      dup3\n      add\n      swap2\n    tag_26:\n      pop\n      pop\n      pop\n      pop\n      pop\n      swap1\n      pop\n        /* \"HelloWorld.sol\":378:461  function helloWorld() public view returns(string memory){... */\n      swap1\n      jump\t// out\n        /* \"HelloWorld.sol\":636:715  function sample() public view returns (address){... */\n    tag_16:\n        /* \"HelloWorld.sol\":675:682  address */\n      0x00\n        /* \"HelloWorld.sol\":700:708  deployer */\n      0x01\n      0x00\n      swap1\n      sload\n      swap1\n      0x0100\n      exp\n      swap1\n      div\n      0xffffffffffffffffffffffffffffffffffffffff\n      and\n        /* \"HelloWorld.sol\":693:708  return deployer */\n      swap1\n      pop\n        /* \"HelloWorld.sol\":636:715  function sample() public view returns (address){... */\n      swap1\n      jump\t// out\n    tag_21:\n      dup3\n      dup1\n      sload\n      tag_30\n      swap1\n      tag_24\n      jump\t// in\n    tag_30:\n      swap1\n      0x00\n      mstore\n      keccak256(0x00, 0x20)\n      swap1\n      0x1f\n      add\n      0x20\n      swap1\n      div\n      dup2\n      add\n      swap3\n      dup3\n      tag_32\n      jumpi\n      0x00\n      dup6\n      sstore\n      jump(tag_31)\n    tag_32:\n      dup3\n      0x1f\n      lt\n      tag_33\n      jumpi\n      dup1\n      mload\n      not(0xff)\n      and\n      dup4\n      dup1\n      add\n      or\n      dup6\n      sstore\n      jump(tag_31)\n    tag_33:\n      dup3\n      dup1\n      add\n      0x01\n      add\n      dup6\n      sstore\n      dup3\n      iszero\n      tag_31\n      jumpi\n      swap2\n      dup3\n      add\n    tag_34:\n      dup3\n      dup2\n      gt\n      iszero\n      tag_35\n      jumpi\n      dup3\n      mload\n      dup3\n      sstore\n      swap2\n      0x20\n      add\n      swap2\n      swap1\n      0x01\n      add\n      swap1\n      jump(tag_34)\n    tag_35:\n    tag_31:\n      pop\n      swap1\n      pop\n      tag_36\n      swap2\n      swap1\n      tag_37\n      jump\t// in\n    tag_36:\n      pop\n      swap1\n      jump\t// out\n    tag_37:\n    tag_38:\n      dup1\n      dup3\n      gt\n      iszero\n      tag_39\n      jumpi\n      0x00\n      dup2\n      0x00\n      swap1\n      sstore\n      pop\n      0x01\n      add\n      jump(tag_38)\n    tag_39:\n      pop\n      swap1\n      jump\t// out\n        /* \"#utility.yul\":7:419   */\n    tag_41:\n        /* \"#utility.yul\":85:90   */\n      0x00\n        /* \"#utility.yul\":110:176   */\n      tag_43\n        /* \"#utility.yul\":126:175   */\n      tag_44\n        /* \"#utility.yul\":168:174   */\n      dup5\n        /* \"#utility.yul\":126:175   */\n      tag_45\n      jump\t// in\n    tag_44:\n        /* \"#utility.yul\":110:176   */\n      tag_46\n      jump\t// in\n    tag_43:\n        /* \"#utility.yul\":101:176   */\n      swap1\n      pop\n        /* \"#utility.yul\":199:205   */\n      dup3\n        /* \"#utility.yul\":192:197   */\n      dup2\n        /* \"#utility.yul\":185:206   */\n      mstore\n        /* \"#utility.yul\":237:241   */\n      0x20\n        /* \"#utility.yul\":230:235   */\n      dup2\n        /* \"#utility.yul\":226:242   */\n      add\n        /* \"#utility.yul\":275:278   */\n      dup5\n        /* \"#utility.yul\":266:272   */\n      dup5\n        /* \"#utility.yul\":261:264   */\n      dup5\n        /* \"#utility.yul\":257:273   */\n      add\n        /* \"#utility.yul\":254:279   */\n      gt\n        /* \"#utility.yul\":251:363   */\n      iszero\n      tag_47\n      jumpi\n        /* \"#utility.yul\":282:361   */\n      tag_48\n      tag_49\n      jump\t// in\n    tag_48:\n        /* \"#utility.yul\":251:363   */\n    tag_47:\n        /* \"#utility.yul\":372:413   */\n      tag_50\n        /* \"#utility.yul\":406:412   */\n      dup5\n        /* \"#utility.yul\":401:404   */\n      dup3\n        /* \"#utility.yul\":396:399   */\n      dup6\n        /* \"#utility.yul\":372:413   */\n      tag_51\n      jump\t// in\n    tag_50:\n        /* \"#utility.yul\":91:419   */\n      pop\n        /* \"#utility.yul\":7:419   */\n      swap4\n      swap3\n      pop\n      pop\n      pop\n      jump\t// out\n        /* \"#utility.yul\":439:779   */\n    tag_52:\n        /* \"#utility.yul\":495:500   */\n      0x00\n        /* \"#utility.yul\":544:547   */\n      dup3\n        /* \"#utility.yul\":537:541   */\n      0x1f\n        /* \"#utility.yul\":529:535   */\n      dup4\n        /* \"#utility.yul\":525:542   */\n      add\n        /* \"#utility.yul\":521:548   */\n      slt\n        /* \"#utility.yul\":511:633   */\n      tag_54\n      jumpi\n        /* \"#utility.yul\":552:631   */\n      tag_55\n      tag_56\n      jump\t// in\n    tag_55:\n        /* \"#utility.yul\":511:633   */\n    tag_54:\n        /* \"#utility.yul\":669:675   */\n      dup2\n        /* \"#utility.yul\":656:676   */\n      calldataload\n        /* \"#utility.yul\":694:773   */\n      tag_57\n        /* \"#utility.yul\":769:772   */\n      dup5\n        /* \"#utility.yul\":761:767   */\n      dup3\n        /* \"#utility.yul\":754:758   */\n      0x20\n        /* \"#utility.yul\":746:752   */\n      dup7\n        /* \"#utility.yul\":742:759   */\n      add\n        /* \"#utility.yul\":694:773   */\n      tag_41\n      jump\t// in\n    tag_57:\n        /* \"#utility.yul\":685:773   */\n      swap2\n      pop\n        /* \"#utility.yul\":501:779   */\n      pop\n        /* \"#utility.yul\":439:779   */\n      swap3\n      swap2\n      pop\n      pop\n      jump\t// out\n        /* \"#utility.yul\":785:1294   */\n    tag_7:\n        /* \"#utility.yul\":854:860   */\n      0x00\n        /* \"#utility.yul\":903:905   */\n      0x20\n        /* \"#utility.yul\":891:900   */\n      dup3\n        /* \"#utility.yul\":882:889   */\n      dup5\n        /* \"#utility.yul\":878:901   */\n      sub\n        /* \"#utility.yul\":874:906   */\n      slt\n        /* \"#utility.yul\":871:990   */\n      iszero\n      tag_59\n      jumpi\n        /* \"#utility.yul\":909:988   */\n      tag_60\n      tag_61\n      jump\t// in\n    tag_60:\n        /* \"#utility.yul\":871:990   */\n    tag_59:\n        /* \"#utility.yul\":1057:1058   */\n      0x00\n        /* \"#utility.yul\":1046:1055   */\n      dup3\n        /* \"#utility.yul\":1042:1059   */\n      add\n        /* \"#utility.yul\":1029:1060   */\n      calldataload\n        /* \"#utility.yul\":1087:1105   */\n      0xffffffffffffffff\n        /* \"#utility.yul\":1079:1085   */\n      dup2\n        /* \"#utility.yul\":1076:1106   */\n      gt\n        /* \"#utility.yul\":1073:1190   */\n      iszero\n      tag_62\n      jumpi\n        /* \"#utility.yul\":1109:1188   */\n      tag_63\n      tag_64\n      jump\t// in\n    tag_63:\n        /* \"#utility.yul\":1073:1190   */\n    tag_62:\n        /* \"#utility.yul\":1214:1277   */\n      tag_65\n        /* \"#utility.yul\":1269:1276   */\n      dup5\n        /* \"#utility.yul\":1260:1266   */\n      dup3\n        /* \"#utility.yul\":1249:1258   */\n      dup6\n        /* \"#utility.yul\":1245:1267   */\n      add\n        /* \"#utility.yul\":1214:1277   */\n      tag_52\n      jump\t// in\n    tag_65:\n        /* \"#utility.yul\":1204:1277   */\n      swap2\n      pop\n        /* \"#utility.yul\":1000:1287   */\n      pop\n        /* \"#utility.yul\":785:1294   */\n      swap3\n      swap2\n      pop\n      pop\n      jump\t// out\n        /* \"#utility.yul\":1300:1418   */\n    tag_66:\n        /* \"#utility.yul\":1387:1411   */\n      tag_68\n        /* \"#utility.yul\":1405:1410   */\n      dup2\n        /* \"#utility.yul\":1387:1411   */\n      tag_69\n      jump\t// in\n    tag_68:\n        /* \"#utility.yul\":1382:1385   */\n      dup3\n        /* \"#utility.yul\":1375:1412   */\n      mstore\n        /* \"#utility.yul\":1300:1418   */\n      pop\n      pop\n      jump\t// out\n        /* \"#utility.yul\":1424:1788   */\n    tag_70:\n        /* \"#utility.yul\":1512:1515   */\n      0x00\n        /* \"#utility.yul\":1540:1579   */\n      tag_72\n        /* \"#utility.yul\":1573:1578   */\n      dup3\n        /* \"#utility.yul\":1540:1579   */\n      tag_73\n      jump\t// in\n    tag_72:\n        /* \"#utility.yul\":1595:1666   */\n      tag_74\n        /* \"#utility.yul\":1659:1665   */\n      dup2\n        /* \"#utility.yul\":1654:1657   */\n      dup6\n        /* \"#utility.yul\":1595:1666   */\n      tag_75\n      jump\t// in\n    tag_74:\n        /* \"#utility.yul\":1588:1666   */\n      swap4\n      pop\n        /* \"#utility.yul\":1675:1727   */\n      tag_76\n        /* \"#utility.yul\":1720:1726   */\n      dup2\n        /* \"#utility.yul\":1715:1718   */\n      dup6\n        /* \"#utility.yul\":1708:1712   */\n      0x20\n        /* \"#utility.yul\":1701:1706   */\n      dup7\n        /* \"#utility.yul\":1697:1713   */\n      add\n        /* \"#utility.yul\":1675:1727   */\n      tag_77\n      jump\t// in\n    tag_76:\n        /* \"#utility.yul\":1752:1781   */\n      tag_78\n        /* \"#utility.yul\":1774:1780   */\n      dup2\n        /* \"#utility.yul\":1752:1781   */\n      tag_79\n      jump\t// in\n    tag_78:\n        /* \"#utility.yul\":1747:1750   */\n      dup5\n        /* \"#utility.yul\":1743:1782   */\n      add\n        /* \"#utility.yul\":1736:1782   */\n      swap2\n      pop\n        /* \"#utility.yul\":1516:1788   */\n      pop\n        /* \"#utility.yul\":1424:1788   */\n      swap3\n      swap2\n      pop\n      pop\n      jump\t// out\n        /* \"#utility.yul\":1794:2016   */\n    tag_18:\n        /* \"#utility.yul\":1887:1891   */\n      0x00\n        /* \"#utility.yul\":1925:1927   */\n      0x20\n        /* \"#utility.yul\":1914:1923   */\n      dup3\n        /* \"#utility.yul\":1910:1928   */\n      add\n        /* \"#utility.yul\":1902:1928   */\n      swap1\n      pop\n        /* \"#utility.yul\":1938:2009   */\n      tag_81\n        /* \"#utility.yul\":2006:2007   */\n      0x00\n        /* \"#utility.yul\":1995:2004   */\n      dup4\n        /* \"#utility.yul\":1991:2008   */\n      add\n        /* \"#utility.yul\":1982:1988   */\n      dup5\n        /* \"#utility.yul\":1938:2009   */\n      tag_66\n      jump\t// in\n    tag_81:\n        /* \"#utility.yul\":1794:2016   */\n      swap3\n      swap2\n      pop\n      pop\n      jump\t// out\n        /* \"#utility.yul\":2022:2335   */\n    tag_13:\n        /* \"#utility.yul\":2135:2139   */\n      0x00\n        /* \"#utility.yul\":2173:2175   */\n      0x20\n        /* \"#utility.yul\":2162:2171   */\n      dup3\n        /* \"#utility.yul\":2158:2176   */\n      add\n        /* \"#utility.yul\":2150:2176   */\n      swap1\n      pop\n        /* \"#utility.yul\":2222:2231   */\n      dup2\n        /* \"#utility.yul\":2216:2220   */\n      dup2\n        /* \"#utility.yul\":2212:2232   */\n      sub\n        /* \"#utility.yul\":2208:2209   */\n      0x00\n        /* \"#utility.yul\":2197:2206   */\n      dup4\n        /* \"#utility.yul\":2193:2210   */\n      add\n        /* \"#utility.yul\":2186:2233   */\n      mstore\n        /* \"#utility.yul\":2250:2328   */\n      tag_83\n        /* \"#utility.yul\":2323:2327   */\n      dup2\n        /* \"#utility.yul\":2314:2320   */\n      dup5\n        /* \"#utility.yul\":2250:2328   */\n      tag_70\n      jump\t// in\n    tag_83:\n        /* \"#utility.yul\":2242:2328   */\n      swap1\n      pop\n        /* \"#utility.yul\":2022:2335   */\n      swap3\n      swap2\n      pop\n      pop\n      jump\t// out\n        /* \"#utility.yul\":2341:2470   */\n    tag_46:\n        /* \"#utility.yul\":2375:2381   */\n      0x00\n        /* \"#utility.yul\":2402:2422   */\n      tag_85\n      tag_86\n      jump\t// in\n    tag_85:\n        /* \"#utility.yul\":2392:2422   */\n      swap1\n      pop\n        /* \"#utility.yul\":2431:2464   */\n      tag_87\n        /* \"#utility.yul\":2459:2463   */\n      dup3\n        /* \"#utility.yul\":2451:2457   */\n      dup3\n        /* \"#utility.yul\":2431:2464   */\n      tag_88\n      jump\t// in\n    tag_87:\n        /* \"#utility.yul\":2341:2470   */\n      swap2\n      swap1\n      pop\n      jump\t// out\n        /* \"#utility.yul\":2476:2551   */\n    tag_86:\n        /* \"#utility.yul\":2509:2515   */\n      0x00\n        /* \"#utility.yul\":2542:2544   */\n      0x40\n        /* \"#utility.yul\":2536:2545   */\n      mload\n        /* \"#utility.yul\":2526:2545   */\n      swap1\n      pop\n        /* \"#utility.yul\":2476:2551   */\n      swap1\n      jump\t// out\n        /* \"#utility.yul\":2557:2865   */\n    tag_45:\n        /* \"#utility.yul\":2619:2623   */\n      0x00\n        /* \"#utility.yul\":2709:2727   */\n      0xffffffffffffffff\n        /* \"#utility.yul\":2701:2707   */\n      dup3\n        /* \"#utility.yul\":2698:2728   */\n      gt\n        /* \"#utility.yul\":2695:2751   */\n      iszero\n      tag_91\n      jumpi\n        /* \"#utility.yul\":2731:2749   */\n      tag_92\n      tag_93\n      jump\t// in\n    tag_92:\n        /* \"#utility.yul\":2695:2751   */\n    tag_91:\n        /* \"#utility.yul\":2769:2798   */\n      tag_94\n        /* \"#utility.yul\":2791:2797   */\n      dup3\n        /* \"#utility.yul\":2769:2798   */\n      tag_79\n      jump\t// in\n    tag_94:\n        /* \"#utility.yul\":2761:2798   */\n      swap1\n      pop\n        /* \"#utility.yul\":2853:2857   */\n      0x20\n        /* \"#utility.yul\":2847:2851   */\n      dup2\n        /* \"#utility.yul\":2843:2858   */\n      add\n        /* \"#utility.yul\":2835:2858   */\n      swap1\n      pop\n        /* \"#utility.yul\":2557:2865   */\n      swap2\n      swap1\n      pop\n      jump\t// out\n        /* \"#utility.yul\":2871:2970   */\n    tag_73:\n        /* \"#utility.yul\":2923:2929   */\n      0x00\n        /* \"#utility.yul\":2957:2962   */\n      dup2\n        /* \"#utility.yul\":2951:2963   */\n      mload\n        /* \"#utility.yul\":2941:2963   */\n      swap1\n      pop\n        /* \"#utility.yul\":2871:2970   */\n      swap2\n      swap1\n      pop\n      jump\t// out\n        /* \"#utility.yul\":2976:3145   */\n    tag_75:\n        /* \"#utility.yul\":3060:3071   */\n      0x00\n        /* \"#utility.yul\":3094:3100   */\n      dup3\n        /* \"#utility.yul\":3089:3092   */\n      dup3\n        /* \"#utility.yul\":3082:3101   */\n      mstore\n        /* \"#utility.yul\":3134:3138   */\n      0x20\n        /* \"#utility.yul\":3129:3132   */\n      dup3\n        /* \"#utility.yul\":3125:3139   */\n      add\n        /* \"#utility.yul\":3110:3139   */\n      swap1\n      pop\n        /* \"#utility.yul\":2976:3145   */\n      swap3\n      swap2\n      pop\n      pop\n      jump\t// out\n        /* \"#utility.yul\":3151:3247   */\n    tag_69:\n        /* \"#utility.yul\":3188:3195   */\n      0x00\n        /* \"#utility.yul\":3217:3241   */\n      tag_98\n        /* \"#utility.yul\":3235:3240   */\n      dup3\n        /* \"#utility.yul\":3217:3241   */\n      tag_99\n      jump\t// in\n    tag_98:\n        /* \"#utility.yul\":3206:3241   */\n      swap1\n      pop\n        /* \"#utility.yul\":3151:3247   */\n      swap2\n      swap1\n      pop\n      jump\t// out\n        /* \"#utility.yul\":3253:3379   */\n    tag_99:\n        /* \"#utility.yul\":3290:3297   */\n      0x00\n        /* \"#utility.yul\":3330:3372   */\n      0xffffffffffffffffffffffffffffffffffffffff\n        /* \"#utility.yul\":3323:3328   */\n      dup3\n        /* \"#utility.yul\":3319:3373   */\n      and\n        /* \"#utility.yul\":3308:3373   */\n      swap1\n      pop\n        /* \"#utility.yul\":3253:3379   */\n      swap2\n      swap1\n      pop\n      jump\t// out\n        /* \"#utility.yul\":3385:3539   */\n    tag_51:\n        /* \"#utility.yul\":3469:3475   */\n      dup3\n        /* \"#utility.yul\":3464:3467   */\n      dup2\n        /* \"#utility.yul\":3459:3462   */\n      dup4\n        /* \"#utility.yul\":3446:3476   */\n      calldatacopy\n        /* \"#utility.yul\":3531:3532   */\n      0x00\n        /* \"#utility.yul\":3522:3528   */\n      dup4\n        /* \"#utility.yul\":3517:3520   */\n      dup4\n        /* \"#utility.yul\":3513:3529   */\n      add\n        /* \"#utility.yul\":3506:3533   */\n      mstore\n        /* \"#utility.yul\":3385:3539   */\n      pop\n      pop\n      pop\n      jump\t// out\n        /* \"#utility.yul\":3545:3852   */\n    tag_77:\n        /* \"#utility.yul\":3613:3614   */\n      0x00\n        /* \"#utility.yul\":3623:3736   */\n    tag_103:\n        /* \"#utility.yul\":3637:3643   */\n      dup4\n        /* \"#utility.yul\":3634:3635   */\n      dup2\n        /* \"#utility.yul\":3631:3644   */\n      lt\n        /* \"#utility.yul\":3623:3736   */\n      iszero\n      tag_105\n      jumpi\n        /* \"#utility.yul\":3722:3723   */\n      dup1\n        /* \"#utility.yul\":3717:3720   */\n      dup3\n        /* \"#utility.yul\":3713:3724   */\n      add\n        /* \"#utility.yul\":3707:3725   */\n      mload\n        /* \"#utility.yul\":3703:3704   */\n      dup2\n        /* \"#utility.yul\":3698:3701   */\n      dup5\n        /* \"#utility.yul\":3694:3705   */\n      add\n        /* \"#utility.yul\":3687:3726   */\n      mstore\n        /* \"#utility.yul\":3659:3661   */\n      0x20\n        /* \"#utility.yul\":3656:3657   */\n      dup2\n        /* \"#utility.yul\":3652:3662   */\n      add\n        /* \"#utility.yul\":3647:3662   */\n      swap1\n      pop\n        /* \"#utility.yul\":3623:3736   */\n      jump(tag_103)\n    tag_105:\n        /* \"#utility.yul\":3754:3760   */\n      dup4\n        /* \"#utility.yul\":3751:3752   */\n      dup2\n        /* \"#utility.yul\":3748:3761   */\n      gt\n        /* \"#utility.yul\":3745:3846   */\n      iszero\n      tag_106\n      jumpi\n        /* \"#utility.yul\":3834:3835   */\n      0x00\n        /* \"#utility.yul\":3825:3831   */\n      dup5\n        /* \"#utility.yul\":3820:3823   */\n      dup5\n        /* \"#utility.yul\":3816:3832   */\n      add\n        /* \"#utility.yul\":3809:3836   */\n      mstore\n        /* \"#utility.yul\":3745:3846   */\n    tag_106:\n        /* \"#utility.yul\":3594:3852   */\n      pop\n        /* \"#utility.yul\":3545:3852   */\n      pop\n      pop\n      pop\n      jump\t// out\n        /* \"#utility.yul\":3858:4178   */\n    tag_24:\n        /* \"#utility.yul\":3902:3908   */\n      0x00\n        /* \"#utility.yul\":3939:3940   */\n      0x02\n        /* \"#utility.yul\":3933:3937   */\n      dup3\n        /* \"#utility.yul\":3929:3941   */\n      div\n        /* \"#utility.yul\":3919:3941   */\n      swap1\n      pop\n        /* \"#utility.yul\":3986:3987   */\n      0x01\n        /* \"#utility.yul\":3980:3984   */\n      dup3\n        /* \"#utility.yul\":3976:3988   */\n      and\n        /* \"#utility.yul\":4007:4025   */\n      dup1\n        /* \"#utility.yul\":3997:4078   */\n      tag_108\n      jumpi\n        /* \"#utility.yul\":4063:4067   */\n      0x7f\n        /* \"#utility.yul\":4055:4061   */\n      dup3\n        /* \"#utility.yul\":4051:4068   */\n      and\n        /* \"#utility.yul\":4041:4068   */\n      swap2\n      pop\n        /* \"#utility.yul\":3997:4078   */\n    tag_108:\n        /* \"#utility.yul\":4125:4127   */\n      0x20\n        /* \"#utility.yul\":4117:4123   */\n      dup3\n        /* \"#utility.yul\":4114:4128   */\n      lt\n        /* \"#utility.yul\":4094:4112   */\n      dup2\n        /* \"#utility.yul\":4091:4129   */\n      eq\n        /* \"#utility.yul\":4088:4172   */\n      iszero\n      tag_109\n      jumpi\n        /* \"#utility.yul\":4144:4162   */\n      tag_110\n      tag_111\n      jump\t// in\n    tag_110:\n        /* \"#utility.yul\":4088:4172   */\n    tag_109:\n        /* \"#utility.yul\":3909:4178   */\n      pop\n        /* \"#utility.yul\":3858:4178   */\n      swap2\n      swap1\n      pop\n      jump\t// out\n        /* \"#utility.yul\":4184:4465   */\n    tag_88:\n        /* \"#utility.yul\":4267:4294   */\n      tag_113\n        /* \"#utility.yul\":4289:4293   */\n      dup3\n        /* \"#utility.yul\":4267:4294   */\n      tag_79\n      jump\t// in\n    tag_113:\n        /* \"#utility.yul\":4259:4265   */\n      dup2\n        /* \"#utility.yul\":4255:4295   */\n      add\n        /* \"#utility.yul\":4397:4403   */\n      dup2\n        /* \"#utility.yul\":4385:4395   */\n      dup2\n        /* \"#utility.yul\":4382:4404   */\n      lt\n        /* \"#utility.yul\":4361:4379   */\n      0xffffffffffffffff\n        /* \"#utility.yul\":4349:4359   */\n      dup3\n        /* \"#utility.yul\":4346:4380   */\n      gt\n        /* \"#utility.yul\":4343:4405   */\n      or\n        /* \"#utility.yul\":4340:4428   */\n      iszero\n      tag_114\n      jumpi\n        /* \"#utility.yul\":4408:4426   */\n      tag_115\n      tag_93\n      jump\t// in\n    tag_115:\n        /* \"#utility.yul\":4340:4428   */\n    tag_114:\n        /* \"#utility.yul\":4448:4458   */\n      dup1\n        /* \"#utility.yul\":4444:4446   */\n      0x40\n        /* \"#utility.yul\":4437:4459   */\n      mstore\n        /* \"#utility.yul\":4227:4465   */\n      pop\n        /* \"#utility.yul\":4184:4465   */\n      pop\n      pop\n      jump\t// out\n        /* \"#utility.yul\":4471:4651   */\n    tag_111:\n        /* \"#utility.yul\":4519:4596   */\n      0x4e487b7100000000000000000000000000000000000000000000000000000000\n        /* \"#utility.yul\":4516:4517   */\n      0x00\n        /* \"#utility.yul\":4509:4597   */\n      mstore\n        /* \"#utility.yul\":4616:4620   */\n      0x22\n        /* \"#utility.yul\":4613:4614   */\n      0x04\n        /* \"#utility.yul\":4606:4621   */\n      mstore\n        /* \"#utility.yul\":4640:4644   */\n      0x24\n        /* \"#utility.yul\":4637:4638   */\n      0x00\n        /* \"#utility.yul\":4630:4645   */\n      revert\n        /* \"#utility.yul\":4657:4837   */\n    tag_93:\n        /* \"#utility.yul\":4705:4782   */\n      0x4e487b7100000000000000000000000000000000000000000000000000000000\n        /* \"#utility.yul\":4702:4703   */\n      0x00\n        /* \"#utility.yul\":4695:4783   */\n      mstore\n        /* \"#utility.yul\":4802:4806   */\n      0x41\n        /* \"#utility.yul\":4799:4800   */\n      0x04\n        /* \"#utility.yul\":4792:4807   */\n      mstore\n        /* \"#utility.yul\":4826:4830   */\n      0x24\n        /* \"#utility.yul\":4823:4824   */\n      0x00\n        /* \"#utility.yul\":4816:4831   */\n      revert\n        /* \"#utility.yul\":4843:4960   */\n    tag_56:\n        /* \"#utility.yul\":4952:4953   */\n      0x00\n        /* \"#utility.yul\":4949:4950   */\n      dup1\n        /* \"#utility.yul\":4942:4954   */\n      revert\n        /* \"#utility.yul\":4966:5083   */\n    tag_49:\n        /* \"#utility.yul\":5075:5076   */\n      0x00\n        /* \"#utility.yul\":5072:5073   */\n      dup1\n        /* \"#utility.yul\":5065:5077   */\n      revert\n        /* \"#utility.yul\":5089:5206   */\n    tag_64:\n        /* \"#utility.yul\":5198:5199   */\n      0x00\n        /* \"#utility.yul\":5195:5196   */\n      dup1\n        /* \"#utility.yul\":5188:5200   */\n      revert\n        /* \"#utility.yul\":5212:5329   */\n    tag_61:\n        /* \"#utility.yul\":5321:5322   */\n      0x00\n        /* \"#utility.yul\":5318:5319   */\n      dup1\n        /* \"#utility.yul\":5311:5323   */\n      revert\n        /* \"#utility.yul\":5335:5437   */\n    tag_79:\n        /* \"#utility.yul\":5376:5382   */\n      0x00\n        /* \"#utility.yul\":5427:5429   */\n      0x1f\n        /* \"#utility.yul\":5423:5430   */\n      not\n        /* \"#utility.yul\":5418:5420   */\n      0x1f\n        /* \"#utility.yul\":5411:5416   */\n      dup4\n        /* \"#utility.yul\":5407:5421   */\n      add\n        /* \"#utility.yul\":5403:5431   */\n      and\n        /* \"#utility.yul\":5393:5431   */\n      swap1\n      pop\n        /* \"#utility.yul\":5335:5437   */\n      swap2\n      swap1\n      pop\n      jump\t// out\n\n    auxdata: 0xa26469706673582212201ee05f7c73c007a6d2fd481baaadeab8030c66dc9213b1c969f9e8b2e0595f3b64736f6c63430008070033\n}\n",
				"bytecode": {
					"linkReferences": {},
					"object": "608060405234801561001057600080fd5b5033600160006101000a81548173ffffffffffffffffffffffffffffffffffffffff021916908373ffffffffffffffffffffffffffffffffffffffff160217905550610564806100616000396000f3fe6080604052600436106100345760003560e01c80635d3a1f9d14610039578063c605f76c14610055578063c9482a5d14610080575b600080fd5b610053600480360381019061004e9190610294565b6100ab565b005b34801561006157600080fd5b5061006a6100c5565b6040516100779190610340565b60405180910390f35b34801561008c57600080fd5b50610095610157565b6040516100a29190610325565b60405180910390f35b80600090805190602001906100c1929190610181565b5050565b6060600080546100d490610448565b80601f016020809104026020016040519081016040528092919081815260200182805461010090610448565b801561014d5780601f106101225761010080835404028352916020019161014d565b820191906000526020600020905b81548152906001019060200180831161013057829003601f168201915b5050505050905090565b6000600160009054906101000a900473ffffffffffffffffffffffffffffffffffffffff16905090565b82805461018d90610448565b90600052602060002090601f0160209004810192826101af57600085556101f6565b82601f106101c857805160ff19168380011785556101f6565b828001600101855582156101f6579182015b828111156101f55782518255916020019190600101906101da565b5b5090506102039190610207565b5090565b5b80821115610220576000816000905550600101610208565b5090565b600061023761023284610387565b610362565b9050828152602081018484840111156102535761025261050e565b5b61025e848285610406565b509392505050565b600082601f83011261027b5761027a610509565b5b813561028b848260208601610224565b91505092915050565b6000602082840312156102aa576102a9610518565b5b600082013567ffffffffffffffff8111156102c8576102c7610513565b5b6102d484828501610266565b91505092915050565b6102e6816103d4565b82525050565b60006102f7826103b8565b61030181856103c3565b9350610311818560208601610415565b61031a8161051d565b840191505092915050565b600060208201905061033a60008301846102dd565b92915050565b6000602082019050818103600083015261035a81846102ec565b905092915050565b600061036c61037d565b9050610378828261047a565b919050565b6000604051905090565b600067ffffffffffffffff8211156103a2576103a16104da565b5b6103ab8261051d565b9050602081019050919050565b600081519050919050565b600082825260208201905092915050565b60006103df826103e6565b9050919050565b600073ffffffffffffffffffffffffffffffffffffffff82169050919050565b82818337600083830152505050565b60005b83811015610433578082015181840152602081019050610418565b83811115610442576000848401525b50505050565b6000600282049050600182168061046057607f821691505b60208210811415610474576104736104ab565b5b50919050565b6104838261051d565b810181811067ffffffffffffffff821117156104a2576104a16104da565b5b80604052505050565b7f4e487b7100000000000000000000000000000000000000000000000000000000600052602260045260246000fd5b7f4e487b7100000000000000000000000000000000000000000000000000000000600052604160045260246000fd5b600080fd5b600080fd5b600080fd5b600080fd5b6000601f19601f830116905091905056fea26469706673582212201ee05f7c73c007a6d2fd481baaadeab8030c66dc9213b1c969f9e8b2e0595f3b64736f6c63430008070033",
					"opcodes": "PUSH1 0x80 PUSH1 0x40 MSTORE CALLVALUE DUP1 ISZERO PUSH2 0x10 JUMPI PUSH1 0x0 DUP1 REVERT JUMPDEST POP CALLER PUSH1 0x1 PUSH1 0x0 PUSH2 0x100 EXP DUP2 SLOAD DUP2 PUSH20 0xFFFFFFFFFFFFFFFFFFFFFFFFFFFFFFFFFFFFFFFF MUL NOT AND SWAP1 DUP4 PUSH20 0xFFFFFFFFFFFFFFFFFFFFFFFFFFFFFFFFFFFFFFFF AND MUL OR SWAP1 SSTORE POP PUSH2 0x564 DUP1 PUSH2 0x61 PUSH1 0x0 CODECOPY PUSH1 0x0 RETURN INVALID PUSH1 0x80 PUSH1 0x40 MSTORE PUSH1 0x4 CALLDATASIZE LT PUSH2 0x34 JUMPI PUSH1 0x0 CALLDATALOAD PUSH1 0xE0 SHR DUP1 PUSH4 0x5D3A1F9D EQ PUSH2 0x39 JUMPI DUP1 PUSH4 0xC605F76C EQ PUSH2 0x55 JUMPI DUP1 PUSH4 0xC9482A5D EQ PUSH2 0x80 JUMPI JUMPDEST PUSH1 0x0 DUP1 REVERT JUMPDEST PUSH2 0x53 PUSH1 0x4 DUP1 CALLDATASIZE SUB DUP2 ADD SWAP1 PUSH2 0x4E SWAP2 SWAP1 PUSH2 0x294 JUMP JUMPDEST PUSH2 0xAB JUMP JUMPDEST STOP JUMPDEST CALLVALUE DUP1 ISZERO PUSH2 0x61 JUMPI PUSH1 0x0 DUP1 REVERT JUMPDEST POP PUSH2 0x6A PUSH2 0xC5 JUMP JUMPDEST PUSH1 0x40 MLOAD PUSH2 0x77 SWAP2 SWAP1 PUSH2 0x340 JUMP JUMPDEST PUSH1 0x40 MLOAD DUP1 SWAP2 SUB SWAP1 RETURN JUMPDEST CALLVALUE DUP1 ISZERO PUSH2 0x8C JUMPI PUSH1 0x0 DUP1 REVERT JUMPDEST POP PUSH2 0x95 PUSH2 0x157 JUMP JUMPDEST PUSH1 0x40 MLOAD PUSH2 0xA2 SWAP2 SWAP1 PUSH2 0x325 JUMP JUMPDEST PUSH1 0x40 MLOAD DUP1 SWAP2 SUB SWAP1 RETURN JUMPDEST DUP1 PUSH1 0x0 SWAP1 DUP1 MLOAD SWAP1 PUSH1 0x20 ADD SWAP1 PUSH2 0xC1 SWAP3 SWAP2 SWAP1 PUSH2 0x181 JUMP JUMPDEST POP POP JUMP JUMPDEST PUSH1 0x60 PUSH1 0x0 DUP1 SLOAD PUSH2 0xD4 SWAP1 PUSH2 0x448 JUMP JUMPDEST DUP1 PUSH1 0x1F ADD PUSH1 0x20 DUP1 SWAP2 DIV MUL PUSH1 0x20 ADD PUSH1 0x40 MLOAD SWAP1 DUP2 ADD PUSH1 0x40 MSTORE DUP1 SWAP3 SWAP2 SWAP1 DUP2 DUP2 MSTORE PUSH1 0x20 ADD DUP3 DUP1 SLOAD PUSH2 0x100 SWAP1 PUSH2 0x448 JUMP JUMPDEST DUP1 ISZERO PUSH2 0x14D JUMPI DUP1 PUSH1 0x1F LT PUSH2 0x122 JUMPI PUSH2 0x100 DUP1 DUP4 SLOAD DIV MUL DUP4 MSTORE SWAP2 PUSH1 0x20 ADD SWAP2 PUSH2 0x14D JUMP JUMPDEST DUP3 ADD SWAP2 SWAP1 PUSH1 0x0 MSTORE PUSH1 0x20 PUSH1 0x0 KECCAK256 SWAP1 JUMPDEST DUP2 SLOAD DUP2 MSTORE SWAP1 PUSH1 0x1 ADD SWAP1 PUSH1 0x20 ADD DUP1 DUP4 GT PUSH2 0x130 JUMPI DUP3 SWAP1 SUB PUSH1 0x1F AND DUP3 ADD SWAP2 JUMPDEST POP POP POP POP POP SWAP1 POP SWAP1 JUMP JUMPDEST PUSH1 0x0 PUSH1 0x1 PUSH1 0x0 SWAP1 SLOAD SWAP1 PUSH2 0x100 EXP SWAP1 DIV PUSH20 0xFFFFFFFFFFFFFFFFFFFFFFFFFFFFFFFFFFFFFFFF AND SWAP1 POP SWAP1 JUMP JUMPDEST DUP3 DUP1 SLOAD PUSH2 0x18D SWAP1 PUSH2 0x448 JUMP JUMPDEST SWAP1 PUSH1 0x0 MSTORE PUSH1 0x20 PUSH1 0x0 KECCAK256 SWAP1 PUSH1 0x1F ADD PUSH1 0x20 SWAP1 DIV DUP2 ADD SWAP3 DUP3 PUSH2 0x1AF JUMPI PUSH1 0x0 DUP6 SSTORE PUSH2 0x1F6 JUMP JUMPDEST DUP3 PUSH1 0x1F LT PUSH2 0x1C8 JUMPI DUP1 MLOAD PUSH1 0xFF NOT AND DUP4 DUP1 ADD OR DUP6 SSTORE PUSH2 0x1F6 JUMP JUMPDEST DUP3 DUP1 ADD PUSH1 0x1 ADD DUP6 SSTORE DUP3 ISZERO PUSH2 0x1F6 JUMPI SWAP2 DUP3 ADD JUMPDEST DUP3 DUP2 GT ISZERO PUSH2 0x1F5 JUMPI DUP3 MLOAD DUP3 SSTORE SWAP2 PUSH1 0x20 ADD SWAP2 SWAP1 PUSH1 0x1 ADD SWAP1 PUSH2 0x1DA JUMP JUMPDEST JUMPDEST POP SWAP1 POP PUSH2 0x203 SWAP2 SWAP1 PUSH2 0x207 JUMP JUMPDEST POP SWAP1 JUMP JUMPDEST JUMPDEST DUP1 DUP3 GT ISZERO PUSH2 0x220 JUMPI PUSH1 0x0 DUP2 PUSH1 0x0 SWAP1 SSTORE POP PUSH1 0x1 ADD PUSH2 0x208 JUMP JUMPDEST POP SWAP1 JUMP JUMPDEST PUSH1 0x0 PUSH2 0x237 PUSH2 0x232 DUP5 PUSH2 0x387 JUMP JUMPDEST PUSH2 0x362 JUMP JUMPDEST SWAP1 POP DUP3 DUP2 MSTORE PUSH1 0x20 DUP2 ADD DUP5 DUP5 DUP5 ADD GT ISZERO PUSH2 0x253 JUMPI PUSH2 0x252 PUSH2 0x50E JUMP JUMPDEST JUMPDEST PUSH2 0x25E DUP5 DUP3 DUP6 PUSH2 0x406 JUMP JUMPDEST POP SWAP4 SWAP3 POP POP POP JUMP JUMPDEST PUSH1 0x0 DUP3 PUSH1 0x1F DUP4 ADD SLT PUSH2 0x27B JUMPI PUSH2 0x27A PUSH2 0x509 JUMP JUMPDEST JUMPDEST DUP2 CALLDATALOAD PUSH2 0x28B DUP5 DUP3 PUSH1 0x20 DUP7 ADD PUSH2 0x224 JUMP JUMPDEST SWAP2 POP POP SWAP3 SWAP2 POP POP JUMP JUMPDEST PUSH1 0x0 PUSH1 0x20 DUP3 DUP5 SUB SLT ISZERO PUSH2 0x2AA JUMPI PUSH2 0x2A9 PUSH2 0x518 JUMP JUMPDEST JUMPDEST PUSH1 0x0 DUP3 ADD CALLDATALOAD PUSH8 0xFFFFFFFFFFFFFFFF DUP2 GT ISZERO PUSH2 0x2C8 JUMPI PUSH2 0x2C7 PUSH2 0x513 JUMP JUMPDEST JUMPDEST PUSH2 0x2D4 DUP5 DUP3 DUP6 ADD PUSH2 0x266 JUMP JUMPDEST SWAP2 POP POP SWAP3 SWAP2 POP POP JUMP JUMPDEST PUSH2 0x2E6 DUP2 PUSH2 0x3D4 JUMP JUMPDEST DUP3 MSTORE POP POP JUMP JUMPDEST PUSH1 0x0 PUSH2 0x2F7 DUP3 PUSH2 0x3B8 JUMP JUMPDEST PUSH2 0x301 DUP2 DUP6 PUSH2 0x3C3 JUMP JUMPDEST SWAP4 POP PUSH2 0x311 DUP2 DUP6 PUSH1 0x20 DUP7 ADD PUSH2 0x415 JUMP JUMPDEST PUSH2 0x31A DUP2 PUSH2 0x51D JUMP JUMPDEST DUP5 ADD SWAP2 POP POP SWAP3 SWAP2 POP POP JUMP JUMPDEST PUSH1 0x0 PUSH1 0x20 DUP3 ADD SWAP1 POP PUSH2 0x33A PUSH1 0x0 DUP4 ADD DUP5 PUSH2 0x2DD JUMP JUMPDEST SWAP3 SWAP2 POP POP JUMP JUMPDEST PUSH1 0x0 PUSH1 0x20 DUP3 ADD SWAP1 POP DUP2 DUP2 SUB PUSH1 0x0 DUP4 ADD MSTORE PUSH2 0x35A DUP2 DUP5 PUSH2 0x2EC JUMP JUMPDEST SWAP1 POP SWAP3 SWAP2 POP POP JUMP JUMPDEST PUSH1 0x0 PUSH2 0x36C PUSH2 0x37D JUMP JUMPDEST SWAP1 POP PUSH2 0x378 DUP3 DUP3 PUSH2 0x47A JUMP JUMPDEST SWAP2 SWAP1 POP JUMP JUMPDEST PUSH1 0x0 PUSH1 0x40 MLOAD SWAP1 POP SWAP1 JUMP JUMPDEST PUSH1 0x0 PUSH8 0xFFFFFFFFFFFFFFFF DUP3 GT ISZERO PUSH2 0x3A2 JUMPI PUSH2 0x3A1 PUSH2 0x4DA JUMP JUMPDEST JUMPDEST PUSH2 0x3AB DUP3 PUSH2 0x51D JUMP JUMPDEST SWAP1 POP PUSH1 0x20 DUP2 ADD SWAP1 POP SWAP2 SWAP1 POP JUMP JUMPDEST PUSH1 0x0 DUP2 MLOAD SWAP1 POP SWAP2 SWAP1 POP JUMP JUMPDEST PUSH1 0x0 DUP3 DUP3 MSTORE PUSH1 0x20 DUP3 ADD SWAP1 POP SWAP3 SWAP2 POP POP JUMP JUMPDEST PUSH1 0x0 PUSH2 0x3DF DUP3 PUSH2 0x3E6 JUMP JUMPDEST SWAP1 POP SWAP2 SWAP1 POP JUMP JUMPDEST PUSH1 0x0 PUSH20 0xFFFFFFFFFFFFFFFFFFFFFFFFFFFFFFFFFFFFFFFF DUP3 AND SWAP1 POP SWAP2 SWAP1 POP JUMP JUMPDEST DUP3 DUP2 DUP4 CALLDATACOPY PUSH1 0x0 DUP4 DUP4 ADD MSTORE POP POP POP JUMP JUMPDEST PUSH1 0x0 JUMPDEST DUP4 DUP2 LT ISZERO PUSH2 0x433 JUMPI DUP1 DUP3 ADD MLOAD DUP2 DUP5 ADD MSTORE PUSH1 0x20 DUP2 ADD SWAP1 POP PUSH2 0x418 JUMP JUMPDEST DUP4 DUP2 GT ISZERO PUSH2 0x442 JUMPI PUSH1 0x0 DUP5 DUP5 ADD MSTORE JUMPDEST POP POP POP POP JUMP JUMPDEST PUSH1 0x0 PUSH1 0x2 DUP3 DIV SWAP1 POP PUSH1 0x1 DUP3 AND DUP1 PUSH2 0x460 JUMPI PUSH1 0x7F DUP3 AND SWAP2 POP JUMPDEST PUSH1 0x20 DUP3 LT DUP2 EQ ISZERO PUSH2 0x474 JUMPI PUSH2 0x473 PUSH2 0x4AB JUMP JUMPDEST JUMPDEST POP SWAP2 SWAP1 POP JUMP JUMPDEST PUSH2 0x483 DUP3 PUSH2 0x51D JUMP JUMPDEST DUP2 ADD DUP2 DUP2 LT PUSH8 0xFFFFFFFFFFFFFFFF DUP3 GT OR ISZERO PUSH2 0x4A2 JUMPI PUSH2 0x4A1 PUSH2 0x4DA JUMP JUMPDEST JUMPDEST DUP1 PUSH1 0x40 MSTORE POP POP POP JUMP JUMPDEST PUSH32 0x4E487B7100000000000000000000000000000000000000000000000000000000 PUSH1 0x0 MSTORE PUSH1 0x22 PUSH1 0x4 MSTORE PUSH1 0x24 PUSH1 0x0 REVERT JUMPDEST PUSH32 0x4E487B7100000000000000000000000000000000000000000000000000000000 PUSH1 0x0 MSTORE PUSH1 0x41 PUSH1 0x4 MSTORE PUSH1 0x24 PUSH1 0x0 REVERT JUMPDEST PUSH1 0x0 DUP1 REVERT JUMPDEST PUSH1 0x0 DUP1 REVERT JUMPDEST PUSH1 0x0 DUP1 REVERT JUMPDEST PUSH1 0x0 DUP1 REVERT JUMPDEST PUSH1 0x0 PUSH1 0x1F NOT PUSH1 0x1F DUP4 ADD AND SWAP1 POP SWAP2 SWAP1 POP JUMP INVALID LOG2 PUSH5 0x6970667358 0x22 SLT KECCAK256 0x1E 0xE0 0x5F PUSH29 0x73C007A6D2FD481BAAADEAB8030C66DC9213B1C969F9E8B2E0595F3B64 PUSH20 0x6F6C634300080700330000000000000000000000 "
				},
				"gasEstimates": {
					"creation": {
						"codeDepositCost": "276000",
						"executionCost": "24584",
						"totalCost": "300584"
					},
					"external": {
						"helloWorld()": "infinite",
						"sample()": "2544",
						"setText(string)": "infinite"
					}
				},
				"methodIdentifiers": {
					"helloWorld()": "c605f76c",
					"sample()": "c9482a5d",
					"setText(string)": "5d3a1f9d"
				}
			},
			"storageLayout": {
				"storage": [
					{
						"astId": 4,
						"contract": "HelloWorld.sol:HelloWorld",
						"label": "text",
						"offset": 0,
						"slot": "0",
						"type": "t_string_storage"
					},
					{
						"astId": 6,
						"contract": "HelloWorld.sol:HelloWorld",
						"label": "deployer",
						"offset": 0,
						"slot": "1",
						"type": "t_address"
					}
				],
				"types": {
					"t_address": {
						"encoding": "inplace",
						"label": "address",
						"numberOfBytes": "20"
					},
					"t_string_storage": {
						"encoding": "bytes",
						"label": "string",
						"numberOfBytes": "32"
					}
				}
			},
			"userdoc": {
				"kind": "user",
				"methods": {},
				"notice": "Hello World implementation example with solidity",
				"version": 1
			}
		}
	}
}