{
	"HelloWorld.sol": {
		"GreetingReadeer": {
			"abi": [
				{
					"inputs": [
						{
							"internalType": "address",
							"name": "target",
							"type": "address"
						}
					],
					"name": "read",
					"outputs": [
						{
							"internalType": "string",
							"name": "",
							"type": "string"
						}
					],
					"stateMutability": "view",
					"type": "function"
				}
			],
			"devdoc": {
				"kind": "dev",
				"methods": {},
				"version": 1
			},
			"evm": {
				"assembly": "    /* \"HelloWorld.sol\":857:1064  contract GreetingReadeer{... */\n  mstore(0x40, 0x80)\n  callvalue\n  dup1\n  iszero\n  tag_1\n  jumpi\n  0x00\n  dup1\n  revert\ntag_1:\n  pop\n  dataSize(sub_0)\n  dup1\n  dataOffset(sub_0)\n  0x00\n  codecopy\n  0x00\n  return\nstop\n\nsub_0: assembly {\n        /* \"HelloWorld.sol\":857:1064  contract GreetingReadeer{... */\n      mstore(0x40, 0x80)\n      callvalue\n      dup1\n      iszero\n      tag_1\n      jumpi\n      0x00\n      dup1\n      revert\n    tag_1:\n      pop\n      jumpi(tag_2, lt(calldatasize, 0x04))\n      shr(0xe0, calldataload(0x00))\n      dup1\n      0xa087a87e\n      eq\n      tag_3\n      jumpi\n    tag_2:\n      0x00\n      dup1\n      revert\n        /* \"HelloWorld.sol\":888:1062  function read(address target) public view returns (string memory){... */\n    tag_3:\n      tag_4\n      0x04\n      dup1\n      calldatasize\n      sub\n      dup2\n      add\n      swap1\n      tag_5\n      swap2\n      swap1\n      tag_6\n      jump\t// in\n    tag_5:\n      tag_7\n      jump\t// in\n    tag_4:\n      mload(0x40)\n      tag_8\n      swap2\n      swap1\n      tag_9\n      jump\t// in\n    tag_8:\n      mload(0x40)\n      dup1\n      swap2\n      sub\n      swap1\n      return\n    tag_7:\n        /* \"HelloWorld.sol\":939:952  string memory */\n      0x60\n        /* \"HelloWorld.sol\":963:989  HelloWorld referenceObject */\n      0x00\n        /* \"HelloWorld.sol\":1003:1009  target */\n      dup3\n        /* \"HelloWorld.sol\":963:1010  HelloWorld referenceObject = HelloWorld(target) */\n      swap1\n      pop\n        /* \"HelloWorld.sol\":1027:1042  referenceObject */\n      dup1\n        /* \"HelloWorld.sol\":1027:1053  referenceObject.helloWorld */\n      0xffffffffffffffffffffffffffffffffffffffff\n      and\n      0xc605f76c\n        /* \"HelloWorld.sol\":1027:1055  referenceObject.helloWorld() */\n      mload(0x40)\n      dup2\n      0xffffffff\n      and\n      0xe0\n      shl\n      dup2\n      mstore\n      0x04\n      add\n      0x00\n      mload(0x40)\n      dup1\n      dup4\n      sub\n      dup2\n      dup7\n      dup1\n      extcodesize\n      iszero\n      dup1\n      iszero\n      tag_11\n      jumpi\n      0x00\n      dup1\n      revert\n    tag_11:\n      pop\n      gas\n      staticcall\n      iszero\n      dup1\n      iszero\n      tag_13\n      jumpi\n      returndatasize\n      0x00\n      dup1\n      returndatacopy\n      revert(0x00, returndatasize)\n    tag_13:\n      pop\n      pop\n      pop\n      pop\n      mload(0x40)\n      returndatasize\n      0x00\n      dup3\n      returndatacopy\n      returndatasize\n      not(0x1f)\n      0x1f\n      dup3\n      add\n      and\n      dup3\n      add\n      dup1\n      0x40\n      mstore\n      pop\n      dup2\n      add\n      swap1\n      tag_14\n      swap2\n      swap1\n      tag_15\n      jump\t// in\n    tag_14:\n        /* \"HelloWorld.sol\":1020:1055  return referenceObject.helloWorld() */\n      swap2\n      pop\n      pop\n        /* \"HelloWorld.sol\":888:1062  function read(address target) public view returns (string memory){... */\n      swap2\n      swap1\n      pop\n      jump\t// out\n        /* \"#utility.yul\":7:428   */\n    tag_17:\n        /* \"#utility.yul\":96:101   */\n      0x00\n        /* \"#utility.yul\":121:187   */\n      tag_19\n        /* \"#utility.yul\":137:186   */\n      tag_20\n        /* \"#utility.yul\":179:185   */\n      dup5\n        /* \"#utility.yul\":137:186   */\n      tag_21\n      jump\t// in\n    tag_20:\n        /* \"#utility.yul\":121:187   */\n      tag_22\n      jump\t// in\n    tag_19:\n        /* \"#utility.yul\":112:187   */\n      swap1\n      pop\n        /* \"#utility.yul\":210:216   */\n      dup3\n        /* \"#utility.yul\":203:208   */\n      dup2\n        /* \"#utility.yul\":196:217   */\n      mstore\n        /* \"#utility.yul\":248:252   */\n      0x20\n        /* \"#utility.yul\":241:246   */\n      dup2\n        /* \"#utility.yul\":237:253   */\n      add\n        /* \"#utility.yul\":286:289   */\n      dup5\n        /* \"#utility.yul\":277:283   */\n      dup5\n        /* \"#utility.yul\":272:275   */\n      dup5\n        /* \"#utility.yul\":268:284   */\n      add\n        /* \"#utility.yul\":265:290   */\n      gt\n        /* \"#utility.yul\":262:374   */\n      iszero\n      tag_23\n      jumpi\n        /* \"#utility.yul\":293:372   */\n      tag_24\n      tag_25\n      jump\t// in\n    tag_24:\n        /* \"#utility.yul\":262:374   */\n    tag_23:\n        /* \"#utility.yul\":383:422   */\n      tag_26\n        /* \"#utility.yul\":415:421   */\n      dup5\n        /* \"#utility.yul\":410:413   */\n      dup3\n        /* \"#utility.yul\":405:408   */\n      dup6\n        /* \"#utility.yul\":383:422   */\n      tag_27\n      jump\t// in\n    tag_26:\n        /* \"#utility.yul\":102:428   */\n      pop\n        /* \"#utility.yul\":7:428   */\n      swap4\n      swap3\n      pop\n      pop\n      pop\n      jump\t// out\n        /* \"#utility.yul\":434:573   */\n    tag_28:\n        /* \"#utility.yul\":480:485   */\n      0x00\n        /* \"#utility.yul\":518:524   */\n      dup2\n        /* \"#utility.yul\":505:525   */\n      calldataload\n        /* \"#utility.yul\":496:525   */\n      swap1\n      pop\n        /* \"#utility.yul\":534:567   */\n      tag_30\n        /* \"#utility.yul\":561:566   */\n      dup2\n        /* \"#utility.yul\":534:567   */\n      tag_31\n      jump\t// in\n    tag_30:\n        /* \"#utility.yul\":434:573   */\n      swap3\n      swap2\n      pop\n      pop\n      jump\t// out\n        /* \"#utility.yul\":593:948   */\n    tag_32:\n        /* \"#utility.yul\":660:665   */\n      0x00\n        /* \"#utility.yul\":709:712   */\n      dup3\n        /* \"#utility.yul\":702:706   */\n      0x1f\n        /* \"#utility.yul\":694:700   */\n      dup4\n        /* \"#utility.yul\":690:707   */\n      add\n        /* \"#utility.yul\":686:713   */\n      slt\n        /* \"#utility.yul\":676:798   */\n      tag_34\n      jumpi\n        /* \"#utility.yul\":717:796   */\n      tag_35\n      tag_36\n      jump\t// in\n    tag_35:\n        /* \"#utility.yul\":676:798   */\n    tag_34:\n        /* \"#utility.yul\":827:833   */\n      dup2\n        /* \"#utility.yul\":821:834   */\n      mload\n        /* \"#utility.yul\":852:942   */\n      tag_37\n        /* \"#utility.yul\":938:941   */\n      dup5\n        /* \"#utility.yul\":930:936   */\n      dup3\n        /* \"#utility.yul\":923:927   */\n      0x20\n        /* \"#utility.yul\":915:921   */\n      dup7\n        /* \"#utility.yul\":911:928   */\n      add\n        /* \"#utility.yul\":852:942   */\n      tag_17\n      jump\t// in\n    tag_37:\n        /* \"#utility.yul\":843:942   */\n      swap2\n      pop\n        /* \"#utility.yul\":666:948   */\n      pop\n        /* \"#utility.yul\":593:948   */\n      swap3\n      swap2\n      pop\n      pop\n      jump\t// out\n        /* \"#utility.yul\":954:1283   */\n    tag_6:\n        /* \"#utility.yul\":1013:1019   */\n      0x00\n        /* \"#utility.yul\":1062:1064   */\n      0x20\n        /* \"#utility.yul\":1050:1059   */\n      dup3\n        /* \"#utility.yul\":1041:1048   */\n      dup5\n        /* \"#utility.yul\":1037:1060   */\n      sub\n        /* \"#utility.yul\":1033:1065   */\n      slt\n        /* \"#utility.yul\":1030:1149   */\n      iszero\n      tag_39\n      jumpi\n        /* \"#utility.yul\":1068:1147   */\n      tag_40\n      tag_41\n      jump\t// in\n    tag_40:\n        /* \"#utility.yul\":1030:1149   */\n    tag_39:\n        /* \"#utility.yul\":1188:1189   */\n      0x00\n        /* \"#utility.yul\":1213:1266   */\n      tag_42\n        /* \"#utility.yul\":1258:1265   */\n      dup5\n        /* \"#utility.yul\":1249:1255   */\n      dup3\n        /* \"#utility.yul\":1238:1247   */\n      dup6\n        /* \"#utility.yul\":1234:1256   */\n      add\n        /* \"#utility.yul\":1213:1266   */\n      tag_28\n      jump\t// in\n    tag_42:\n        /* \"#utility.yul\":1203:1266   */\n      swap2\n      pop\n        /* \"#utility.yul\":1159:1276   */\n      pop\n        /* \"#utility.yul\":954:1283   */\n      swap3\n      swap2\n      pop\n      pop\n      jump\t// out\n        /* \"#utility.yul\":1289:1813   */\n    tag_15:\n        /* \"#utility.yul\":1369:1375   */\n      0x00\n        /* \"#utility.yul\":1418:1420   */\n      0x20\n        /* \"#utility.yul\":1406:1415   */\n      dup3\n        /* \"#utility.yul\":1397:1404   */\n      dup5\n        /* \"#utility.yul\":1393:1416   */\n      sub\n        /* \"#utility.yul\":1389:1421   */\n      slt\n        /* \"#utility.yul\":1386:1505   */\n      iszero\n      tag_44\n      jumpi\n        /* \"#utility.yul\":1424:1503   */\n      tag_45\n      tag_41\n      jump\t// in\n    tag_45:\n        /* \"#utility.yul\":1386:1505   */\n    tag_44:\n        /* \"#utility.yul\":1565:1566   */\n      0x00\n        /* \"#utility.yul\":1554:1563   */\n      dup3\n        /* \"#utility.yul\":1550:1567   */\n      add\n        /* \"#utility.yul\":1544:1568   */\n      mload\n        /* \"#utility.yul\":1595:1613   */\n      0xffffffffffffffff\n        /* \"#utility.yul\":1587:1593   */\n      dup2\n        /* \"#utility.yul\":1584:1614   */\n      gt\n        /* \"#utility.yul\":1581:1698   */\n      iszero\n      tag_46\n      jumpi\n        /* \"#utility.yul\":1617:1696   */\n      tag_47\n      tag_48\n      jump\t// in\n    tag_47:\n        /* \"#utility.yul\":1581:1698   */\n    tag_46:\n        /* \"#utility.yul\":1722:1796   */\n      tag_49\n        /* \"#utility.yul\":1788:1795   */\n      dup5\n        /* \"#utility.yul\":1779:1785   */\n      dup3\n        /* \"#utility.yul\":1768:1777   */\n      dup6\n        /* \"#utility.yul\":1764:1786   */\n      add\n        /* \"#utility.yul\":1722:1796   */\n      tag_32\n      jump\t// in\n    tag_49:\n        /* \"#utility.yul\":1712:1796   */\n      swap2\n      pop\n        /* \"#utility.yul\":1515:1806   */\n      pop\n        /* \"#utility.yul\":1289:1813   */\n      swap3\n      swap2\n      pop\n      pop\n      jump\t// out\n        /* \"#utility.yul\":1819:2183   */\n    tag_50:\n        /* \"#utility.yul\":1907:1910   */\n      0x00\n        /* \"#utility.yul\":1935:1974   */\n      tag_52\n        /* \"#utility.yul\":1968:1973   */\n      dup3\n        /* \"#utility.yul\":1935:1974   */\n      tag_53\n      jump\t// in\n    tag_52:\n        /* \"#utility.yul\":1990:2061   */\n      tag_54\n        /* \"#utility.yul\":2054:2060   */\n      dup2\n        /* \"#utility.yul\":2049:2052   */\n      dup6\n        /* \"#utility.yul\":1990:2061   */\n      tag_55\n      jump\t// in\n    tag_54:\n        /* \"#utility.yul\":1983:2061   */\n      swap4\n      pop\n        /* \"#utility.yul\":2070:2122   */\n      tag_56\n        /* \"#utility.yul\":2115:2121   */\n      dup2\n        /* \"#utility.yul\":2110:2113   */\n      dup6\n        /* \"#utility.yul\":2103:2107   */\n      0x20\n        /* \"#utility.yul\":2096:2101   */\n      dup7\n        /* \"#utility.yul\":2092:2108   */\n      add\n        /* \"#utility.yul\":2070:2122   */\n      tag_27\n      jump\t// in\n    tag_56:\n        /* \"#utility.yul\":2147:2176   */\n      tag_57\n        /* \"#utility.yul\":2169:2175   */\n      dup2\n        /* \"#utility.yul\":2147:2176   */\n      tag_58\n      jump\t// in\n    tag_57:\n        /* \"#utility.yul\":2142:2145   */\n      dup5\n        /* \"#utility.yul\":2138:2177   */\n      add\n        /* \"#utility.yul\":2131:2177   */\n      swap2\n      pop\n        /* \"#utility.yul\":1911:2183   */\n      pop\n        /* \"#utility.yul\":1819:2183   */\n      swap3\n      swap2\n      pop\n      pop\n      jump\t// out\n        /* \"#utility.yul\":2189:2502   */\n    tag_9:\n        /* \"#utility.yul\":2302:2306   */\n      0x00\n        /* \"#utility.yul\":2340:2342   */\n      0x20\n        /* \"#utility.yul\":2329:2338   */\n      dup3\n        /* \"#utility.yul\":2325:2343   */\n      add\n        /* \"#utility.yul\":2317:2343   */\n      swap1\n      pop\n        /* \"#utility.yul\":2389:2398   */\n      dup2\n        /* \"#utility.yul\":2383:2387   */\n      dup2\n        /* \"#utility.yul\":2379:2399   */\n      sub\n        /* \"#utility.yul\":2375:2376   */\n      0x00\n        /* \"#utility.yul\":2364:2373   */\n      dup4\n        /* \"#utility.yul\":2360:2377   */\n      add\n        /* \"#utility.yul\":2353:2400   */\n      mstore\n        /* \"#utility.yul\":2417:2495   */\n      tag_60\n        /* \"#utility.yul\":2490:2494   */\n      dup2\n        /* \"#utility.yul\":2481:2487   */\n      dup5\n        /* \"#utility.yul\":2417:2495   */\n      tag_50\n      jump\t// in\n    tag_60:\n        /* \"#utility.yul\":2409:2495   */\n      swap1\n      pop\n        /* \"#utility.yul\":2189:2502   */\n      swap3\n      swap2\n      pop\n      pop\n      jump\t// out\n        /* \"#utility.yul\":2508:2637   */\n    tag_22:\n        /* \"#utility.yul\":2542:2548   */\n      0x00\n        /* \"#utility.yul\":2569:2589   */\n      tag_62\n      tag_63\n      jump\t// in\n    tag_62:\n        /* \"#utility.yul\":2559:2589   */\n      swap1\n      pop\n        /* \"#utility.yul\":2598:2631   */\n      tag_64\n        /* \"#utility.yul\":2626:2630   */\n      dup3\n        /* \"#utility.yul\":2618:2624   */\n      dup3\n        /* \"#utility.yul\":2598:2631   */\n      tag_65\n      jump\t// in\n    tag_64:\n        /* \"#utility.yul\":2508:2637   */\n      swap2\n      swap1\n      pop\n      jump\t// out\n        /* \"#utility.yul\":2643:2718   */\n    tag_63:\n        /* \"#utility.yul\":2676:2682   */\n      0x00\n        /* \"#utility.yul\":2709:2711   */\n      0x40\n        /* \"#utility.yul\":2703:2712   */\n      mload\n        /* \"#utility.yul\":2693:2712   */\n      swap1\n      pop\n        /* \"#utility.yul\":2643:2718   */\n      swap1\n      jump\t// out\n        /* \"#utility.yul\":2724:3032   */\n    tag_21:\n        /* \"#utility.yul\":2786:2790   */\n      0x00\n        /* \"#utility.yul\":2876:2894   */\n      0xffffffffffffffff\n        /* \"#utility.yul\":2868:2874   */\n      dup3\n        /* \"#utility.yul\":2865:2895   */\n      gt\n        /* \"#utility.yul\":2862:2918   */\n      iszero\n      tag_68\n      jumpi\n        /* \"#utility.yul\":2898:2916   */\n      tag_69\n      tag_70\n      jump\t// in\n    tag_69:\n        /* \"#utility.yul\":2862:2918   */\n    tag_68:\n        /* \"#utility.yul\":2936:2965   */\n      tag_71\n        /* \"#utility.yul\":2958:2964   */\n      dup3\n        /* \"#utility.yul\":2936:2965   */\n      tag_58\n      jump\t// in\n    tag_71:\n        /* \"#utility.yul\":2928:2965   */\n      swap1\n      pop\n        /* \"#utility.yul\":3020:3024   */\n      0x20\n        /* \"#utility.yul\":3014:3018   */\n      dup2\n        /* \"#utility.yul\":3010:3025   */\n      add\n        /* \"#utility.yul\":3002:3025   */\n      swap1\n      pop\n        /* \"#utility.yul\":2724:3032   */\n      swap2\n      swap1\n      pop\n      jump\t// out\n        /* \"#utility.yul\":3038:3137   */\n    tag_53:\n        /* \"#utility.yul\":3090:3096   */\n      0x00\n        /* \"#utility.yul\":3124:3129   */\n      dup2\n        /* \"#utility.yul\":3118:3130   */\n      mload\n        /* \"#utility.yul\":3108:3130   */\n      swap1\n      pop\n        /* \"#utility.yul\":3038:3137   */\n      swap2\n      swap1\n      pop\n      jump\t// out\n        /* \"#utility.yul\":3143:3312   */\n    tag_55:\n        /* \"#utility.yul\":3227:3238   */\n      0x00\n        /* \"#utility.yul\":3261:3267   */\n      dup3\n        /* \"#utility.yul\":3256:3259   */\n      dup3\n        /* \"#utility.yul\":3249:3268   */\n      mstore\n        /* \"#utility.yul\":3301:3305   */\n      0x20\n        /* \"#utility.yul\":3296:3299   */\n      dup3\n        /* \"#utility.yul\":3292:3306   */\n      add\n        /* \"#utility.yul\":3277:3306   */\n      swap1\n      pop\n        /* \"#utility.yul\":3143:3312   */\n      swap3\n      swap2\n      pop\n      pop\n      jump\t// out\n        /* \"#utility.yul\":3318:3414   */\n    tag_74:\n        /* \"#utility.yul\":3355:3362   */\n      0x00\n        /* \"#utility.yul\":3384:3408   */\n      tag_76\n        /* \"#utility.yul\":3402:3407   */\n      dup3\n        /* \"#utility.yul\":3384:3408   */\n      tag_77\n      jump\t// in\n    tag_76:\n        /* \"#utility.yul\":3373:3408   */\n      swap1\n      pop\n        /* \"#utility.yul\":3318:3414   */\n      swap2\n      swap1\n      pop\n      jump\t// out\n        /* \"#utility.yul\":3420:3546   */\n    tag_77:\n        /* \"#utility.yul\":3457:3464   */\n      0x00\n        /* \"#utility.yul\":3497:3539   */\n      0xffffffffffffffffffffffffffffffffffffffff\n        /* \"#utility.yul\":3490:3495   */\n      dup3\n        /* \"#utility.yul\":3486:3540   */\n      and\n        /* \"#utility.yul\":3475:3540   */\n      swap1\n      pop\n        /* \"#utility.yul\":3420:3546   */\n      swap2\n      swap1\n      pop\n      jump\t// out\n        /* \"#utility.yul\":3552:3859   */\n    tag_27:\n        /* \"#utility.yul\":3620:3621   */\n      0x00\n        /* \"#utility.yul\":3630:3743   */\n    tag_80:\n        /* \"#utility.yul\":3644:3650   */\n      dup4\n        /* \"#utility.yul\":3641:3642   */\n      dup2\n        /* \"#utility.yul\":3638:3651   */\n      lt\n        /* \"#utility.yul\":3630:3743   */\n      iszero\n      tag_82\n      jumpi\n        /* \"#utility.yul\":3729:3730   */\n      dup1\n        /* \"#utility.yul\":3724:3727   */\n      dup3\n        /* \"#utility.yul\":3720:3731   */\n      add\n        /* \"#utility.yul\":3714:3732   */\n      mload\n        /* \"#utility.yul\":3710:3711   */\n      dup2\n        /* \"#utility.yul\":3705:3708   */\n      dup5\n        /* \"#utility.yul\":3701:3712   */\n      add\n        /* \"#utility.yul\":3694:3733   */\n      mstore\n        /* \"#utility.yul\":3666:3668   */\n      0x20\n        /* \"#utility.yul\":3663:3664   */\n      dup2\n        /* \"#utility.yul\":3659:3669   */\n      add\n        /* \"#utility.yul\":3654:3669   */\n      swap1\n      pop\n        /* \"#utility.yul\":3630:3743   */\n      jump(tag_80)\n    tag_82:\n        /* \"#utility.yul\":3761:3767   */\n      dup4\n        /* \"#utility.yul\":3758:3759   */\n      dup2\n        /* \"#utility.yul\":3755:3768   */\n      gt\n        /* \"#utility.yul\":3752:3853   */\n      iszero\n      tag_83\n      jumpi\n        /* \"#utility.yul\":3841:3842   */\n      0x00\n        /* \"#utility.yul\":3832:3838   */\n      dup5\n        /* \"#utility.yul\":3827:3830   */\n      dup5\n        /* \"#utility.yul\":3823:3839   */\n      add\n        /* \"#utility.yul\":3816:3843   */\n      mstore\n        /* \"#utility.yul\":3752:3853   */\n    tag_83:\n        /* \"#utility.yul\":3601:3859   */\n      pop\n        /* \"#utility.yul\":3552:3859   */\n      pop\n      pop\n      pop\n      jump\t// out\n        /* \"#utility.yul\":3865:4146   */\n    tag_65:\n        /* \"#utility.yul\":3948:3975   */\n      tag_85\n        /* \"#utility.yul\":3970:3974   */\n      dup3\n        /* \"#utility.yul\":3948:3975   */\n      tag_58\n      jump\t// in\n    tag_85:\n        /* \"#utility.yul\":3940:3946   */\n      dup2\n        /* \"#utility.yul\":3936:3976   */\n      add\n        /* \"#utility.yul\":4078:4084   */\n      dup2\n        /* \"#utility.yul\":4066:4076   */\n      dup2\n        /* \"#utility.yul\":4063:4085   */\n      lt\n        /* \"#utility.yul\":4042:4060   */\n      0xffffffffffffffff\n        /* \"#utility.yul\":4030:4040   */\n      dup3\n        /* \"#utility.yul\":4027:4061   */\n      gt\n        /* \"#utility.yul\":4024:4086   */\n      or\n        /* \"#utility.yul\":4021:4109   */\n      iszero\n      tag_86\n      jumpi\n        /* \"#utility.yul\":4089:4107   */\n      tag_87\n      tag_70\n      jump\t// in\n    tag_87:\n        /* \"#utility.yul\":4021:4109   */\n    tag_86:\n        /* \"#utility.yul\":4129:4139   */\n      dup1\n        /* \"#utility.yul\":4125:4127   */\n      0x40\n        /* \"#utility.yul\":4118:4140   */\n      mstore\n        /* \"#utility.yul\":3908:4146   */\n      pop\n        /* \"#utility.yul\":3865:4146   */\n      pop\n      pop\n      jump\t// out\n        /* \"#utility.yul\":4152:4332   */\n    tag_70:\n        /* \"#utility.yul\":4200:4277   */\n      0x4e487b7100000000000000000000000000000000000000000000000000000000\n        /* \"#utility.yul\":4197:4198   */\n      0x00\n        /* \"#utility.yul\":4190:4278   */\n      mstore\n        /* \"#utility.yul\":4297:4301   */\n      0x41\n        /* \"#utility.yul\":4294:4295   */\n      0x04\n        /* \"#utility.yul\":4287:4302   */\n      mstore\n        /* \"#utility.yul\":4321:4325   */\n      0x24\n        /* \"#utility.yul\":4318:4319   */\n      0x00\n        /* \"#utility.yul\":4311:4326   */\n      revert\n        /* \"#utility.yul\":4338:4455   */\n    tag_36:\n        /* \"#utility.yul\":4447:4448   */\n      0x00\n        /* \"#utility.yul\":4444:4445   */\n      dup1\n        /* \"#utility.yul\":4437:4449   */\n      revert\n        /* \"#utility.yul\":4461:4578   */\n    tag_25:\n        /* \"#utility.yul\":4570:4571   */\n      0x00\n        /* \"#utility.yul\":4567:4568   */\n      dup1\n        /* \"#utility.yul\":4560:4572   */\n      revert\n        /* \"#utility.yul\":4584:4701   */\n    tag_48:\n        /* \"#utility.yul\":4693:4694   */\n      0x00\n        /* \"#utility.yul\":4690:4691   */\n      dup1\n        /* \"#utility.yul\":4683:4695   */\n      revert\n        /* \"#utility.yul\":4707:4824   */\n    tag_41:\n        /* \"#utility.yul\":4816:4817   */\n      0x00\n        /* \"#utility.yul\":4813:4814   */\n      dup1\n        /* \"#utility.yul\":4806:4818   */\n      revert\n        /* \"#utility.yul\":4830:4932   */\n    tag_58:\n        /* \"#utility.yul\":4871:4877   */\n      0x00\n        /* \"#utility.yul\":4922:4924   */\n      0x1f\n        /* \"#utility.yul\":4918:4925   */\n      not\n        /* \"#utility.yul\":4913:4915   */\n      0x1f\n        /* \"#utility.yul\":4906:4911   */\n      dup4\n        /* \"#utility.yul\":4902:4916   */\n      add\n        /* \"#utility.yul\":4898:4926   */\n      and\n        /* \"#utility.yul\":4888:4926   */\n      swap1\n      pop\n        /* \"#utility.yul\":4830:4932   */\n      swap2\n      swap1\n      pop\n      jump\t// out\n        /* \"#utility.yul\":4938:5060   */\n    tag_31:\n        /* \"#utility.yul\":5011:5035   */\n      tag_95\n        /* \"#utility.yul\":5029:5034   */\n      dup2\n        /* \"#utility.yul\":5011:5035   */\n      tag_74\n      jump\t// in\n    tag_95:\n        /* \"#utility.yul\":5004:5009   */\n      dup2\n        /* \"#utility.yul\":5001:5036   */\n      eq\n        /* \"#utility.yul\":4991:5054   */\n      tag_96\n      jumpi\n        /* \"#utility.yul\":5050:5051   */\n      0x00\n        /* \"#utility.yul\":5047:5048   */\n      dup1\n        /* \"#utility.yul\":5040:5052   */\n      revert\n        /* \"#utility.yul\":4991:5054   */\n    tag_96:\n        /* \"#utility.yul\":4938:5060   */\n      pop\n      jump\t// out\n\n    auxdata: 0xa26469706673582212204e1e5d419b27fa8eb9a6a66bb310a96199386998f4dfc77a2e75a4aa69379e5a64736f6c63430008070033\n}\n",
				"bytecode": {
					"linkReferences": {},
					"object": "608060405234801561001057600080fd5b506103f1806100206000396000f3fe608060405234801561001057600080fd5b506004361061002b5760003560e01c8063a087a87e14610030575b600080fd5b61004a60048036038101906100459190610177565b610060565b6040516100579190610226565b60405180910390f35b606060008290508073ffffffffffffffffffffffffffffffffffffffff1663c605f76c6040518163ffffffff1660e01b815260040160006040518083038186803b1580156100ad57600080fd5b505afa1580156100c1573d6000803e3d6000fd5b505050506040513d6000823e3d601f19601f820116820180604052508101906100ea91906101a4565b915050919050565b60006101056101008461026d565b610248565b90508281526020810184848401111561012157610120610384565b5b61012c8482856102ec565b509392505050565b600081359050610143816103a4565b92915050565b600082601f83011261015e5761015d61037f565b5b815161016e8482602086016100f2565b91505092915050565b60006020828403121561018d5761018c61038e565b5b600061019b84828501610134565b91505092915050565b6000602082840312156101ba576101b961038e565b5b600082015167ffffffffffffffff8111156101d8576101d7610389565b5b6101e484828501610149565b91505092915050565b60006101f88261029e565b61020281856102a9565b93506102128185602086016102ec565b61021b81610393565b840191505092915050565b6000602082019050818103600083015261024081846101ed565b905092915050565b6000610252610263565b905061025e828261031f565b919050565b6000604051905090565b600067ffffffffffffffff82111561028857610287610350565b5b61029182610393565b9050602081019050919050565b600081519050919050565b600082825260208201905092915050565b60006102c5826102cc565b9050919050565b600073ffffffffffffffffffffffffffffffffffffffff82169050919050565b60005b8381101561030a5780820151818401526020810190506102ef565b83811115610319576000848401525b50505050565b61032882610393565b810181811067ffffffffffffffff8211171561034757610346610350565b5b80604052505050565b7f4e487b7100000000000000000000000000000000000000000000000000000000600052604160045260246000fd5b600080fd5b600080fd5b600080fd5b600080fd5b6000601f19601f8301169050919050565b6103ad816102ba565b81146103b857600080fd5b5056fea26469706673582212204e1e5d419b27fa8eb9a6a66bb310a96199386998f4dfc77a2e75a4aa69379e5a64736f6c63430008070033",
					"opcodes": "PUSH1 0x80 PUSH1 0x40 MSTORE CALLVALUE DUP1 ISZERO PUSH2 0x10 JUMPI PUSH1 0x0 DUP1 REVERT JUMPDEST POP PUSH2 0x3F1 DUP1 PUSH2 0x20 PUSH1 0x0 CODECOPY PUSH1 0x0 RETURN INVALID PUSH1 0x80 PUSH1 0x40 MSTORE CALLVALUE DUP1 ISZERO PUSH2 0x10 JUMPI PUSH1 0x0 DUP1 REVERT JUMPDEST POP PUSH1 0x4 CALLDATASIZE LT PUSH2 0x2B JUMPI PUSH1 0x0 CALLDATALOAD PUSH1 0xE0 SHR DUP1 PUSH4 0xA087A87E EQ PUSH2 0x30 JUMPI JUMPDEST PUSH1 0x0 DUP1 REVERT JUMPDEST PUSH2 0x4A PUSH1 0x4 DUP1 CALLDATASIZE SUB DUP2 ADD SWAP1 PUSH2 0x45 SWAP2 SWAP1 PUSH2 0x177 JUMP JUMPDEST PUSH2 0x60 JUMP JUMPDEST PUSH1 0x40 MLOAD PUSH2 0x57 SWAP2 SWAP1 PUSH2 0x226 JUMP JUMPDEST PUSH1 0x40 MLOAD DUP1 SWAP2 SUB SWAP1 RETURN JUMPDEST PUSH1 0x60 PUSH1 0x0 DUP3 SWAP1 POP DUP1 PUSH20 0xFFFFFFFFFFFFFFFFFFFFFFFFFFFFFFFFFFFFFFFF AND PUSH4 0xC605F76C PUSH1 0x40 MLOAD DUP2 PUSH4 0xFFFFFFFF AND PUSH1 0xE0 SHL DUP2 MSTORE PUSH1 0x4 ADD PUSH1 0x0 PUSH1 0x40 MLOAD DUP1 DUP4 SUB DUP2 DUP7 DUP1 EXTCODESIZE ISZERO DUP1 ISZERO PUSH2 0xAD JUMPI PUSH1 0x0 DUP1 REVERT JUMPDEST POP GAS STATICCALL ISZERO DUP1 ISZERO PUSH2 0xC1 JUMPI RETURNDATASIZE PUSH1 0x0 DUP1 RETURNDATACOPY RETURNDATASIZE PUSH1 0x0 REVERT JUMPDEST POP POP POP POP PUSH1 0x40 MLOAD RETURNDATASIZE PUSH1 0x0 DUP3 RETURNDATACOPY RETURNDATASIZE PUSH1 0x1F NOT PUSH1 0x1F DUP3 ADD AND DUP3 ADD DUP1 PUSH1 0x40 MSTORE POP DUP2 ADD SWAP1 PUSH2 0xEA SWAP2 SWAP1 PUSH2 0x1A4 JUMP JUMPDEST SWAP2 POP POP SWAP2 SWAP1 POP JUMP JUMPDEST PUSH1 0x0 PUSH2 0x105 PUSH2 0x100 DUP5 PUSH2 0x26D JUMP JUMPDEST PUSH2 0x248 JUMP JUMPDEST SWAP1 POP DUP3 DUP2 MSTORE PUSH1 0x20 DUP2 ADD DUP5 DUP5 DUP5 ADD GT ISZERO PUSH2 0x121 JUMPI PUSH2 0x120 PUSH2 0x384 JUMP JUMPDEST JUMPDEST PUSH2 0x12C DUP5 DUP3 DUP6 PUSH2 0x2EC JUMP JUMPDEST POP SWAP4 SWAP3 POP POP POP JUMP JUMPDEST PUSH1 0x0 DUP2 CALLDATALOAD SWAP1 POP PUSH2 0x143 DUP2 PUSH2 0x3A4 JUMP JUMPDEST SWAP3 SWAP2 POP POP JUMP JUMPDEST PUSH1 0x0 DUP3 PUSH1 0x1F DUP4 ADD SLT PUSH2 0x15E JUMPI PUSH2 0x15D PUSH2 0x37F JUMP JUMPDEST JUMPDEST DUP2 MLOAD PUSH2 0x16E DUP5 DUP3 PUSH1 0x20 DUP7 ADD PUSH2 0xF2 JUMP JUMPDEST SWAP2 POP POP SWAP3 SWAP2 POP POP JUMP JUMPDEST PUSH1 0x0 PUSH1 0x20 DUP3 DUP5 SUB SLT ISZERO PUSH2 0x18D JUMPI PUSH2 0x18C PUSH2 0x38E JUMP JUMPDEST JUMPDEST PUSH1 0x0 PUSH2 0x19B DUP5 DUP3 DUP6 ADD PUSH2 0x134 JUMP JUMPDEST SWAP2 POP POP SWAP3 SWAP2 POP POP JUMP JUMPDEST PUSH1 0x0 PUSH1 0x20 DUP3 DUP5 SUB SLT ISZERO PUSH2 0x1BA JUMPI PUSH2 0x1B9 PUSH2 0x38E JUMP JUMPDEST JUMPDEST PUSH1 0x0 DUP3 ADD MLOAD PUSH8 0xFFFFFFFFFFFFFFFF DUP2 GT ISZERO PUSH2 0x1D8 JUMPI PUSH2 0x1D7 PUSH2 0x389 JUMP JUMPDEST JUMPDEST PUSH2 0x1E4 DUP5 DUP3 DUP6 ADD PUSH2 0x149 JUMP JUMPDEST SWAP2 POP POP SWAP3 SWAP2 POP POP JUMP JUMPDEST PUSH1 0x0 PUSH2 0x1F8 DUP3 PUSH2 0x29E JUMP JUMPDEST PUSH2 0x202 DUP2 DUP6 PUSH2 0x2A9 JUMP JUMPDEST SWAP4 POP PUSH2 0x212 DUP2 DUP6 PUSH1 0x20 DUP7 ADD PUSH2 0x2EC JUMP JUMPDEST PUSH2 0x21B DUP2 PUSH2 0x393 JUMP JUMPDEST DUP5 ADD SWAP2 POP POP SWAP3 SWAP2 POP POP JUMP JUMPDEST PUSH1 0x0 PUSH1 0x20 DUP3 ADD SWAP1 POP DUP2 DUP2 SUB PUSH1 0x0 DUP4 ADD MSTORE PUSH2 0x240 DUP2 DUP5 PUSH2 0x1ED JUMP JUMPDEST SWAP1 POP SWAP3 SWAP2 POP POP JUMP JUMPDEST PUSH1 0x0 PUSH2 0x252 PUSH2 0x263 JUMP JUMPDEST SWAP1 POP PUSH2 0x25E DUP3 DUP3 PUSH2 0x31F JUMP JUMPDEST SWAP2 SWAP1 POP JUMP JUMPDEST PUSH1 0x0 PUSH1 0x40 MLOAD SWAP1 POP SWAP1 JUMP JUMPDEST PUSH1 0x0 PUSH8 0xFFFFFFFFFFFFFFFF DUP3 GT ISZERO PUSH2 0x288 JUMPI PUSH2 0x287 PUSH2 0x350 JUMP JUMPDEST JUMPDEST PUSH2 0x291 DUP3 PUSH2 0x393 JUMP JUMPDEST SWAP1 POP PUSH1 0x20 DUP2 ADD SWAP1 POP SWAP2 SWAP1 POP JUMP JUMPDEST PUSH1 0x0 DUP2 MLOAD SWAP1 POP SWAP2 SWAP1 POP JUMP JUMPDEST PUSH1 0x0 DUP3 DUP3 MSTORE PUSH1 0x20 DUP3 ADD SWAP1 POP SWAP3 SWAP2 POP POP JUMP JUMPDEST PUSH1 0x0 PUSH2 0x2C5 DUP3 PUSH2 0x2CC JUMP JUMPDEST SWAP1 POP SWAP2 SWAP1 POP JUMP JUMPDEST PUSH1 0x0 PUSH20 0xFFFFFFFFFFFFFFFFFFFFFFFFFFFFFFFFFFFFFFFF DUP3 AND SWAP1 POP SWAP2 SWAP1 POP JUMP JUMPDEST PUSH1 0x0 JUMPDEST DUP4 DUP2 LT ISZERO PUSH2 0x30A JUMPI DUP1 DUP3 ADD MLOAD DUP2 DUP5 ADD MSTORE PUSH1 0x20 DUP2 ADD SWAP1 POP PUSH2 0x2EF JUMP JUMPDEST DUP4 DUP2 GT ISZERO PUSH2 0x319 JUMPI PUSH1 0x0 DUP5 DUP5 ADD MSTORE JUMPDEST POP POP POP POP JUMP JUMPDEST PUSH2 0x328 DUP3 PUSH2 0x393 JUMP JUMPDEST DUP2 ADD DUP2 DUP2 LT PUSH8 0xFFFFFFFFFFFFFFFF DUP3 GT OR ISZERO PUSH2 0x347 JUMPI PUSH2 0x346 PUSH2 0x350 JUMP JUMPDEST JUMPDEST DUP1 PUSH1 0x40 MSTORE POP POP POP JUMP JUMPDEST PUSH32 0x4E487B7100000000000000000000000000000000000000000000000000000000 PUSH1 0x0 MSTORE PUSH1 0x41 PUSH1 0x4 MSTORE PUSH1 0x24 PUSH1 0x0 REVERT JUMPDEST PUSH1 0x0 DUP1 REVERT JUMPDEST PUSH1 0x0 DUP1 REVERT JUMPDEST PUSH1 0x0 DUP1 REVERT JUMPDEST PUSH1 0x0 DUP1 REVERT JUMPDEST PUSH1 0x0 PUSH1 0x1F NOT PUSH1 0x1F DUP4 ADD AND SWAP1 POP SWAP2 SWAP1 POP JUMP JUMPDEST PUSH2 0x3AD DUP2 PUSH2 0x2BA JUMP JUMPDEST DUP2 EQ PUSH2 0x3B8 JUMPI PUSH1 0x0 DUP1 REVERT JUMPDEST POP JUMP INVALID LOG2 PUSH5 0x6970667358 0x22 SLT KECCAK256 0x4E 0x1E 0x5D COINBASE SWAP12 0x27 STATICCALL DUP15 0xB9 0xA6 0xA6 PUSH12 0xB310A96199386998F4DFC77A 0x2E PUSH22 0xA4AA69379E5A64736F6C634300080700330000000000 "
				},
				"gasEstimates": {
					"creation": {
						"codeDepositCost": "201800",
						"executionCost": "245",
						"totalCost": "202045"
					},
					"external": {
						"read(address)": "infinite"
					}
				},
				"methodIdentifiers": {
					"read(address)": "a087a87e"
				}
			},
			"storageLayout": {
				"storage": [],
				"types": null
			},
			"userdoc": {
				"kind": "user",
				"methods": {},
				"version": 1
			}
		}
	}
}