{
	"HelloWorld.sol": {
		"HelloWorld": {
			"abi": [
				{
					"inputs": [],
					"stateMutability": "nonpayable",
					"type": "constructor"
				},
				{
					"inputs": [],
					"name": "helloWorld",
					"outputs": [
						{
							"internalType": "string",
							"name": "",
							"type": "string"
						}
					],
					"stateMutability": "view",
					"type": "function"
				},
				{
					"inputs": [],
					"name": "owner",
					"outputs": [
						{
							"internalType": "address",
							"name": "",
							"type": "address"
						}
					],
					"stateMutability": "view",
					"type": "function"
				},
				{
					"inputs": [
						{
							"internalType": "string",
							"name": "newText",
							"type": "string"
						}
					],
					"name": "setText",
					"outputs": [],
					"stateMutability": "nonpayable",
					"type": "function"
				},
				{
					"inputs": [
						{
							"internalType": "address",
							"name": "newOwner",
							"type": "address"
						}
					],
					"name": "transferOwnership",
					"outputs": [],
					"stateMutability": "nonpayable",
					"type": "function"
				}
			],
			"devdoc": {
				"details": "This is a contract for learning",
				"kind": "dev",
				"methods": {
					"helloWorld()": {
						"returns": {
							"_0": "Value of the string stored in the text variable "
						}
					},
					"setText(string)": {
						"params": {
							"newText": "Text string that is going to replace the text variable"
						}
					}
				},
				"title": "Hello World",
				"version": 1
			},
			"evm": {
				"assembly": "    /* \"HelloWorld.sol\":191:855  contract HelloWorld{... */\n  mstore(0x40, 0x80)\n    /* \"HelloWorld.sol\":260:308  constructor(){... */\n  callvalue\n  dup1\n  iszero\n  tag_1\n  jumpi\n  0x00\n  dup1\n  revert\ntag_1:\n  pop\n    /* \"HelloWorld.sol\":291:301  msg.sender */\n  caller\n    /* \"HelloWorld.sol\":283:288  owner */\n  0x01\n  0x00\n    /* \"HelloWorld.sol\":283:301  owner = msg.sender */\n  0x0100\n  exp\n  dup2\n  sload\n  dup2\n  0xffffffffffffffffffffffffffffffffffffffff\n  mul\n  not\n  and\n  swap1\n  dup4\n  0xffffffffffffffffffffffffffffffffffffffff\n  and\n  mul\n  or\n  swap1\n  sstore\n  pop\n    /* \"HelloWorld.sol\":191:855  contract HelloWorld{... */\n  dataSize(sub_0)\n  dup1\n  dataOffset(sub_0)\n  0x00\n  codecopy\n  0x00\n  return\nstop\n\nsub_0: assembly {\n        /* \"HelloWorld.sol\":191:855  contract HelloWorld{... */\n      mstore(0x40, 0x80)\n      callvalue\n      dup1\n      iszero\n      tag_1\n      jumpi\n      0x00\n      dup1\n      revert\n    tag_1:\n      pop\n      jumpi(tag_2, lt(calldatasize, 0x04))\n      shr(0xe0, calldataload(0x00))\n      dup1\n      0x5d3a1f9d\n      eq\n      tag_3\n      jumpi\n      dup1\n      0x8da5cb5b\n      eq\n      tag_4\n      jumpi\n      dup1\n      0xc605f76c\n      eq\n      tag_5\n      jumpi\n      dup1\n      0xf2fde38b\n      eq\n      tag_6\n      jumpi\n    tag_2:\n      0x00\n      dup1\n      revert\n        /* \"HelloWorld.sol\":546:635  function setText(string calldata newText) public onlyOwner{... */\n    tag_3:\n      tag_7\n      0x04\n      dup1\n      calldatasize\n      sub\n      dup2\n      add\n      swap1\n      tag_8\n      swap2\n      swap1\n      tag_9\n      jump\t// in\n    tag_8:\n      tag_10\n      jump\t// in\n    tag_7:\n      stop\n        /* \"HelloWorld.sol\":233:253  address public owner */\n    tag_4:\n      tag_11\n      tag_12\n      jump\t// in\n    tag_11:\n      mload(0x40)\n      tag_13\n      swap2\n      swap1\n      tag_14\n      jump\t// in\n    tag_13:\n      mload(0x40)\n      dup1\n      swap2\n      sub\n      swap1\n      return\n        /* \"HelloWorld.sol\":379:462  function helloWorld() public view returns(string memory){... */\n    tag_5:\n      tag_15\n      tag_16\n      jump\t// in\n    tag_15:\n      mload(0x40)\n      tag_17\n      swap2\n      swap1\n      tag_18\n      jump\t// in\n    tag_17:\n      mload(0x40)\n      dup1\n      swap2\n      sub\n      swap1\n      return\n        /* \"HelloWorld.sol\":641:737  function transferOwnership (address newOwner) public onlyOwner {... */\n    tag_6:\n      tag_19\n      0x04\n      dup1\n      calldatasize\n      sub\n      dup2\n      add\n      swap1\n      tag_20\n      swap2\n      swap1\n      tag_21\n      jump\t// in\n    tag_20:\n      tag_22\n      jump\t// in\n    tag_19:\n      stop\n        /* \"HelloWorld.sol\":546:635  function setText(string calldata newText) public onlyOwner{... */\n    tag_10:\n        /* \"HelloWorld.sol\":801:806  owner */\n      0x01\n      0x00\n      swap1\n      sload\n      swap1\n      0x0100\n      exp\n      swap1\n      div\n      0xffffffffffffffffffffffffffffffffffffffff\n      and\n        /* \"HelloWorld.sol\":787:806  msg.sender == owner */\n      0xffffffffffffffffffffffffffffffffffffffff\n      and\n        /* \"HelloWorld.sol\":787:797  msg.sender */\n      caller\n        /* \"HelloWorld.sol\":787:806  msg.sender == owner */\n      0xffffffffffffffffffffffffffffffffffffffff\n      and\n      eq\n        /* \"HelloWorld.sol\":778:834  require (msg.sender == owner, \"caller is not the owner\") */\n      tag_24\n      jumpi\n      mload(0x40)\n      0x08c379a000000000000000000000000000000000000000000000000000000000\n      dup2\n      mstore\n      0x04\n      add\n      tag_25\n      swap1\n      tag_26\n      jump\t// in\n    tag_25:\n      mload(0x40)\n      dup1\n      swap2\n      sub\n      swap1\n      revert\n    tag_24:\n        /* \"HelloWorld.sol\":621:628  newText */\n      dup2\n      dup2\n        /* \"HelloWorld.sol\":614:618  text */\n      0x00\n        /* \"HelloWorld.sol\":614:628  text = newText */\n      swap2\n      swap1\n      tag_28\n      swap3\n      swap2\n      swap1\n      tag_29\n      jump\t// in\n    tag_28:\n      pop\n        /* \"HelloWorld.sol\":546:635  function setText(string calldata newText) public onlyOwner{... */\n      pop\n      pop\n      jump\t// out\n        /* \"HelloWorld.sol\":233:253  address public owner */\n    tag_12:\n      0x01\n      0x00\n      swap1\n      sload\n      swap1\n      0x0100\n      exp\n      swap1\n      div\n      0xffffffffffffffffffffffffffffffffffffffff\n      and\n      dup2\n      jump\t// out\n        /* \"HelloWorld.sol\":379:462  function helloWorld() public view returns(string memory){... */\n    tag_16:\n        /* \"HelloWorld.sol\":421:434  string memory */\n      0x60\n        /* \"HelloWorld.sol\":451:455  text */\n      0x00\n        /* \"HelloWorld.sol\":444:455  return text */\n      dup1\n      sload\n      tag_31\n      swap1\n      tag_32\n      jump\t// in\n    tag_31:\n      dup1\n      0x1f\n      add\n      0x20\n      dup1\n      swap2\n      div\n      mul\n      0x20\n      add\n      mload(0x40)\n      swap1\n      dup2\n      add\n      0x40\n      mstore\n      dup1\n      swap3\n      swap2\n      swap1\n      dup2\n      dup2\n      mstore\n      0x20\n      add\n      dup3\n      dup1\n      sload\n      tag_33\n      swap1\n      tag_32\n      jump\t// in\n    tag_33:\n      dup1\n      iszero\n      tag_34\n      jumpi\n      dup1\n      0x1f\n      lt\n      tag_35\n      jumpi\n      0x0100\n      dup1\n      dup4\n      sload\n      div\n      mul\n      dup4\n      mstore\n      swap2\n      0x20\n      add\n      swap2\n      jump(tag_34)\n    tag_35:\n      dup3\n      add\n      swap2\n      swap1\n      0x00\n      mstore\n      keccak256(0x00, 0x20)\n      swap1\n    tag_36:\n      dup2\n      sload\n      dup2\n      mstore\n      swap1\n      0x01\n      add\n      swap1\n      0x20\n      add\n      dup1\n      dup4\n      gt\n      tag_36\n      jumpi\n      dup3\n      swap1\n      sub\n      0x1f\n      and\n      dup3\n      add\n      swap2\n    tag_34:\n      pop\n      pop\n      pop\n      pop\n      pop\n      swap1\n      pop\n        /* \"HelloWorld.sol\":379:462  function helloWorld() public view returns(string memory){... */\n      swap1\n      jump\t// out\n        /* \"HelloWorld.sol\":641:737  function transferOwnership (address newOwner) public onlyOwner {... */\n    tag_22:\n        /* \"HelloWorld.sol\":801:806  owner */\n      0x01\n      0x00\n      swap1\n      sload\n      swap1\n      0x0100\n      exp\n      swap1\n      div\n      0xffffffffffffffffffffffffffffffffffffffff\n      and\n        /* \"HelloWorld.sol\":787:806  msg.sender == owner */\n      0xffffffffffffffffffffffffffffffffffffffff\n      and\n        /* \"HelloWorld.sol\":787:797  msg.sender */\n      caller\n        /* \"HelloWorld.sol\":787:806  msg.sender == owner */\n      0xffffffffffffffffffffffffffffffffffffffff\n      and\n      eq\n        /* \"HelloWorld.sol\":778:834  require (msg.sender == owner, \"caller is not the owner\") */\n      tag_38\n      jumpi\n      mload(0x40)\n      0x08c379a000000000000000000000000000000000000000000000000000000000\n      dup2\n      mstore\n      0x04\n      add\n      tag_39\n      swap1\n      tag_26\n      jump\t// in\n    tag_39:\n      mload(0x40)\n      dup1\n      swap2\n      sub\n      swap1\n      revert\n    tag_38:\n        /* \"HelloWorld.sol\":722:730  newOwner */\n      dup1\n        /* \"HelloWorld.sol\":714:719  owner */\n      0x01\n      0x00\n        /* \"HelloWorld.sol\":714:730  owner = newOwner */\n      0x0100\n      exp\n      dup2\n      sload\n      dup2\n      0xffffffffffffffffffffffffffffffffffffffff\n      mul\n      not\n      and\n      swap1\n      dup4\n      0xffffffffffffffffffffffffffffffffffffffff\n      and\n      mul\n      or\n      swap1\n      sstore\n      pop\n        /* \"HelloWorld.sol\":641:737  function transferOwnership (address newOwner) public onlyOwner {... */\n      pop\n      jump\t// out\n    tag_29:\n      dup3\n      dup1\n      sload\n      tag_41\n      swap1\n      tag_32\n      jump\t// in\n    tag_41:\n      swap1\n      0x00\n      mstore\n      keccak256(0x00, 0x20)\n      swap1\n      0x1f\n      add\n      0x20\n      swap1\n      div\n      dup2\n      add\n      swap3\n      dup3\n      tag_43\n      jumpi\n      0x00\n      dup6\n      sstore\n      jump(tag_42)\n    tag_43:\n      dup3\n      0x1f\n      lt\n      tag_44\n      jumpi\n      dup1\n      calldataload\n      not(0xff)\n      and\n      dup4\n      dup1\n      add\n      or\n      dup6\n      sstore\n      jump(tag_42)\n    tag_44:\n      dup3\n      dup1\n      add\n      0x01\n      add\n      dup6\n      sstore\n      dup3\n      iszero\n      tag_42\n      jumpi\n      swap2\n      dup3\n      add\n    tag_45:\n      dup3\n      dup2\n      gt\n      iszero\n      tag_46\n      jumpi\n      dup3\n      calldataload\n      dup3\n      sstore\n      swap2\n      0x20\n      add\n      swap2\n      swap1\n      0x01\n      add\n      swap1\n      jump(tag_45)\n    tag_46:\n    tag_42:\n      pop\n      swap1\n      pop\n      tag_47\n      swap2\n      swap1\n      tag_48\n      jump\t// in\n    tag_47:\n      pop\n      swap1\n      jump\t// out\n    tag_48:\n    tag_49:\n      dup1\n      dup3\n      gt\n      iszero\n      tag_50\n      jumpi\n      0x00\n      dup2\n      0x00\n      swap1\n      sstore\n      pop\n      0x01\n      add\n      jump(tag_49)\n    tag_50:\n      pop\n      swap1\n      jump\t// out\n        /* \"#utility.yul\":7:146   */\n    tag_52:\n        /* \"#utility.yul\":53:58   */\n      0x00\n        /* \"#utility.yul\":91:97   */\n      dup2\n        /* \"#utility.yul\":78:98   */\n      calldataload\n        /* \"#utility.yul\":69:98   */\n      swap1\n      pop\n        /* \"#utility.yul\":107:140   */\n      tag_54\n        /* \"#utility.yul\":134:139   */\n      dup2\n        /* \"#utility.yul\":107:140   */\n      tag_55\n      jump\t// in\n    tag_54:\n        /* \"#utility.yul\":7:146   */\n      swap3\n      swap2\n      pop\n      pop\n      jump\t// out\n        /* \"#utility.yul\":166:719   */\n    tag_56:\n        /* \"#utility.yul\":224:232   */\n      0x00\n        /* \"#utility.yul\":234:240   */\n      dup1\n        /* \"#utility.yul\":284:287   */\n      dup4\n        /* \"#utility.yul\":277:281   */\n      0x1f\n        /* \"#utility.yul\":269:275   */\n      dup5\n        /* \"#utility.yul\":265:282   */\n      add\n        /* \"#utility.yul\":261:288   */\n      slt\n        /* \"#utility.yul\":251:373   */\n      tag_58\n      jumpi\n        /* \"#utility.yul\":292:371   */\n      tag_59\n      tag_60\n      jump\t// in\n    tag_59:\n        /* \"#utility.yul\":251:373   */\n    tag_58:\n        /* \"#utility.yul\":405:411   */\n      dup3\n        /* \"#utility.yul\":392:412   */\n      calldataload\n        /* \"#utility.yul\":382:412   */\n      swap1\n      pop\n        /* \"#utility.yul\":435:453   */\n      0xffffffffffffffff\n        /* \"#utility.yul\":427:433   */\n      dup2\n        /* \"#utility.yul\":424:454   */\n      gt\n        /* \"#utility.yul\":421:538   */\n      iszero\n      tag_61\n      jumpi\n        /* \"#utility.yul\":457:536   */\n      tag_62\n      tag_63\n      jump\t// in\n    tag_62:\n        /* \"#utility.yul\":421:538   */\n    tag_61:\n        /* \"#utility.yul\":571:575   */\n      0x20\n        /* \"#utility.yul\":563:569   */\n      dup4\n        /* \"#utility.yul\":559:576   */\n      add\n        /* \"#utility.yul\":547:576   */\n      swap2\n      pop\n        /* \"#utility.yul\":625:628   */\n      dup4\n        /* \"#utility.yul\":617:621   */\n      0x01\n        /* \"#utility.yul\":609:615   */\n      dup3\n        /* \"#utility.yul\":605:622   */\n      mul\n        /* \"#utility.yul\":595:603   */\n      dup4\n        /* \"#utility.yul\":591:623   */\n      add\n        /* \"#utility.yul\":588:629   */\n      gt\n        /* \"#utility.yul\":585:713   */\n      iszero\n      tag_64\n      jumpi\n        /* \"#utility.yul\":632:711   */\n      tag_65\n      tag_66\n      jump\t// in\n    tag_65:\n        /* \"#utility.yul\":585:713   */\n    tag_64:\n        /* \"#utility.yul\":166:719   */\n      swap3\n      pop\n      swap3\n      swap1\n      pop\n      jump\t// out\n        /* \"#utility.yul\":725:1054   */\n    tag_21:\n        /* \"#utility.yul\":784:790   */\n      0x00\n        /* \"#utility.yul\":833:835   */\n      0x20\n        /* \"#utility.yul\":821:830   */\n      dup3\n        /* \"#utility.yul\":812:819   */\n      dup5\n        /* \"#utility.yul\":808:831   */\n      sub\n        /* \"#utility.yul\":804:836   */\n      slt\n        /* \"#utility.yul\":801:920   */\n      iszero\n      tag_68\n      jumpi\n        /* \"#utility.yul\":839:918   */\n      tag_69\n      tag_70\n      jump\t// in\n    tag_69:\n        /* \"#utility.yul\":801:920   */\n    tag_68:\n        /* \"#utility.yul\":959:960   */\n      0x00\n        /* \"#utility.yul\":984:1037   */\n      tag_71\n        /* \"#utility.yul\":1029:1036   */\n      dup5\n        /* \"#utility.yul\":1020:1026   */\n      dup3\n        /* \"#utility.yul\":1009:1018   */\n      dup6\n        /* \"#utility.yul\":1005:1027   */\n      add\n        /* \"#utility.yul\":984:1037   */\n      tag_52\n      jump\t// in\n    tag_71:\n        /* \"#utility.yul\":974:1037   */\n      swap2\n      pop\n        /* \"#utility.yul\":930:1047   */\n      pop\n        /* \"#utility.yul\":725:1054   */\n      swap3\n      swap2\n      pop\n      pop\n      jump\t// out\n        /* \"#utility.yul\":1060:1589   */\n    tag_9:\n        /* \"#utility.yul\":1131:1137   */\n      0x00\n        /* \"#utility.yul\":1139:1145   */\n      dup1\n        /* \"#utility.yul\":1188:1190   */\n      0x20\n        /* \"#utility.yul\":1176:1185   */\n      dup4\n        /* \"#utility.yul\":1167:1174   */\n      dup6\n        /* \"#utility.yul\":1163:1186   */\n      sub\n        /* \"#utility.yul\":1159:1191   */\n      slt\n        /* \"#utility.yul\":1156:1275   */\n      iszero\n      tag_73\n      jumpi\n        /* \"#utility.yul\":1194:1273   */\n      tag_74\n      tag_70\n      jump\t// in\n    tag_74:\n        /* \"#utility.yul\":1156:1275   */\n    tag_73:\n        /* \"#utility.yul\":1342:1343   */\n      0x00\n        /* \"#utility.yul\":1331:1340   */\n      dup4\n        /* \"#utility.yul\":1327:1344   */\n      add\n        /* \"#utility.yul\":1314:1345   */\n      calldataload\n        /* \"#utility.yul\":1372:1390   */\n      0xffffffffffffffff\n        /* \"#utility.yul\":1364:1370   */\n      dup2\n        /* \"#utility.yul\":1361:1391   */\n      gt\n        /* \"#utility.yul\":1358:1475   */\n      iszero\n      tag_75\n      jumpi\n        /* \"#utility.yul\":1394:1473   */\n      tag_76\n      tag_77\n      jump\t// in\n    tag_76:\n        /* \"#utility.yul\":1358:1475   */\n    tag_75:\n        /* \"#utility.yul\":1507:1572   */\n      tag_78\n        /* \"#utility.yul\":1564:1571   */\n      dup6\n        /* \"#utility.yul\":1555:1561   */\n      dup3\n        /* \"#utility.yul\":1544:1553   */\n      dup7\n        /* \"#utility.yul\":1540:1562   */\n      add\n        /* \"#utility.yul\":1507:1572   */\n      tag_56\n      jump\t// in\n    tag_78:\n        /* \"#utility.yul\":1489:1572   */\n      swap3\n      pop\n      swap3\n      pop\n        /* \"#utility.yul\":1285:1582   */\n      pop\n        /* \"#utility.yul\":1060:1589   */\n      swap3\n      pop\n      swap3\n      swap1\n      pop\n      jump\t// out\n        /* \"#utility.yul\":1595:1713   */\n    tag_79:\n        /* \"#utility.yul\":1682:1706   */\n      tag_81\n        /* \"#utility.yul\":1700:1705   */\n      dup2\n        /* \"#utility.yul\":1682:1706   */\n      tag_82\n      jump\t// in\n    tag_81:\n        /* \"#utility.yul\":1677:1680   */\n      dup3\n        /* \"#utility.yul\":1670:1707   */\n      mstore\n        /* \"#utility.yul\":1595:1713   */\n      pop\n      pop\n      jump\t// out\n        /* \"#utility.yul\":1719:2083   */\n    tag_83:\n        /* \"#utility.yul\":1807:1810   */\n      0x00\n        /* \"#utility.yul\":1835:1874   */\n      tag_85\n        /* \"#utility.yul\":1868:1873   */\n      dup3\n        /* \"#utility.yul\":1835:1874   */\n      tag_86\n      jump\t// in\n    tag_85:\n        /* \"#utility.yul\":1890:1961   */\n      tag_87\n        /* \"#utility.yul\":1954:1960   */\n      dup2\n        /* \"#utility.yul\":1949:1952   */\n      dup6\n        /* \"#utility.yul\":1890:1961   */\n      tag_88\n      jump\t// in\n    tag_87:\n        /* \"#utility.yul\":1883:1961   */\n      swap4\n      pop\n        /* \"#utility.yul\":1970:2022   */\n      tag_89\n        /* \"#utility.yul\":2015:2021   */\n      dup2\n        /* \"#utility.yul\":2010:2013   */\n      dup6\n        /* \"#utility.yul\":2003:2007   */\n      0x20\n        /* \"#utility.yul\":1996:2001   */\n      dup7\n        /* \"#utility.yul\":1992:2008   */\n      add\n        /* \"#utility.yul\":1970:2022   */\n      tag_90\n      jump\t// in\n    tag_89:\n        /* \"#utility.yul\":2047:2076   */\n      tag_91\n        /* \"#utility.yul\":2069:2075   */\n      dup2\n        /* \"#utility.yul\":2047:2076   */\n      tag_92\n      jump\t// in\n    tag_91:\n        /* \"#utility.yul\":2042:2045   */\n      dup5\n        /* \"#utility.yul\":2038:2077   */\n      add\n        /* \"#utility.yul\":2031:2077   */\n      swap2\n      pop\n        /* \"#utility.yul\":1811:2083   */\n      pop\n        /* \"#utility.yul\":1719:2083   */\n      swap3\n      swap2\n      pop\n      pop\n      jump\t// out\n        /* \"#utility.yul\":2089:2455   */\n    tag_93:\n        /* \"#utility.yul\":2231:2234   */\n      0x00\n        /* \"#utility.yul\":2252:2319   */\n      tag_95\n        /* \"#utility.yul\":2316:2318   */\n      0x17\n        /* \"#utility.yul\":2311:2314   */\n      dup4\n        /* \"#utility.yul\":2252:2319   */\n      tag_88\n      jump\t// in\n    tag_95:\n        /* \"#utility.yul\":2245:2319   */\n      swap2\n      pop\n        /* \"#utility.yul\":2328:2421   */\n      tag_96\n        /* \"#utility.yul\":2417:2420   */\n      dup3\n        /* \"#utility.yul\":2328:2421   */\n      tag_97\n      jump\t// in\n    tag_96:\n        /* \"#utility.yul\":2446:2448   */\n      0x20\n        /* \"#utility.yul\":2441:2444   */\n      dup3\n        /* \"#utility.yul\":2437:2449   */\n      add\n        /* \"#utility.yul\":2430:2449   */\n      swap1\n      pop\n        /* \"#utility.yul\":2089:2455   */\n      swap2\n      swap1\n      pop\n      jump\t// out\n        /* \"#utility.yul\":2461:2683   */\n    tag_14:\n        /* \"#utility.yul\":2554:2558   */\n      0x00\n        /* \"#utility.yul\":2592:2594   */\n      0x20\n        /* \"#utility.yul\":2581:2590   */\n      dup3\n        /* \"#utility.yul\":2577:2595   */\n      add\n        /* \"#utility.yul\":2569:2595   */\n      swap1\n      pop\n        /* \"#utility.yul\":2605:2676   */\n      tag_99\n        /* \"#utility.yul\":2673:2674   */\n      0x00\n        /* \"#utility.yul\":2662:2671   */\n      dup4\n        /* \"#utility.yul\":2658:2675   */\n      add\n        /* \"#utility.yul\":2649:2655   */\n      dup5\n        /* \"#utility.yul\":2605:2676   */\n      tag_79\n      jump\t// in\n    tag_99:\n        /* \"#utility.yul\":2461:2683   */\n      swap3\n      swap2\n      pop\n      pop\n      jump\t// out\n        /* \"#utility.yul\":2689:3002   */\n    tag_18:\n        /* \"#utility.yul\":2802:2806   */\n      0x00\n        /* \"#utility.yul\":2840:2842   */\n      0x20\n        /* \"#utility.yul\":2829:2838   */\n      dup3\n        /* \"#utility.yul\":2825:2843   */\n      add\n        /* \"#utility.yul\":2817:2843   */\n      swap1\n      pop\n        /* \"#utility.yul\":2889:2898   */\n      dup2\n        /* \"#utility.yul\":2883:2887   */\n      dup2\n        /* \"#utility.yul\":2879:2899   */\n      sub\n        /* \"#utility.yul\":2875:2876   */\n      0x00\n        /* \"#utility.yul\":2864:2873   */\n      dup4\n        /* \"#utility.yul\":2860:2877   */\n      add\n        /* \"#utility.yul\":2853:2900   */\n      mstore\n        /* \"#utility.yul\":2917:2995   */\n      tag_101\n        /* \"#utility.yul\":2990:2994   */\n      dup2\n        /* \"#utility.yul\":2981:2987   */\n      dup5\n        /* \"#utility.yul\":2917:2995   */\n      tag_83\n      jump\t// in\n    tag_101:\n        /* \"#utility.yul\":2909:2995   */\n      swap1\n      pop\n        /* \"#utility.yul\":2689:3002   */\n      swap3\n      swap2\n      pop\n      pop\n      jump\t// out\n        /* \"#utility.yul\":3008:3427   */\n    tag_26:\n        /* \"#utility.yul\":3174:3178   */\n      0x00\n        /* \"#utility.yul\":3212:3214   */\n      0x20\n        /* \"#utility.yul\":3201:3210   */\n      dup3\n        /* \"#utility.yul\":3197:3215   */\n      add\n        /* \"#utility.yul\":3189:3215   */\n      swap1\n      pop\n        /* \"#utility.yul\":3261:3270   */\n      dup2\n        /* \"#utility.yul\":3255:3259   */\n      dup2\n        /* \"#utility.yul\":3251:3271   */\n      sub\n        /* \"#utility.yul\":3247:3248   */\n      0x00\n        /* \"#utility.yul\":3236:3245   */\n      dup4\n        /* \"#utility.yul\":3232:3249   */\n      add\n        /* \"#utility.yul\":3225:3272   */\n      mstore\n        /* \"#utility.yul\":3289:3420   */\n      tag_103\n        /* \"#utility.yul\":3415:3419   */\n      dup2\n        /* \"#utility.yul\":3289:3420   */\n      tag_93\n      jump\t// in\n    tag_103:\n        /* \"#utility.yul\":3281:3420   */\n      swap1\n      pop\n        /* \"#utility.yul\":3008:3427   */\n      swap2\n      swap1\n      pop\n      jump\t// out\n        /* \"#utility.yul\":3514:3613   */\n    tag_86:\n        /* \"#utility.yul\":3566:3572   */\n      0x00\n        /* \"#utility.yul\":3600:3605   */\n      dup2\n        /* \"#utility.yul\":3594:3606   */\n      mload\n        /* \"#utility.yul\":3584:3606   */\n      swap1\n      pop\n        /* \"#utility.yul\":3514:3613   */\n      swap2\n      swap1\n      pop\n      jump\t// out\n        /* \"#utility.yul\":3619:3788   */\n    tag_88:\n        /* \"#utility.yul\":3703:3714   */\n      0x00\n        /* \"#utility.yul\":3737:3743   */\n      dup3\n        /* \"#utility.yul\":3732:3735   */\n      dup3\n        /* \"#utility.yul\":3725:3744   */\n      mstore\n        /* \"#utility.yul\":3777:3781   */\n      0x20\n        /* \"#utility.yul\":3772:3775   */\n      dup3\n        /* \"#utility.yul\":3768:3782   */\n      add\n        /* \"#utility.yul\":3753:3782   */\n      swap1\n      pop\n        /* \"#utility.yul\":3619:3788   */\n      swap3\n      swap2\n      pop\n      pop\n      jump\t// out\n        /* \"#utility.yul\":3794:3890   */\n    tag_82:\n        /* \"#utility.yul\":3831:3838   */\n      0x00\n        /* \"#utility.yul\":3860:3884   */\n      tag_109\n        /* \"#utility.yul\":3878:3883   */\n      dup3\n        /* \"#utility.yul\":3860:3884   */\n      tag_110\n      jump\t// in\n    tag_109:\n        /* \"#utility.yul\":3849:3884   */\n      swap1\n      pop\n        /* \"#utility.yul\":3794:3890   */\n      swap2\n      swap1\n      pop\n      jump\t// out\n        /* \"#utility.yul\":3896:4022   */\n    tag_110:\n        /* \"#utility.yul\":3933:3940   */\n      0x00\n        /* \"#utility.yul\":3973:4015   */\n      0xffffffffffffffffffffffffffffffffffffffff\n        /* \"#utility.yul\":3966:3971   */\n      dup3\n        /* \"#utility.yul\":3962:4016   */\n      and\n        /* \"#utility.yul\":3951:4016   */\n      swap1\n      pop\n        /* \"#utility.yul\":3896:4022   */\n      swap2\n      swap1\n      pop\n      jump\t// out\n        /* \"#utility.yul\":4028:4335   */\n    tag_90:\n        /* \"#utility.yul\":4096:4097   */\n      0x00\n        /* \"#utility.yul\":4106:4219   */\n    tag_113:\n        /* \"#utility.yul\":4120:4126   */\n      dup4\n        /* \"#utility.yul\":4117:4118   */\n      dup2\n        /* \"#utility.yul\":4114:4127   */\n      lt\n        /* \"#utility.yul\":4106:4219   */\n      iszero\n      tag_115\n      jumpi\n        /* \"#utility.yul\":4205:4206   */\n      dup1\n        /* \"#utility.yul\":4200:4203   */\n      dup3\n        /* \"#utility.yul\":4196:4207   */\n      add\n        /* \"#utility.yul\":4190:4208   */\n      mload\n        /* \"#utility.yul\":4186:4187   */\n      dup2\n        /* \"#utility.yul\":4181:4184   */\n      dup5\n        /* \"#utility.yul\":4177:4188   */\n      add\n        /* \"#utility.yul\":4170:4209   */\n      mstore\n        /* \"#utility.yul\":4142:4144   */\n      0x20\n        /* \"#utility.yul\":4139:4140   */\n      dup2\n        /* \"#utility.yul\":4135:4145   */\n      add\n        /* \"#utility.yul\":4130:4145   */\n      swap1\n      pop\n        /* \"#utility.yul\":4106:4219   */\n      jump(tag_113)\n    tag_115:\n        /* \"#utility.yul\":4237:4243   */\n      dup4\n        /* \"#utility.yul\":4234:4235   */\n      dup2\n        /* \"#utility.yul\":4231:4244   */\n      gt\n        /* \"#utility.yul\":4228:4329   */\n      iszero\n      tag_116\n      jumpi\n        /* \"#utility.yul\":4317:4318   */\n      0x00\n        /* \"#utility.yul\":4308:4314   */\n      dup5\n        /* \"#utility.yul\":4303:4306   */\n      dup5\n        /* \"#utility.yul\":4299:4315   */\n      add\n        /* \"#utility.yul\":4292:4319   */\n      mstore\n        /* \"#utility.yul\":4228:4329   */\n    tag_116:\n        /* \"#utility.yul\":4077:4335   */\n      pop\n        /* \"#utility.yul\":4028:4335   */\n      pop\n      pop\n      pop\n      jump\t// out\n        /* \"#utility.yul\":4341:4661   */\n    tag_32:\n        /* \"#utility.yul\":4385:4391   */\n      0x00\n        /* \"#utility.yul\":4422:4423   */\n      0x02\n        /* \"#utility.yul\":4416:4420   */\n      dup3\n        /* \"#utility.yul\":4412:4424   */\n      div\n        /* \"#utility.yul\":4402:4424   */\n      swap1\n      pop\n        /* \"#utility.yul\":4469:4470   */\n      0x01\n        /* \"#utility.yul\":4463:4467   */\n      dup3\n        /* \"#utility.yul\":4459:4471   */\n      and\n        /* \"#utility.yul\":4490:4508   */\n      dup1\n        /* \"#utility.yul\":4480:4561   */\n      tag_118\n      jumpi\n        /* \"#utility.yul\":4546:4550   */\n      0x7f\n        /* \"#utility.yul\":4538:4544   */\n      dup3\n        /* \"#utility.yul\":4534:4551   */\n      and\n        /* \"#utility.yul\":4524:4551   */\n      swap2\n      pop\n        /* \"#utility.yul\":4480:4561   */\n    tag_118:\n        /* \"#utility.yul\":4608:4610   */\n      0x20\n        /* \"#utility.yul\":4600:4606   */\n      dup3\n        /* \"#utility.yul\":4597:4611   */\n      lt\n        /* \"#utility.yul\":4577:4595   */\n      dup2\n        /* \"#utility.yul\":4574:4612   */\n      eq\n        /* \"#utility.yul\":4571:4655   */\n      iszero\n      tag_119\n      jumpi\n        /* \"#utility.yul\":4627:4645   */\n      tag_120\n      tag_121\n      jump\t// in\n    tag_120:\n        /* \"#utility.yul\":4571:4655   */\n    tag_119:\n        /* \"#utility.yul\":4392:4661   */\n      pop\n        /* \"#utility.yul\":4341:4661   */\n      swap2\n      swap1\n      pop\n      jump\t// out\n        /* \"#utility.yul\":4667:4847   */\n    tag_121:\n        /* \"#utility.yul\":4715:4792   */\n      0x4e487b7100000000000000000000000000000000000000000000000000000000\n        /* \"#utility.yul\":4712:4713   */\n      0x00\n        /* \"#utility.yul\":4705:4793   */\n      mstore\n        /* \"#utility.yul\":4812:4816   */\n      0x22\n        /* \"#utility.yul\":4809:4810   */\n      0x04\n        /* \"#utility.yul\":4802:4817   */\n      mstore\n        /* \"#utility.yul\":4836:4840   */\n      0x24\n        /* \"#utility.yul\":4833:4834   */\n      0x00\n        /* \"#utility.yul\":4826:4841   */\n      revert\n        /* \"#utility.yul\":4853:4970   */\n    tag_63:\n        /* \"#utility.yul\":4962:4963   */\n      0x00\n        /* \"#utility.yul\":4959:4960   */\n      dup1\n        /* \"#utility.yul\":4952:4964   */\n      revert\n        /* \"#utility.yul\":4976:5093   */\n    tag_60:\n        /* \"#utility.yul\":5085:5086   */\n      0x00\n        /* \"#utility.yul\":5082:5083   */\n      dup1\n        /* \"#utility.yul\":5075:5087   */\n      revert\n        /* \"#utility.yul\":5099:5216   */\n    tag_66:\n        /* \"#utility.yul\":5208:5209   */\n      0x00\n        /* \"#utility.yul\":5205:5206   */\n      dup1\n        /* \"#utility.yul\":5198:5210   */\n      revert\n        /* \"#utility.yul\":5222:5339   */\n    tag_77:\n        /* \"#utility.yul\":5331:5332   */\n      0x00\n        /* \"#utility.yul\":5328:5329   */\n      dup1\n        /* \"#utility.yul\":5321:5333   */\n      revert\n        /* \"#utility.yul\":5345:5462   */\n    tag_70:\n        /* \"#utility.yul\":5454:5455   */\n      0x00\n        /* \"#utility.yul\":5451:5452   */\n      dup1\n        /* \"#utility.yul\":5444:5456   */\n      revert\n        /* \"#utility.yul\":5468:5570   */\n    tag_92:\n        /* \"#utility.yul\":5509:5515   */\n      0x00\n        /* \"#utility.yul\":5560:5562   */\n      0x1f\n        /* \"#utility.yul\":5556:5563   */\n      not\n        /* \"#utility.yul\":5551:5553   */\n      0x1f\n        /* \"#utility.yul\":5544:5549   */\n      dup4\n        /* \"#utility.yul\":5540:5554   */\n      add\n        /* \"#utility.yul\":5536:5564   */\n      and\n        /* \"#utility.yul\":5526:5564   */\n      swap1\n      pop\n        /* \"#utility.yul\":5468:5570   */\n      swap2\n      swap1\n      pop\n      jump\t// out\n        /* \"#utility.yul\":5576:5749   */\n    tag_97:\n        /* \"#utility.yul\":5716:5741   */\n      0x63616c6c6572206973206e6f7420746865206f776e6572000000000000000000\n        /* \"#utility.yul\":5712:5713   */\n      0x00\n        /* \"#utility.yul\":5704:5710   */\n      dup3\n        /* \"#utility.yul\":5700:5714   */\n      add\n        /* \"#utility.yul\":5693:5742   */\n      mstore\n        /* \"#utility.yul\":5576:5749   */\n      pop\n      jump\t// out\n        /* \"#utility.yul\":5755:5877   */\n    tag_55:\n        /* \"#utility.yul\":5828:5852   */\n      tag_131\n        /* \"#utility.yul\":5846:5851   */\n      dup2\n        /* \"#utility.yul\":5828:5852   */\n      tag_82\n      jump\t// in\n    tag_131:\n        /* \"#utility.yul\":5821:5826   */\n      dup2\n        /* \"#utility.yul\":5818:5853   */\n      eq\n        /* \"#utility.yul\":5808:5871   */\n      tag_132\n      jumpi\n        /* \"#utility.yul\":5867:5868   */\n      0x00\n        /* \"#utility.yul\":5864:5865   */\n      dup1\n        /* \"#utility.yul\":5857:5869   */\n      revert\n        /* \"#utility.yul\":5808:5871   */\n    tag_132:\n        /* \"#utility.yul\":5755:5877   */\n      pop\n      jump\t// out\n\n    auxdata: 0xa264697066735822122037309a45f452315ac8815cba2762fbc139471a8a3f1c0d49dee1d65b2e2efae764736f6c63430008070033\n}\n",
				"bytecode": {
					"linkReferences": {},
					"object": "608060405234801561001057600080fd5b5033600160006101000a81548173ffffffffffffffffffffffffffffffffffffffff021916908373ffffffffffffffffffffffffffffffffffffffff1602179055506106c9806100616000396000f3fe608060405234801561001057600080fd5b506004361061004c5760003560e01c80635d3a1f9d146100515780638da5cb5b1461006d578063c605f76c1461008b578063f2fde38b146100a9575b600080fd5b61006b60048036038101906100669190610432565b6100c5565b005b61007561016b565b60405161008291906104ea565b60405180910390f35b610093610191565b6040516100a09190610505565b60405180910390f35b6100c360048036038101906100be9190610405565b610223565b005b600160009054906101000a900473ffffffffffffffffffffffffffffffffffffffff1673ffffffffffffffffffffffffffffffffffffffff163373ffffffffffffffffffffffffffffffffffffffff1614610155576040517f08c379a000000000000000000000000000000000000000000000000000000000815260040161014c90610527565b60405180910390fd5b8181600091906101669291906102f7565b505050565b600160009054906101000a900473ffffffffffffffffffffffffffffffffffffffff1681565b6060600080546101a0906105c8565b80601f01602080910402602001604051908101604052809291908181526020018280546101cc906105c8565b80156102195780601f106101ee57610100808354040283529160200191610219565b820191906000526020600020905b8154815290600101906020018083116101fc57829003601f168201915b5050505050905090565b600160009054906101000a900473ffffffffffffffffffffffffffffffffffffffff1673ffffffffffffffffffffffffffffffffffffffff163373ffffffffffffffffffffffffffffffffffffffff16146102b3576040517f08c379a00000000000000000000000000000000000000000000000000000000081526004016102aa90610527565b60405180910390fd5b80600160006101000a81548173ffffffffffffffffffffffffffffffffffffffff021916908373ffffffffffffffffffffffffffffffffffffffff16021790555050565b828054610303906105c8565b90600052602060002090601f016020900481019282610325576000855561036c565b82601f1061033e57803560ff191683800117855561036c565b8280016001018555821561036c579182015b8281111561036b578235825591602001919060010190610350565b5b509050610379919061037d565b5090565b5b8082111561039657600081600090555060010161037e565b5090565b6000813590506103a98161067c565b92915050565b60008083601f8401126103c5576103c461062e565b5b8235905067ffffffffffffffff8111156103e2576103e1610629565b5b6020830191508360018202830111156103fe576103fd610633565b5b9250929050565b60006020828403121561041b5761041a61063d565b5b60006104298482850161039a565b91505092915050565b600080602083850312156104495761044861063d565b5b600083013567ffffffffffffffff81111561046757610466610638565b5b610473858286016103af565b92509250509250929050565b61048881610563565b82525050565b600061049982610547565b6104a38185610552565b93506104b3818560208601610595565b6104bc81610642565b840191505092915050565b60006104d4601783610552565b91506104df82610653565b602082019050919050565b60006020820190506104ff600083018461047f565b92915050565b6000602082019050818103600083015261051f818461048e565b905092915050565b60006020820190508181036000830152610540816104c7565b9050919050565b600081519050919050565b600082825260208201905092915050565b600061056e82610575565b9050919050565b600073ffffffffffffffffffffffffffffffffffffffff82169050919050565b60005b838110156105b3578082015181840152602081019050610598565b838111156105c2576000848401525b50505050565b600060028204905060018216806105e057607f821691505b602082108114156105f4576105f36105fa565b5b50919050565b7f4e487b7100000000000000000000000000000000000000000000000000000000600052602260045260246000fd5b600080fd5b600080fd5b600080fd5b600080fd5b600080fd5b6000601f19601f8301169050919050565b7f63616c6c6572206973206e6f7420746865206f776e6572000000000000000000600082015250565b61068581610563565b811461069057600080fd5b5056fea264697066735822122037309a45f452315ac8815cba2762fbc139471a8a3f1c0d49dee1d65b2e2efae764736f6c63430008070033",
					"opcodes": "PUSH1 0x80 PUSH1 0x40 MSTORE CALLVALUE DUP1 ISZERO PUSH2 0x10 JUMPI PUSH1 0x0 DUP1 REVERT JUMPDEST POP CALLER PUSH1 0x1 PUSH1 0x0 PUSH2 0x100 EXP DUP2 SLOAD DUP2 PUSH20 0xFFFFFFFFFFFFFFFFFFFFFFFFFFFFFFFFFFFFFFFF MUL NOT AND SWAP1 DUP4 PUSH20 0xFFFFFFFFFFFFFFFFFFFFFFFFFFFFFFFFFFFFFFFF AND MUL OR SWAP1 SSTORE POP PUSH2 0x6C9 DUP1 PUSH2 0x61 PUSH1 0x0 CODECOPY PUSH1 0x0 RETURN INVALID PUSH1 0x80 PUSH1 0x40 MSTORE CALLVALUE DUP1 ISZERO PUSH2 0x10 JUMPI PUSH1 0x0 DUP1 REVERT JUMPDEST POP PUSH1 0x4 CALLDATASIZE LT PUSH2 0x4C JUMPI PUSH1 0x0 CALLDATALOAD PUSH1 0xE0 SHR DUP1 PUSH4 0x5D3A1F9D EQ PUSH2 0x51 JUMPI DUP1 PUSH4 0x8DA5CB5B EQ PUSH2 0x6D JUMPI DUP1 PUSH4 0xC605F76C EQ PUSH2 0x8B JUMPI DUP1 PUSH4 0xF2FDE38B EQ PUSH2 0xA9 JUMPI JUMPDEST PUSH1 0x0 DUP1 REVERT JUMPDEST PUSH2 0x6B PUSH1 0x4 DUP1 CALLDATASIZE SUB DUP2 ADD SWAP1 PUSH2 0x66 SWAP2 SWAP1 PUSH2 0x432 JUMP JUMPDEST PUSH2 0xC5 JUMP JUMPDEST STOP JUMPDEST PUSH2 0x75 PUSH2 0x16B JUMP JUMPDEST PUSH1 0x40 MLOAD PUSH2 0x82 SWAP2 SWAP1 PUSH2 0x4EA JUMP JUMPDEST PUSH1 0x40 MLOAD DUP1 SWAP2 SUB SWAP1 RETURN JUMPDEST PUSH2 0x93 PUSH2 0x191 JUMP JUMPDEST PUSH1 0x40 MLOAD PUSH2 0xA0 SWAP2 SWAP1 PUSH2 0x505 JUMP JUMPDEST PUSH1 0x40 MLOAD DUP1 SWAP2 SUB SWAP1 RETURN JUMPDEST PUSH2 0xC3 PUSH1 0x4 DUP1 CALLDATASIZE SUB DUP2 ADD SWAP1 PUSH2 0xBE SWAP2 SWAP1 PUSH2 0x405 JUMP JUMPDEST PUSH2 0x223 JUMP JUMPDEST STOP JUMPDEST PUSH1 0x1 PUSH1 0x0 SWAP1 SLOAD SWAP1 PUSH2 0x100 EXP SWAP1 DIV PUSH20 0xFFFFFFFFFFFFFFFFFFFFFFFFFFFFFFFFFFFFFFFF AND PUSH20 0xFFFFFFFFFFFFFFFFFFFFFFFFFFFFFFFFFFFFFFFF AND CALLER PUSH20 0xFFFFFFFFFFFFFFFFFFFFFFFFFFFFFFFFFFFFFFFF AND EQ PUSH2 0x155 JUMPI PUSH1 0x40 MLOAD PUSH32 0x8C379A000000000000000000000000000000000000000000000000000000000 DUP2 MSTORE PUSH1 0x4 ADD PUSH2 0x14C SWAP1 PUSH2 0x527 JUMP JUMPDEST PUSH1 0x40 MLOAD DUP1 SWAP2 SUB SWAP1 REVERT JUMPDEST DUP2 DUP2 PUSH1 0x0 SWAP2 SWAP1 PUSH2 0x166 SWAP3 SWAP2 SWAP1 PUSH2 0x2F7 JUMP JUMPDEST POP POP POP JUMP JUMPDEST PUSH1 0x1 PUSH1 0x0 SWAP1 SLOAD SWAP1 PUSH2 0x100 EXP SWAP1 DIV PUSH20 0xFFFFFFFFFFFFFFFFFFFFFFFFFFFFFFFFFFFFFFFF AND DUP2 JUMP JUMPDEST PUSH1 0x60 PUSH1 0x0 DUP1 SLOAD PUSH2 0x1A0 SWAP1 PUSH2 0x5C8 JUMP JUMPDEST DUP1 PUSH1 0x1F ADD PUSH1 0x20 DUP1 SWAP2 DIV MUL PUSH1 0x20 ADD PUSH1 0x40 MLOAD SWAP1 DUP2 ADD PUSH1 0x40 MSTORE DUP1 SWAP3 SWAP2 SWAP1 DUP2 DUP2 MSTORE PUSH1 0x20 ADD DUP3 DUP1 SLOAD PUSH2 0x1CC SWAP1 PUSH2 0x5C8 JUMP JUMPDEST DUP1 ISZERO PUSH2 0x219 JUMPI DUP1 PUSH1 0x1F LT PUSH2 0x1EE JUMPI PUSH2 0x100 DUP1 DUP4 SLOAD DIV MUL DUP4 MSTORE SWAP2 PUSH1 0x20 ADD SWAP2 PUSH2 0x219 JUMP JUMPDEST DUP3 ADD SWAP2 SWAP1 PUSH1 0x0 MSTORE PUSH1 0x20 PUSH1 0x0 KECCAK256 SWAP1 JUMPDEST DUP2 SLOAD DUP2 MSTORE SWAP1 PUSH1 0x1 ADD SWAP1 PUSH1 0x20 ADD DUP1 DUP4 GT PUSH2 0x1FC JUMPI DUP3 SWAP1 SUB PUSH1 0x1F AND DUP3 ADD SWAP2 JUMPDEST POP POP POP POP POP SWAP1 POP SWAP1 JUMP JUMPDEST PUSH1 0x1 PUSH1 0x0 SWAP1 SLOAD SWAP1 PUSH2 0x100 EXP SWAP1 DIV PUSH20 0xFFFFFFFFFFFFFFFFFFFFFFFFFFFFFFFFFFFFFFFF AND PUSH20 0xFFFFFFFFFFFFFFFFFFFFFFFFFFFFFFFFFFFFFFFF AND CALLER PUSH20 0xFFFFFFFFFFFFFFFFFFFFFFFFFFFFFFFFFFFFFFFF AND EQ PUSH2 0x2B3 JUMPI PUSH1 0x40 MLOAD PUSH32 0x8C379A000000000000000000000000000000000000000000000000000000000 DUP2 MSTORE PUSH1 0x4 ADD PUSH2 0x2AA SWAP1 PUSH2 0x527 JUMP JUMPDEST PUSH1 0x40 MLOAD DUP1 SWAP2 SUB SWAP1 REVERT JUMPDEST DUP1 PUSH1 0x1 PUSH1 0x0 PUSH2 0x100 EXP DUP2 SLOAD DUP2 PUSH20 0xFFFFFFFFFFFFFFFFFFFFFFFFFFFFFFFFFFFFFFFF MUL NOT AND SWAP1 DUP4 PUSH20 0xFFFFFFFFFFFFFFFFFFFFFFFFFFFFFFFFFFFFFFFF AND MUL OR SWAP1 SSTORE POP POP JUMP JUMPDEST DUP3 DUP1 SLOAD PUSH2 0x303 SWAP1 PUSH2 0x5C8 JUMP JUMPDEST SWAP1 PUSH1 0x0 MSTORE PUSH1 0x20 PUSH1 0x0 KECCAK256 SWAP1 PUSH1 0x1F ADD PUSH1 0x20 SWAP1 DIV DUP2 ADD SWAP3 DUP3 PUSH2 0x325 JUMPI PUSH1 0x0 DUP6 SSTORE PUSH2 0x36C JUMP JUMPDEST DUP3 PUSH1 0x1F LT PUSH2 0x33E JUMPI DUP1 CALLDATALOAD PUSH1 0xFF NOT AND DUP4 DUP1 ADD OR DUP6 SSTORE PUSH2 0x36C JUMP JUMPDEST DUP3 DUP1 ADD PUSH1 0x1 ADD DUP6 SSTORE DUP3 ISZERO PUSH2 0x36C JUMPI SWAP2 DUP3 ADD JUMPDEST DUP3 DUP2 GT ISZERO PUSH2 0x36B JUMPI DUP3 CALLDATALOAD DUP3 SSTORE SWAP2 PUSH1 0x20 ADD SWAP2 SWAP1 PUSH1 0x1 ADD SWAP1 PUSH2 0x350 JUMP JUMPDEST JUMPDEST POP SWAP1 POP PUSH2 0x379 SWAP2 SWAP1 PUSH2 0x37D JUMP JUMPDEST POP SWAP1 JUMP JUMPDEST JUMPDEST DUP1 DUP3 GT ISZERO PUSH2 0x396 JUMPI PUSH1 0x0 DUP2 PUSH1 0x0 SWAP1 SSTORE POP PUSH1 0x1 ADD PUSH2 0x37E JUMP JUMPDEST POP SWAP1 JUMP JUMPDEST PUSH1 0x0 DUP2 CALLDATALOAD SWAP1 POP PUSH2 0x3A9 DUP2 PUSH2 0x67C JUMP JUMPDEST SWAP3 SWAP2 POP POP JUMP JUMPDEST PUSH1 0x0 DUP1 DUP4 PUSH1 0x1F DUP5 ADD SLT PUSH2 0x3C5 JUMPI PUSH2 0x3C4 PUSH2 0x62E JUMP JUMPDEST JUMPDEST DUP3 CALLDATALOAD SWAP1 POP PUSH8 0xFFFFFFFFFFFFFFFF DUP2 GT ISZERO PUSH2 0x3E2 JUMPI PUSH2 0x3E1 PUSH2 0x629 JUMP JUMPDEST JUMPDEST PUSH1 0x20 DUP4 ADD SWAP2 POP DUP4 PUSH1 0x1 DUP3 MUL DUP4 ADD GT ISZERO PUSH2 0x3FE JUMPI PUSH2 0x3FD PUSH2 0x633 JUMP JUMPDEST JUMPDEST SWAP3 POP SWAP3 SWAP1 POP JUMP JUMPDEST PUSH1 0x0 PUSH1 0x20 DUP3 DUP5 SUB SLT ISZERO PUSH2 0x41B JUMPI PUSH2 0x41A PUSH2 0x63D JUMP JUMPDEST JUMPDEST PUSH1 0x0 PUSH2 0x429 DUP5 DUP3 DUP6 ADD PUSH2 0x39A JUMP JUMPDEST SWAP2 POP POP SWAP3 SWAP2 POP POP JUMP JUMPDEST PUSH1 0x0 DUP1 PUSH1 0x20 DUP4 DUP6 SUB SLT ISZERO PUSH2 0x449 JUMPI PUSH2 0x448 PUSH2 0x63D JUMP JUMPDEST JUMPDEST PUSH1 0x0 DUP4 ADD CALLDATALOAD PUSH8 0xFFFFFFFFFFFFFFFF DUP2 GT ISZERO PUSH2 0x467 JUMPI PUSH2 0x466 PUSH2 0x638 JUMP JUMPDEST JUMPDEST PUSH2 0x473 DUP6 DUP3 DUP7 ADD PUSH2 0x3AF JUMP JUMPDEST SWAP3 POP SWAP3 POP POP SWAP3 POP SWAP3 SWAP1 POP JUMP JUMPDEST PUSH2 0x488 DUP2 PUSH2 0x563 JUMP JUMPDEST DUP3 MSTORE POP POP JUMP JUMPDEST PUSH1 0x0 PUSH2 0x499 DUP3 PUSH2 0x547 JUMP JUMPDEST PUSH2 0x4A3 DUP2 DUP6 PUSH2 0x552 JUMP JUMPDEST SWAP4 POP PUSH2 0x4B3 DUP2 DUP6 PUSH1 0x20 DUP7 ADD PUSH2 0x595 JUMP JUMPDEST PUSH2 0x4BC DUP2 PUSH2 0x642 JUMP JUMPDEST DUP5 ADD SWAP2 POP POP SWAP3 SWAP2 POP POP JUMP JUMPDEST PUSH1 0x0 PUSH2 0x4D4 PUSH1 0x17 DUP4 PUSH2 0x552 JUMP JUMPDEST SWAP2 POP PUSH2 0x4DF DUP3 PUSH2 0x653 JUMP JUMPDEST PUSH1 0x20 DUP3 ADD SWAP1 POP SWAP2 SWAP1 POP JUMP JUMPDEST PUSH1 0x0 PUSH1 0x20 DUP3 ADD SWAP1 POP PUSH2 0x4FF PUSH1 0x0 DUP4 ADD DUP5 PUSH2 0x47F JUMP JUMPDEST SWAP3 SWAP2 POP POP JUMP JUMPDEST PUSH1 0x0 PUSH1 0x20 DUP3 ADD SWAP1 POP DUP2 DUP2 SUB PUSH1 0x0 DUP4 ADD MSTORE PUSH2 0x51F DUP2 DUP5 PUSH2 0x48E JUMP JUMPDEST SWAP1 POP SWAP3 SWAP2 POP POP JUMP JUMPDEST PUSH1 0x0 PUSH1 0x20 DUP3 ADD SWAP1 POP DUP2 DUP2 SUB PUSH1 0x0 DUP4 ADD MSTORE PUSH2 0x540 DUP2 PUSH2 0x4C7 JUMP JUMPDEST SWAP1 POP SWAP2 SWAP1 POP JUMP JUMPDEST PUSH1 0x0 DUP2 MLOAD SWAP1 POP SWAP2 SWAP1 POP JUMP JUMPDEST PUSH1 0x0 DUP3 DUP3 MSTORE PUSH1 0x20 DUP3 ADD SWAP1 POP SWAP3 SWAP2 POP POP JUMP JUMPDEST PUSH1 0x0 PUSH2 0x56E DUP3 PUSH2 0x575 JUMP JUMPDEST SWAP1 POP SWAP2 SWAP1 POP JUMP JUMPDEST PUSH1 0x0 PUSH20 0xFFFFFFFFFFFFFFFFFFFFFFFFFFFFFFFFFFFFFFFF DUP3 AND SWAP1 POP SWAP2 SWAP1 POP JUMP JUMPDEST PUSH1 0x0 JUMPDEST DUP4 DUP2 LT ISZERO PUSH2 0x5B3 JUMPI DUP1 DUP3 ADD MLOAD DUP2 DUP5 ADD MSTORE PUSH1 0x20 DUP2 ADD SWAP1 POP PUSH2 0x598 JUMP JUMPDEST DUP4 DUP2 GT ISZERO PUSH2 0x5C2 JUMPI PUSH1 0x0 DUP5 DUP5 ADD MSTORE JUMPDEST POP POP POP POP JUMP JUMPDEST PUSH1 0x0 PUSH1 0x2 DUP3 DIV SWAP1 POP PUSH1 0x1 DUP3 AND DUP1 PUSH2 0x5E0 JUMPI PUSH1 0x7F DUP3 AND SWAP2 POP JUMPDEST PUSH1 0x20 DUP3 LT DUP2 EQ ISZERO PUSH2 0x5F4 JUMPI PUSH2 0x5F3 PUSH2 0x5FA JUMP JUMPDEST JUMPDEST POP SWAP2 SWAP1 POP JUMP JUMPDEST PUSH32 0x4E487B7100000000000000000000000000000000000000000000000000000000 PUSH1 0x0 MSTORE PUSH1 0x22 PUSH1 0x4 MSTORE PUSH1 0x24 PUSH1 0x0 REVERT JUMPDEST PUSH1 0x0 DUP1 REVERT JUMPDEST PUSH1 0x0 DUP1 REVERT JUMPDEST PUSH1 0x0 DUP1 REVERT JUMPDEST PUSH1 0x0 DUP1 REVERT JUMPDEST PUSH1 0x0 DUP1 REVERT JUMPDEST PUSH1 0x0 PUSH1 0x1F NOT PUSH1 0x1F DUP4 ADD AND SWAP1 POP SWAP2 SWAP1 POP JUMP JUMPDEST PUSH32 0x63616C6C6572206973206E6F7420746865206F776E6572000000000000000000 PUSH1 0x0 DUP3 ADD MSTORE POP JUMP JUMPDEST PUSH2 0x685 DUP2 PUSH2 0x563 JUMP JUMPDEST DUP2 EQ PUSH2 0x690 JUMPI PUSH1 0x0 DUP1 REVERT JUMPDEST POP JUMP INVALID LOG2 PUSH5 0x6970667358 0x22 SLT KECCAK256 CALLDATACOPY ADDRESS SWAP11 GASLIMIT DELEGATECALL MSTORE BALANCE GAS 0xC8 DUP2 0x5C 0xBA 0x27 PUSH3 0xFBC139 SELFBALANCE BYTE DUP11 EXTCODEHASH SHR 0xD 0x49 0xDE 0xE1 0xD6 JUMPDEST 0x2E 0x2E STATICCALL 0xE7 PUSH5 0x736F6C6343 STOP ADDMOD SMOD STOP CALLER "
				},
				"gasEstimates": {
					"creation": {
						"codeDepositCost": "347400",
						"executionCost": "24652",
						"totalCost": "372052"
					},
					"external": {
						"helloWorld()": "infinite",
						"owner()": "2514",
						"setText(string)": "infinite",
						"transferOwnership(address)": "26936"
					}
				},
				"methodIdentifiers": {
					"helloWorld()": "c605f76c",
					"owner()": "8da5cb5b",
					"setText(string)": "5d3a1f9d",
					"transferOwnership(address)": "f2fde38b"
				}
			},
			"storageLayout": {
				"storage": [
					{
						"astId": 4,
						"contract": "HelloWorld.sol:HelloWorld",
						"label": "text",
						"offset": 0,
						"slot": "0",
						"type": "t_string_storage"
					},
					{
						"astId": 6,
						"contract": "HelloWorld.sol:HelloWorld",
						"label": "owner",
						"offset": 0,
						"slot": "1",
						"type": "t_address"
					}
				],
				"types": {
					"t_address": {
						"encoding": "inplace",
						"label": "address",
						"numberOfBytes": "20"
					},
					"t_string_storage": {
						"encoding": "bytes",
						"label": "string",
						"numberOfBytes": "32"
					}
				}
			},
			"userdoc": {
				"kind": "user",
				"methods": {},
				"notice": "Hello World implementation example with solidity",
				"version": 1
			}
		}
	}
}