{
	"HelloWorld.sol": {
		"HelloWorld": {
			"abi": [
				{
					"inputs": [],
					"stateMutability": "nonpayable",
					"type": "constructor"
				},
				{
					"inputs": [],
					"name": "helloWorld",
					"outputs": [
						{
							"internalType": "string",
							"name": "",
							"type": "string"
						}
					],
					"stateMutability": "view",
					"type": "function"
				},
				{
					"inputs": [],
					"name": "isPure",
					"outputs": [
						{
							"internalType": "bool",
							"name": "_returnValue",
							"type": "bool"
						}
					],
					"stateMutability": "view",
					"type": "function"
				},
				{
					"inputs": [],
					"name": "pureText",
					"outputs": [
						{
							"internalType": "string",
							"name": "",
							"type": "string"
						}
					],
					"stateMutability": "pure",
					"type": "function"
				},
				{
					"inputs": [],
					"name": "restore",
					"outputs": [],
					"stateMutability": "nonpayable",
					"type": "function"
				},
				{
					"inputs": [
						{
							"internalType": "string",
							"name": "newText",
							"type": "string"
						}
					],
					"name": "setText",
					"outputs": [],
					"stateMutability": "payable",
					"type": "function"
				}
			],
			"devdoc": {
				"details": "This is a contract for learning",
				"kind": "dev",
				"methods": {
					"helloWorld()": {
						"returns": {
							"_0": "Value of the string stored in the text variable "
						}
					},
					"setText(string)": {
						"params": {
							"newText": "Text string that is going to replace the text variable"
						}
					}
				},
				"title": "Hello World",
				"version": 1
			},
			"evm": {
				"assembly": "    /* \"HelloWorld.sol\":191:1022  contract HelloWorld{... */\n  mstore(0x40, 0x80)\n    /* \"HelloWorld.sol\":234:281  constructor(){... */\n  callvalue\n  dup1\n  iszero\n  tag_1\n  jumpi\n  0x00\n  dup1\n  revert\ntag_1:\n  pop\n    /* \"HelloWorld.sol\":264:274  pureText() */\n  tag_4\n    /* \"HelloWorld.sol\":264:272  pureText */\n  shl(0x20, tag_5)\n    /* \"HelloWorld.sol\":264:274  pureText() */\n  0x20\n  shr\n  jump\t// in\ntag_4:\n    /* \"HelloWorld.sol\":257:261  text */\n  0x00\n    /* \"HelloWorld.sol\":257:274  text = pureText() */\n  swap1\n  dup1\n  mload\n  swap1\n  0x20\n  add\n  swap1\n  tag_6\n  swap3\n  swap2\n  swap1\n  tag_7\n  jump\t// in\ntag_6:\n  pop\n    /* \"HelloWorld.sol\":191:1022  contract HelloWorld{... */\n  jump(tag_8)\n    /* \"HelloWorld.sol\":610:702  function pureText() public pure returns (string memory){... */\ntag_5:\n    /* \"HelloWorld.sol\":651:664  string memory */\n  0x60\n    /* \"HelloWorld.sol\":675:695  return \"Hello World\" */\n  mload(0x40)\n  dup1\n  0x40\n  add\n  0x40\n  mstore\n  dup1\n  0x0b\n  dup2\n  mstore\n  0x20\n  add\n  0x48656c6c6f20576f726c64000000000000000000000000000000000000000000\n  dup2\n  mstore\n  pop\n  swap1\n  pop\n    /* \"HelloWorld.sol\":610:702  function pureText() public pure returns (string memory){... */\n  swap1\n  jump\t// out\n    /* \"HelloWorld.sol\":191:1022  contract HelloWorld{... */\ntag_7:\n  dup3\n  dup1\n  sload\n  tag_10\n  swap1\n  tag_11\n  jump\t// in\ntag_10:\n  swap1\n  0x00\n  mstore\n  keccak256(0x00, 0x20)\n  swap1\n  0x1f\n  add\n  0x20\n  swap1\n  div\n  dup2\n  add\n  swap3\n  dup3\n  tag_13\n  jumpi\n  0x00\n  dup6\n  sstore\n  jump(tag_12)\ntag_13:\n  dup3\n  0x1f\n  lt\n  tag_14\n  jumpi\n  dup1\n  mload\n  not(0xff)\n  and\n  dup4\n  dup1\n  add\n  or\n  dup6\n  sstore\n  jump(tag_12)\ntag_14:\n  dup3\n  dup1\n  add\n  0x01\n  add\n  dup6\n  sstore\n  dup3\n  iszero\n  tag_12\n  jumpi\n  swap2\n  dup3\n  add\ntag_15:\n  dup3\n  dup2\n  gt\n  iszero\n  tag_16\n  jumpi\n  dup3\n  mload\n  dup3\n  sstore\n  swap2\n  0x20\n  add\n  swap2\n  swap1\n  0x01\n  add\n  swap1\n  jump(tag_15)\ntag_16:\ntag_12:\n  pop\n  swap1\n  pop\n  tag_17\n  swap2\n  swap1\n  tag_18\n  jump\t// in\ntag_17:\n  pop\n  swap1\n  jump\t// out\ntag_18:\ntag_19:\n  dup1\n  dup3\n  gt\n  iszero\n  tag_20\n  jumpi\n  0x00\n  dup2\n  0x00\n  swap1\n  sstore\n  pop\n  0x01\n  add\n  jump(tag_19)\ntag_20:\n  pop\n  swap1\n  jump\t// out\n    /* \"#utility.yul\":7:327   */\ntag_11:\n    /* \"#utility.yul\":51:57   */\n  0x00\n    /* \"#utility.yul\":88:89   */\n  0x02\n    /* \"#utility.yul\":82:86   */\n  dup3\n    /* \"#utility.yul\":78:90   */\n  div\n    /* \"#utility.yul\":68:90   */\n  swap1\n  pop\n    /* \"#utility.yul\":135:136   */\n  0x01\n    /* \"#utility.yul\":129:133   */\n  dup3\n    /* \"#utility.yul\":125:137   */\n  and\n    /* \"#utility.yul\":156:174   */\n  dup1\n    /* \"#utility.yul\":146:227   */\n  tag_23\n  jumpi\n    /* \"#utility.yul\":212:216   */\n  0x7f\n    /* \"#utility.yul\":204:210   */\n  dup3\n    /* \"#utility.yul\":200:217   */\n  and\n    /* \"#utility.yul\":190:217   */\n  swap2\n  pop\n    /* \"#utility.yul\":146:227   */\ntag_23:\n    /* \"#utility.yul\":274:276   */\n  0x20\n    /* \"#utility.yul\":266:272   */\n  dup3\n    /* \"#utility.yul\":263:277   */\n  lt\n    /* \"#utility.yul\":243:261   */\n  dup2\n    /* \"#utility.yul\":240:278   */\n  eq\n    /* \"#utility.yul\":237:321   */\n  iszero\n  tag_24\n  jumpi\n    /* \"#utility.yul\":293:311   */\n  tag_25\n  tag_26\n  jump\t// in\ntag_25:\n    /* \"#utility.yul\":237:321   */\ntag_24:\n    /* \"#utility.yul\":58:327   */\n  pop\n    /* \"#utility.yul\":7:327   */\n  swap2\n  swap1\n  pop\n  jump\t// out\n    /* \"#utility.yul\":333:513   */\ntag_26:\n    /* \"#utility.yul\":381:458   */\n  0x4e487b7100000000000000000000000000000000000000000000000000000000\n    /* \"#utility.yul\":378:379   */\n  0x00\n    /* \"#utility.yul\":371:459   */\n  mstore\n    /* \"#utility.yul\":478:482   */\n  0x22\n    /* \"#utility.yul\":475:476   */\n  0x04\n    /* \"#utility.yul\":468:483   */\n  mstore\n    /* \"#utility.yul\":502:506   */\n  0x24\n    /* \"#utility.yul\":499:500   */\n  0x00\n    /* \"#utility.yul\":492:507   */\n  revert\n    /* \"HelloWorld.sol\":191:1022  contract HelloWorld{... */\ntag_8:\n  dataSize(sub_0)\n  dup1\n  dataOffset(sub_0)\n  0x00\n  codecopy\n  0x00\n  return\nstop\n\nsub_0: assembly {\n        /* \"HelloWorld.sol\":191:1022  contract HelloWorld{... */\n      mstore(0x40, 0x80)\n      jumpi(tag_1, lt(calldatasize, 0x04))\n      shr(0xe0, calldataload(0x00))\n      dup1\n      0x0953aec5\n      eq\n      tag_2\n      jumpi\n      dup1\n      0x1089bbc8\n      eq\n      tag_3\n      jumpi\n      dup1\n      0x2fda332e\n      eq\n      tag_4\n      jumpi\n      dup1\n      0x5d3a1f9d\n      eq\n      tag_5\n      jumpi\n      dup1\n      0xc605f76c\n      eq\n      tag_6\n      jumpi\n    tag_1:\n      0x00\n      dup1\n      revert\n        /* \"HelloWorld.sol\":919:1018  function isPure() public view returns (bool _returnValue) {... */\n    tag_2:\n      callvalue\n      dup1\n      iszero\n      tag_7\n      jumpi\n      0x00\n      dup1\n      revert\n    tag_7:\n      pop\n      tag_8\n      tag_9\n      jump\t// in\n    tag_8:\n      mload(0x40)\n      tag_10\n      swap2\n      swap1\n      tag_11\n      jump\t// in\n    tag_10:\n      mload(0x40)\n      dup1\n      swap2\n      sub\n      swap1\n      return\n        /* \"HelloWorld.sol\":610:702  function pureText() public pure returns (string memory){... */\n    tag_3:\n      callvalue\n      dup1\n      iszero\n      tag_12\n      jumpi\n      0x00\n      dup1\n      revert\n    tag_12:\n      pop\n      tag_13\n      tag_14\n      jump\t// in\n    tag_13:\n      mload(0x40)\n      tag_15\n      swap2\n      swap1\n      tag_16\n      jump\t// in\n    tag_15:\n      mload(0x40)\n      dup1\n      swap2\n      sub\n      swap1\n      return\n        /* \"HelloWorld.sol\":712:772  function restore() public {... */\n    tag_4:\n      callvalue\n      dup1\n      iszero\n      tag_17\n      jumpi\n      0x00\n      dup1\n      revert\n    tag_17:\n      pop\n      tag_18\n      tag_19\n      jump\t// in\n    tag_18:\n      stop\n        /* \"HelloWorld.sol\":519:604  function setText(string memory newText) public payable{... */\n    tag_5:\n      tag_20\n      0x04\n      dup1\n      calldatasize\n      sub\n      dup2\n      add\n      swap1\n      tag_21\n      swap2\n      swap1\n      tag_22\n      jump\t// in\n    tag_21:\n      tag_23\n      jump\t// in\n    tag_20:\n      stop\n        /* \"HelloWorld.sol\":352:435  function helloWorld() public view returns(string memory){... */\n    tag_6:\n      callvalue\n      dup1\n      iszero\n      tag_24\n      jumpi\n      0x00\n      dup1\n      revert\n    tag_24:\n      pop\n      tag_25\n      tag_26\n      jump\t// in\n    tag_25:\n      mload(0x40)\n      tag_27\n      swap2\n      swap1\n      tag_16\n      jump\t// in\n    tag_27:\n      mload(0x40)\n      dup1\n      swap2\n      sub\n      swap1\n      return\n        /* \"HelloWorld.sol\":919:1018  function isPure() public view returns (bool _returnValue) {... */\n    tag_9:\n        /* \"HelloWorld.sol\":958:975  bool _returnValue */\n      0x00\n        /* \"HelloWorld.sol\":1002:1011  _isPure() */\n      tag_29\n        /* \"HelloWorld.sol\":1002:1009  _isPure */\n      tag_30\n        /* \"HelloWorld.sol\":1002:1011  _isPure() */\n      jump\t// in\n    tag_29:\n        /* \"HelloWorld.sol\":987:1011  _returnValue = _isPure() */\n      swap1\n      pop\n        /* \"HelloWorld.sol\":919:1018  function isPure() public view returns (bool _returnValue) {... */\n      swap1\n      jump\t// out\n        /* \"HelloWorld.sol\":610:702  function pureText() public pure returns (string memory){... */\n    tag_14:\n        /* \"HelloWorld.sol\":651:664  string memory */\n      0x60\n        /* \"HelloWorld.sol\":675:695  return \"Hello World\" */\n      mload(0x40)\n      dup1\n      0x40\n      add\n      0x40\n      mstore\n      dup1\n      0x0b\n      dup2\n      mstore\n      0x20\n      add\n      0x48656c6c6f20576f726c64000000000000000000000000000000000000000000\n      dup2\n      mstore\n      pop\n      swap1\n      pop\n        /* \"HelloWorld.sol\":610:702  function pureText() public pure returns (string memory){... */\n      swap1\n      jump\t// out\n        /* \"HelloWorld.sol\":712:772  function restore() public {... */\n    tag_19:\n        /* \"HelloWorld.sol\":755:765  pureText() */\n      tag_33\n        /* \"HelloWorld.sol\":755:763  pureText */\n      tag_14\n        /* \"HelloWorld.sol\":755:765  pureText() */\n      jump\t// in\n    tag_33:\n        /* \"HelloWorld.sol\":748:752  text */\n      0x00\n        /* \"HelloWorld.sol\":748:765  text = pureText() */\n      swap1\n      dup1\n      mload\n      swap1\n      0x20\n      add\n      swap1\n      tag_34\n      swap3\n      swap2\n      swap1\n      tag_35\n      jump\t// in\n    tag_34:\n      pop\n        /* \"HelloWorld.sol\":712:772  function restore() public {... */\n      jump\t// out\n        /* \"HelloWorld.sol\":519:604  function setText(string memory newText) public payable{... */\n    tag_23:\n        /* \"HelloWorld.sol\":590:597  newText */\n      dup1\n        /* \"HelloWorld.sol\":583:587  text */\n      0x00\n        /* \"HelloWorld.sol\":583:597  text = newText */\n      swap1\n      dup1\n      mload\n      swap1\n      0x20\n      add\n      swap1\n      tag_37\n      swap3\n      swap2\n      swap1\n      tag_35\n      jump\t// in\n    tag_37:\n      pop\n        /* \"HelloWorld.sol\":519:604  function setText(string memory newText) public payable{... */\n      pop\n      jump\t// out\n        /* \"HelloWorld.sol\":352:435  function helloWorld() public view returns(string memory){... */\n    tag_26:\n        /* \"HelloWorld.sol\":394:407  string memory */\n      0x60\n        /* \"HelloWorld.sol\":424:428  text */\n      0x00\n        /* \"HelloWorld.sol\":417:428  return text */\n      dup1\n      sload\n      tag_39\n      swap1\n      tag_40\n      jump\t// in\n    tag_39:\n      dup1\n      0x1f\n      add\n      0x20\n      dup1\n      swap2\n      div\n      mul\n      0x20\n      add\n      mload(0x40)\n      swap1\n      dup2\n      add\n      0x40\n      mstore\n      dup1\n      swap3\n      swap2\n      swap1\n      dup2\n      dup2\n      mstore\n      0x20\n      add\n      dup3\n      dup1\n      sload\n      tag_41\n      swap1\n      tag_40\n      jump\t// in\n    tag_41:\n      dup1\n      iszero\n      tag_42\n      jumpi\n      dup1\n      0x1f\n      lt\n      tag_43\n      jumpi\n      0x0100\n      dup1\n      dup4\n      sload\n      div\n      mul\n      dup4\n      mstore\n      swap2\n      0x20\n      add\n      swap2\n      jump(tag_42)\n    tag_43:\n      dup3\n      add\n      swap2\n      swap1\n      0x00\n      mstore\n      keccak256(0x00, 0x20)\n      swap1\n    tag_44:\n      dup2\n      sload\n      dup2\n      mstore\n      swap1\n      0x01\n      add\n      swap1\n      0x20\n      add\n      dup1\n      dup4\n      gt\n      tag_44\n      jumpi\n      dup3\n      swap1\n      sub\n      0x1f\n      and\n      dup3\n      add\n      swap2\n    tag_42:\n      pop\n      pop\n      pop\n      pop\n      pop\n      swap1\n      pop\n        /* \"HelloWorld.sol\":352:435  function helloWorld() public view returns(string memory){... */\n      swap1\n      jump\t// out\n        /* \"HelloWorld.sol\":778:913  function _isPure() internal view returns (bool _check){... */\n    tag_30:\n        /* \"HelloWorld.sol\":820:831  bool _check */\n      0x00\n        /* \"HelloWorld.sol\":893:903  pureText() */\n      tag_46\n        /* \"HelloWorld.sol\":893:901  pureText */\n      tag_14\n        /* \"HelloWorld.sol\":893:903  pureText() */\n      jump\t// in\n    tag_46:\n        /* \"HelloWorld.sol\":877:905  keccak256(bytes(pureText())) */\n      dup1\n      mload\n      swap1\n      0x20\n      add\n      keccak256\n        /* \"HelloWorld.sol\":867:871  text */\n      0x00\n        /* \"HelloWorld.sol\":851:873  keccak256(bytes(text)) */\n      mload(0x40)\n      tag_47\n      swap2\n      swap1\n      tag_48\n      jump\t// in\n    tag_47:\n      mload(0x40)\n      dup1\n      swap2\n      sub\n      swap1\n      keccak256\n        /* \"HelloWorld.sol\":851:905  keccak256(bytes(text)) == keccak256(bytes(pureText())) */\n      eq\n        /* \"HelloWorld.sol\":842:905  _check = keccak256(bytes(text)) == keccak256(bytes(pureText())) */\n      swap1\n      pop\n        /* \"HelloWorld.sol\":778:913  function _isPure() internal view returns (bool _check){... */\n      swap1\n      jump\t// out\n    tag_35:\n      dup3\n      dup1\n      sload\n      tag_49\n      swap1\n      tag_40\n      jump\t// in\n    tag_49:\n      swap1\n      0x00\n      mstore\n      keccak256(0x00, 0x20)\n      swap1\n      0x1f\n      add\n      0x20\n      swap1\n      div\n      dup2\n      add\n      swap3\n      dup3\n      tag_51\n      jumpi\n      0x00\n      dup6\n      sstore\n      jump(tag_50)\n    tag_51:\n      dup3\n      0x1f\n      lt\n      tag_52\n      jumpi\n      dup1\n      mload\n      not(0xff)\n      and\n      dup4\n      dup1\n      add\n      or\n      dup6\n      sstore\n      jump(tag_50)\n    tag_52:\n      dup3\n      dup1\n      add\n      0x01\n      add\n      dup6\n      sstore\n      dup3\n      iszero\n      tag_50\n      jumpi\n      swap2\n      dup3\n      add\n    tag_53:\n      dup3\n      dup2\n      gt\n      iszero\n      tag_54\n      jumpi\n      dup3\n      mload\n      dup3\n      sstore\n      swap2\n      0x20\n      add\n      swap2\n      swap1\n      0x01\n      add\n      swap1\n      jump(tag_53)\n    tag_54:\n    tag_50:\n      pop\n      swap1\n      pop\n      tag_55\n      swap2\n      swap1\n      tag_56\n      jump\t// in\n    tag_55:\n      pop\n      swap1\n      jump\t// out\n    tag_56:\n    tag_57:\n      dup1\n      dup3\n      gt\n      iszero\n      tag_58\n      jumpi\n      0x00\n      dup2\n      0x00\n      swap1\n      sstore\n      pop\n      0x01\n      add\n      jump(tag_57)\n    tag_58:\n      pop\n      swap1\n      jump\t// out\n        /* \"#utility.yul\":7:419   */\n    tag_60:\n        /* \"#utility.yul\":85:90   */\n      0x00\n        /* \"#utility.yul\":110:176   */\n      tag_62\n        /* \"#utility.yul\":126:175   */\n      tag_63\n        /* \"#utility.yul\":168:174   */\n      dup5\n        /* \"#utility.yul\":126:175   */\n      tag_64\n      jump\t// in\n    tag_63:\n        /* \"#utility.yul\":110:176   */\n      tag_65\n      jump\t// in\n    tag_62:\n        /* \"#utility.yul\":101:176   */\n      swap1\n      pop\n        /* \"#utility.yul\":199:205   */\n      dup3\n        /* \"#utility.yul\":192:197   */\n      dup2\n        /* \"#utility.yul\":185:206   */\n      mstore\n        /* \"#utility.yul\":237:241   */\n      0x20\n        /* \"#utility.yul\":230:235   */\n      dup2\n        /* \"#utility.yul\":226:242   */\n      add\n        /* \"#utility.yul\":275:278   */\n      dup5\n        /* \"#utility.yul\":266:272   */\n      dup5\n        /* \"#utility.yul\":261:264   */\n      dup5\n        /* \"#utility.yul\":257:273   */\n      add\n        /* \"#utility.yul\":254:279   */\n      gt\n        /* \"#utility.yul\":251:363   */\n      iszero\n      tag_66\n      jumpi\n        /* \"#utility.yul\":282:361   */\n      tag_67\n      tag_68\n      jump\t// in\n    tag_67:\n        /* \"#utility.yul\":251:363   */\n    tag_66:\n        /* \"#utility.yul\":372:413   */\n      tag_69\n        /* \"#utility.yul\":406:412   */\n      dup5\n        /* \"#utility.yul\":401:404   */\n      dup3\n        /* \"#utility.yul\":396:399   */\n      dup6\n        /* \"#utility.yul\":372:413   */\n      tag_70\n      jump\t// in\n    tag_69:\n        /* \"#utility.yul\":91:419   */\n      pop\n        /* \"#utility.yul\":7:419   */\n      swap4\n      swap3\n      pop\n      pop\n      pop\n      jump\t// out\n        /* \"#utility.yul\":439:779   */\n    tag_71:\n        /* \"#utility.yul\":495:500   */\n      0x00\n        /* \"#utility.yul\":544:547   */\n      dup3\n        /* \"#utility.yul\":537:541   */\n      0x1f\n        /* \"#utility.yul\":529:535   */\n      dup4\n        /* \"#utility.yul\":525:542   */\n      add\n        /* \"#utility.yul\":521:548   */\n      slt\n        /* \"#utility.yul\":511:633   */\n      tag_73\n      jumpi\n        /* \"#utility.yul\":552:631   */\n      tag_74\n      tag_75\n      jump\t// in\n    tag_74:\n        /* \"#utility.yul\":511:633   */\n    tag_73:\n        /* \"#utility.yul\":669:675   */\n      dup2\n        /* \"#utility.yul\":656:676   */\n      calldataload\n        /* \"#utility.yul\":694:773   */\n      tag_76\n        /* \"#utility.yul\":769:772   */\n      dup5\n        /* \"#utility.yul\":761:767   */\n      dup3\n        /* \"#utility.yul\":754:758   */\n      0x20\n        /* \"#utility.yul\":746:752   */\n      dup7\n        /* \"#utility.yul\":742:759   */\n      add\n        /* \"#utility.yul\":694:773   */\n      tag_60\n      jump\t// in\n    tag_76:\n        /* \"#utility.yul\":685:773   */\n      swap2\n      pop\n        /* \"#utility.yul\":501:779   */\n      pop\n        /* \"#utility.yul\":439:779   */\n      swap3\n      swap2\n      pop\n      pop\n      jump\t// out\n        /* \"#utility.yul\":785:1294   */\n    tag_22:\n        /* \"#utility.yul\":854:860   */\n      0x00\n        /* \"#utility.yul\":903:905   */\n      0x20\n        /* \"#utility.yul\":891:900   */\n      dup3\n        /* \"#utility.yul\":882:889   */\n      dup5\n        /* \"#utility.yul\":878:901   */\n      sub\n        /* \"#utility.yul\":874:906   */\n      slt\n        /* \"#utility.yul\":871:990   */\n      iszero\n      tag_78\n      jumpi\n        /* \"#utility.yul\":909:988   */\n      tag_79\n      tag_80\n      jump\t// in\n    tag_79:\n        /* \"#utility.yul\":871:990   */\n    tag_78:\n        /* \"#utility.yul\":1057:1058   */\n      0x00\n        /* \"#utility.yul\":1046:1055   */\n      dup3\n        /* \"#utility.yul\":1042:1059   */\n      add\n        /* \"#utility.yul\":1029:1060   */\n      calldataload\n        /* \"#utility.yul\":1087:1105   */\n      0xffffffffffffffff\n        /* \"#utility.yul\":1079:1085   */\n      dup2\n        /* \"#utility.yul\":1076:1106   */\n      gt\n        /* \"#utility.yul\":1073:1190   */\n      iszero\n      tag_81\n      jumpi\n        /* \"#utility.yul\":1109:1188   */\n      tag_82\n      tag_83\n      jump\t// in\n    tag_82:\n        /* \"#utility.yul\":1073:1190   */\n    tag_81:\n        /* \"#utility.yul\":1214:1277   */\n      tag_84\n        /* \"#utility.yul\":1269:1276   */\n      dup5\n        /* \"#utility.yul\":1260:1266   */\n      dup3\n        /* \"#utility.yul\":1249:1258   */\n      dup6\n        /* \"#utility.yul\":1245:1267   */\n      add\n        /* \"#utility.yul\":1214:1277   */\n      tag_71\n      jump\t// in\n    tag_84:\n        /* \"#utility.yul\":1204:1277   */\n      swap2\n      pop\n        /* \"#utility.yul\":1000:1287   */\n      pop\n        /* \"#utility.yul\":785:1294   */\n      swap3\n      swap2\n      pop\n      pop\n      jump\t// out\n        /* \"#utility.yul\":1300:1409   */\n    tag_85:\n        /* \"#utility.yul\":1381:1402   */\n      tag_87\n        /* \"#utility.yul\":1396:1401   */\n      dup2\n        /* \"#utility.yul\":1381:1402   */\n      tag_88\n      jump\t// in\n    tag_87:\n        /* \"#utility.yul\":1376:1379   */\n      dup3\n        /* \"#utility.yul\":1369:1403   */\n      mstore\n        /* \"#utility.yul\":1300:1409   */\n      pop\n      pop\n      jump\t// out\n        /* \"#utility.yul\":1437:2286   */\n    tag_89:\n        /* \"#utility.yul\":1542:1545   */\n      0x00\n        /* \"#utility.yul\":1579:1584   */\n      dup2\n        /* \"#utility.yul\":1573:1585   */\n      sload\n        /* \"#utility.yul\":1608:1644   */\n      tag_91\n        /* \"#utility.yul\":1634:1643   */\n      dup2\n        /* \"#utility.yul\":1608:1644   */\n      tag_40\n      jump\t// in\n    tag_91:\n        /* \"#utility.yul\":1660:1748   */\n      tag_92\n        /* \"#utility.yul\":1741:1747   */\n      dup2\n        /* \"#utility.yul\":1736:1739   */\n      dup7\n        /* \"#utility.yul\":1660:1748   */\n      tag_93\n      jump\t// in\n    tag_92:\n        /* \"#utility.yul\":1653:1748   */\n      swap5\n      pop\n        /* \"#utility.yul\":1779:1780   */\n      0x01\n        /* \"#utility.yul\":1768:1777   */\n      dup3\n        /* \"#utility.yul\":1764:1781   */\n      and\n        /* \"#utility.yul\":1795:1796   */\n      0x00\n        /* \"#utility.yul\":1790:1927   */\n      dup2\n      eq\n      tag_95\n      jumpi\n        /* \"#utility.yul\":1941:1942   */\n      0x01\n        /* \"#utility.yul\":1936:2280   */\n      dup2\n      eq\n      tag_96\n      jumpi\n        /* \"#utility.yul\":1757:2280   */\n      jump(tag_94)\n        /* \"#utility.yul\":1790:1927   */\n    tag_95:\n        /* \"#utility.yul\":1874:1878   */\n      0xff\n        /* \"#utility.yul\":1870:1879   */\n      not\n        /* \"#utility.yul\":1859:1868   */\n      dup4\n        /* \"#utility.yul\":1855:1880   */\n      and\n        /* \"#utility.yul\":1850:1853   */\n      dup7\n        /* \"#utility.yul\":1843:1881   */\n      mstore\n        /* \"#utility.yul\":1910:1916   */\n      dup2\n        /* \"#utility.yul\":1905:1908   */\n      dup7\n        /* \"#utility.yul\":1901:1917   */\n      add\n        /* \"#utility.yul\":1894:1917   */\n      swap4\n      pop\n        /* \"#utility.yul\":1790:1927   */\n      jump(tag_94)\n        /* \"#utility.yul\":1936:2280   */\n    tag_96:\n        /* \"#utility.yul\":2003:2044   */\n      tag_97\n        /* \"#utility.yul\":2038:2043   */\n      dup6\n        /* \"#utility.yul\":2003:2044   */\n      tag_98\n      jump\t// in\n    tag_97:\n        /* \"#utility.yul\":2066:2067   */\n      0x00\n        /* \"#utility.yul\":2080:2234   */\n    tag_99:\n        /* \"#utility.yul\":2094:2100   */\n      dup4\n        /* \"#utility.yul\":2091:2092   */\n      dup2\n        /* \"#utility.yul\":2088:2101   */\n      lt\n        /* \"#utility.yul\":2080:2234   */\n      iszero\n      tag_101\n      jumpi\n        /* \"#utility.yul\":2168:2175   */\n      dup2\n        /* \"#utility.yul\":2162:2176   */\n      sload\n        /* \"#utility.yul\":2158:2159   */\n      dup2\n        /* \"#utility.yul\":2153:2156   */\n      dup10\n        /* \"#utility.yul\":2149:2160   */\n      add\n        /* \"#utility.yul\":2142:2177   */\n      mstore\n        /* \"#utility.yul\":2218:2219   */\n      0x01\n        /* \"#utility.yul\":2209:2216   */\n      dup3\n        /* \"#utility.yul\":2205:2220   */\n      add\n        /* \"#utility.yul\":2194:2220   */\n      swap2\n      pop\n        /* \"#utility.yul\":2116:2120   */\n      0x20\n        /* \"#utility.yul\":2113:2114   */\n      dup2\n        /* \"#utility.yul\":2109:2121   */\n      add\n        /* \"#utility.yul\":2104:2121   */\n      swap1\n      pop\n        /* \"#utility.yul\":2080:2234   */\n      jump(tag_99)\n    tag_101:\n        /* \"#utility.yul\":2263:2269   */\n      dup4\n        /* \"#utility.yul\":2258:2261   */\n      dup9\n        /* \"#utility.yul\":2254:2270   */\n      add\n        /* \"#utility.yul\":2247:2270   */\n      swap6\n      pop\n        /* \"#utility.yul\":1943:2280   */\n      pop\n      pop\n        /* \"#utility.yul\":1757:2280   */\n    tag_94:\n      pop\n        /* \"#utility.yul\":1546:2286   */\n      pop\n      pop\n        /* \"#utility.yul\":1437:2286   */\n      swap3\n      swap2\n      pop\n      pop\n      jump\t// out\n        /* \"#utility.yul\":2292:2656   */\n    tag_102:\n        /* \"#utility.yul\":2380:2383   */\n      0x00\n        /* \"#utility.yul\":2408:2447   */\n      tag_104\n        /* \"#utility.yul\":2441:2446   */\n      dup3\n        /* \"#utility.yul\":2408:2447   */\n      tag_105\n      jump\t// in\n    tag_104:\n        /* \"#utility.yul\":2463:2534   */\n      tag_106\n        /* \"#utility.yul\":2527:2533   */\n      dup2\n        /* \"#utility.yul\":2522:2525   */\n      dup6\n        /* \"#utility.yul\":2463:2534   */\n      tag_107\n      jump\t// in\n    tag_106:\n        /* \"#utility.yul\":2456:2534   */\n      swap4\n      pop\n        /* \"#utility.yul\":2543:2595   */\n      tag_108\n        /* \"#utility.yul\":2588:2594   */\n      dup2\n        /* \"#utility.yul\":2583:2586   */\n      dup6\n        /* \"#utility.yul\":2576:2580   */\n      0x20\n        /* \"#utility.yul\":2569:2574   */\n      dup7\n        /* \"#utility.yul\":2565:2581   */\n      add\n        /* \"#utility.yul\":2543:2595   */\n      tag_109\n      jump\t// in\n    tag_108:\n        /* \"#utility.yul\":2620:2649   */\n      tag_110\n        /* \"#utility.yul\":2642:2648   */\n      dup2\n        /* \"#utility.yul\":2620:2649   */\n      tag_111\n      jump\t// in\n    tag_110:\n        /* \"#utility.yul\":2615:2618   */\n      dup5\n        /* \"#utility.yul\":2611:2650   */\n      add\n        /* \"#utility.yul\":2604:2650   */\n      swap2\n      pop\n        /* \"#utility.yul\":2384:2656   */\n      pop\n        /* \"#utility.yul\":2292:2656   */\n      swap3\n      swap2\n      pop\n      pop\n      jump\t// out\n        /* \"#utility.yul\":2662:2935   */\n    tag_48:\n        /* \"#utility.yul\":2793:2796   */\n      0x00\n        /* \"#utility.yul\":2815:2909   */\n      tag_113\n        /* \"#utility.yul\":2905:2908   */\n      dup3\n        /* \"#utility.yul\":2896:2902   */\n      dup5\n        /* \"#utility.yul\":2815:2909   */\n      tag_89\n      jump\t// in\n    tag_113:\n        /* \"#utility.yul\":2808:2909   */\n      swap2\n      pop\n        /* \"#utility.yul\":2926:2929   */\n      dup2\n        /* \"#utility.yul\":2919:2929   */\n      swap1\n      pop\n        /* \"#utility.yul\":2662:2935   */\n      swap3\n      swap2\n      pop\n      pop\n      jump\t// out\n        /* \"#utility.yul\":2941:3151   */\n    tag_11:\n        /* \"#utility.yul\":3028:3032   */\n      0x00\n        /* \"#utility.yul\":3066:3068   */\n      0x20\n        /* \"#utility.yul\":3055:3064   */\n      dup3\n        /* \"#utility.yul\":3051:3069   */\n      add\n        /* \"#utility.yul\":3043:3069   */\n      swap1\n      pop\n        /* \"#utility.yul\":3079:3144   */\n      tag_115\n        /* \"#utility.yul\":3141:3142   */\n      0x00\n        /* \"#utility.yul\":3130:3139   */\n      dup4\n        /* \"#utility.yul\":3126:3143   */\n      add\n        /* \"#utility.yul\":3117:3123   */\n      dup5\n        /* \"#utility.yul\":3079:3144   */\n      tag_85\n      jump\t// in\n    tag_115:\n        /* \"#utility.yul\":2941:3151   */\n      swap3\n      swap2\n      pop\n      pop\n      jump\t// out\n        /* \"#utility.yul\":3157:3470   */\n    tag_16:\n        /* \"#utility.yul\":3270:3274   */\n      0x00\n        /* \"#utility.yul\":3308:3310   */\n      0x20\n        /* \"#utility.yul\":3297:3306   */\n      dup3\n        /* \"#utility.yul\":3293:3311   */\n      add\n        /* \"#utility.yul\":3285:3311   */\n      swap1\n      pop\n        /* \"#utility.yul\":3357:3366   */\n      dup2\n        /* \"#utility.yul\":3351:3355   */\n      dup2\n        /* \"#utility.yul\":3347:3367   */\n      sub\n        /* \"#utility.yul\":3343:3344   */\n      0x00\n        /* \"#utility.yul\":3332:3341   */\n      dup4\n        /* \"#utility.yul\":3328:3345   */\n      add\n        /* \"#utility.yul\":3321:3368   */\n      mstore\n        /* \"#utility.yul\":3385:3463   */\n      tag_117\n        /* \"#utility.yul\":3458:3462   */\n      dup2\n        /* \"#utility.yul\":3449:3455   */\n      dup5\n        /* \"#utility.yul\":3385:3463   */\n      tag_102\n      jump\t// in\n    tag_117:\n        /* \"#utility.yul\":3377:3463   */\n      swap1\n      pop\n        /* \"#utility.yul\":3157:3470   */\n      swap3\n      swap2\n      pop\n      pop\n      jump\t// out\n        /* \"#utility.yul\":3476:3605   */\n    tag_65:\n        /* \"#utility.yul\":3510:3516   */\n      0x00\n        /* \"#utility.yul\":3537:3557   */\n      tag_119\n      tag_120\n      jump\t// in\n    tag_119:\n        /* \"#utility.yul\":3527:3557   */\n      swap1\n      pop\n        /* \"#utility.yul\":3566:3599   */\n      tag_121\n        /* \"#utility.yul\":3594:3598   */\n      dup3\n        /* \"#utility.yul\":3586:3592   */\n      dup3\n        /* \"#utility.yul\":3566:3599   */\n      tag_122\n      jump\t// in\n    tag_121:\n        /* \"#utility.yul\":3476:3605   */\n      swap2\n      swap1\n      pop\n      jump\t// out\n        /* \"#utility.yul\":3611:3686   */\n    tag_120:\n        /* \"#utility.yul\":3644:3650   */\n      0x00\n        /* \"#utility.yul\":3677:3679   */\n      0x40\n        /* \"#utility.yul\":3671:3680   */\n      mload\n        /* \"#utility.yul\":3661:3680   */\n      swap1\n      pop\n        /* \"#utility.yul\":3611:3686   */\n      swap1\n      jump\t// out\n        /* \"#utility.yul\":3692:4000   */\n    tag_64:\n        /* \"#utility.yul\":3754:3758   */\n      0x00\n        /* \"#utility.yul\":3844:3862   */\n      0xffffffffffffffff\n        /* \"#utility.yul\":3836:3842   */\n      dup3\n        /* \"#utility.yul\":3833:3863   */\n      gt\n        /* \"#utility.yul\":3830:3886   */\n      iszero\n      tag_125\n      jumpi\n        /* \"#utility.yul\":3866:3884   */\n      tag_126\n      tag_127\n      jump\t// in\n    tag_126:\n        /* \"#utility.yul\":3830:3886   */\n    tag_125:\n        /* \"#utility.yul\":3904:3933   */\n      tag_128\n        /* \"#utility.yul\":3926:3932   */\n      dup3\n        /* \"#utility.yul\":3904:3933   */\n      tag_111\n      jump\t// in\n    tag_128:\n        /* \"#utility.yul\":3896:3933   */\n      swap1\n      pop\n        /* \"#utility.yul\":3988:3992   */\n      0x20\n        /* \"#utility.yul\":3982:3986   */\n      dup2\n        /* \"#utility.yul\":3978:3993   */\n      add\n        /* \"#utility.yul\":3970:3993   */\n      swap1\n      pop\n        /* \"#utility.yul\":3692:4000   */\n      swap2\n      swap1\n      pop\n      jump\t// out\n        /* \"#utility.yul\":4006:4150   */\n    tag_98:\n        /* \"#utility.yul\":4058:4062   */\n      0x00\n        /* \"#utility.yul\":4081:4084   */\n      dup2\n        /* \"#utility.yul\":4073:4084   */\n      swap1\n      pop\n        /* \"#utility.yul\":4104:4107   */\n      dup2\n        /* \"#utility.yul\":4101:4102   */\n      0x00\n        /* \"#utility.yul\":4094:4108   */\n      mstore\n        /* \"#utility.yul\":4138:4142   */\n      0x20\n        /* \"#utility.yul\":4135:4136   */\n      0x00\n        /* \"#utility.yul\":4125:4143   */\n      keccak256\n        /* \"#utility.yul\":4117:4143   */\n      swap1\n      pop\n        /* \"#utility.yul\":4006:4150   */\n      swap2\n      swap1\n      pop\n      jump\t// out\n        /* \"#utility.yul\":4156:4255   */\n    tag_105:\n        /* \"#utility.yul\":4208:4214   */\n      0x00\n        /* \"#utility.yul\":4242:4247   */\n      dup2\n        /* \"#utility.yul\":4236:4248   */\n      mload\n        /* \"#utility.yul\":4226:4248   */\n      swap1\n      pop\n        /* \"#utility.yul\":4156:4255   */\n      swap2\n      swap1\n      pop\n      jump\t// out\n        /* \"#utility.yul\":4261:4408   */\n    tag_93:\n        /* \"#utility.yul\":4362:4373   */\n      0x00\n        /* \"#utility.yul\":4399:4402   */\n      dup2\n        /* \"#utility.yul\":4384:4402   */\n      swap1\n      pop\n        /* \"#utility.yul\":4261:4408   */\n      swap3\n      swap2\n      pop\n      pop\n      jump\t// out\n        /* \"#utility.yul\":4414:4583   */\n    tag_107:\n        /* \"#utility.yul\":4498:4509   */\n      0x00\n        /* \"#utility.yul\":4532:4538   */\n      dup3\n        /* \"#utility.yul\":4527:4530   */\n      dup3\n        /* \"#utility.yul\":4520:4539   */\n      mstore\n        /* \"#utility.yul\":4572:4576   */\n      0x20\n        /* \"#utility.yul\":4567:4570   */\n      dup3\n        /* \"#utility.yul\":4563:4577   */\n      add\n        /* \"#utility.yul\":4548:4577   */\n      swap1\n      pop\n        /* \"#utility.yul\":4414:4583   */\n      swap3\n      swap2\n      pop\n      pop\n      jump\t// out\n        /* \"#utility.yul\":4589:4679   */\n    tag_88:\n        /* \"#utility.yul\":4623:4630   */\n      0x00\n        /* \"#utility.yul\":4666:4671   */\n      dup2\n        /* \"#utility.yul\":4659:4672   */\n      iszero\n        /* \"#utility.yul\":4652:4673   */\n      iszero\n        /* \"#utility.yul\":4641:4673   */\n      swap1\n      pop\n        /* \"#utility.yul\":4589:4679   */\n      swap2\n      swap1\n      pop\n      jump\t// out\n        /* \"#utility.yul\":4685:4839   */\n    tag_70:\n        /* \"#utility.yul\":4769:4775   */\n      dup3\n        /* \"#utility.yul\":4764:4767   */\n      dup2\n        /* \"#utility.yul\":4759:4762   */\n      dup4\n        /* \"#utility.yul\":4746:4776   */\n      calldatacopy\n        /* \"#utility.yul\":4831:4832   */\n      0x00\n        /* \"#utility.yul\":4822:4828   */\n      dup4\n        /* \"#utility.yul\":4817:4820   */\n      dup4\n        /* \"#utility.yul\":4813:4829   */\n      add\n        /* \"#utility.yul\":4806:4833   */\n      mstore\n        /* \"#utility.yul\":4685:4839   */\n      pop\n      pop\n      pop\n      jump\t// out\n        /* \"#utility.yul\":4845:5152   */\n    tag_109:\n        /* \"#utility.yul\":4913:4914   */\n      0x00\n        /* \"#utility.yul\":4923:5036   */\n    tag_136:\n        /* \"#utility.yul\":4937:4943   */\n      dup4\n        /* \"#utility.yul\":4934:4935   */\n      dup2\n        /* \"#utility.yul\":4931:4944   */\n      lt\n        /* \"#utility.yul\":4923:5036   */\n      iszero\n      tag_138\n      jumpi\n        /* \"#utility.yul\":5022:5023   */\n      dup1\n        /* \"#utility.yul\":5017:5020   */\n      dup3\n        /* \"#utility.yul\":5013:5024   */\n      add\n        /* \"#utility.yul\":5007:5025   */\n      mload\n        /* \"#utility.yul\":5003:5004   */\n      dup2\n        /* \"#utility.yul\":4998:5001   */\n      dup5\n        /* \"#utility.yul\":4994:5005   */\n      add\n        /* \"#utility.yul\":4987:5026   */\n      mstore\n        /* \"#utility.yul\":4959:4961   */\n      0x20\n        /* \"#utility.yul\":4956:4957   */\n      dup2\n        /* \"#utility.yul\":4952:4962   */\n      add\n        /* \"#utility.yul\":4947:4962   */\n      swap1\n      pop\n        /* \"#utility.yul\":4923:5036   */\n      jump(tag_136)\n    tag_138:\n        /* \"#utility.yul\":5054:5060   */\n      dup4\n        /* \"#utility.yul\":5051:5052   */\n      dup2\n        /* \"#utility.yul\":5048:5061   */\n      gt\n        /* \"#utility.yul\":5045:5146   */\n      iszero\n      tag_139\n      jumpi\n        /* \"#utility.yul\":5134:5135   */\n      0x00\n        /* \"#utility.yul\":5125:5131   */\n      dup5\n        /* \"#utility.yul\":5120:5123   */\n      dup5\n        /* \"#utility.yul\":5116:5132   */\n      add\n        /* \"#utility.yul\":5109:5136   */\n      mstore\n        /* \"#utility.yul\":5045:5146   */\n    tag_139:\n        /* \"#utility.yul\":4894:5152   */\n      pop\n        /* \"#utility.yul\":4845:5152   */\n      pop\n      pop\n      pop\n      jump\t// out\n        /* \"#utility.yul\":5158:5478   */\n    tag_40:\n        /* \"#utility.yul\":5202:5208   */\n      0x00\n        /* \"#utility.yul\":5239:5240   */\n      0x02\n        /* \"#utility.yul\":5233:5237   */\n      dup3\n        /* \"#utility.yul\":5229:5241   */\n      div\n        /* \"#utility.yul\":5219:5241   */\n      swap1\n      pop\n        /* \"#utility.yul\":5286:5287   */\n      0x01\n        /* \"#utility.yul\":5280:5284   */\n      dup3\n        /* \"#utility.yul\":5276:5288   */\n      and\n        /* \"#utility.yul\":5307:5325   */\n      dup1\n        /* \"#utility.yul\":5297:5378   */\n      tag_141\n      jumpi\n        /* \"#utility.yul\":5363:5367   */\n      0x7f\n        /* \"#utility.yul\":5355:5361   */\n      dup3\n        /* \"#utility.yul\":5351:5368   */\n      and\n        /* \"#utility.yul\":5341:5368   */\n      swap2\n      pop\n        /* \"#utility.yul\":5297:5378   */\n    tag_141:\n        /* \"#utility.yul\":5425:5427   */\n      0x20\n        /* \"#utility.yul\":5417:5423   */\n      dup3\n        /* \"#utility.yul\":5414:5428   */\n      lt\n        /* \"#utility.yul\":5394:5412   */\n      dup2\n        /* \"#utility.yul\":5391:5429   */\n      eq\n        /* \"#utility.yul\":5388:5472   */\n      iszero\n      tag_142\n      jumpi\n        /* \"#utility.yul\":5444:5462   */\n      tag_143\n      tag_144\n      jump\t// in\n    tag_143:\n        /* \"#utility.yul\":5388:5472   */\n    tag_142:\n        /* \"#utility.yul\":5209:5478   */\n      pop\n        /* \"#utility.yul\":5158:5478   */\n      swap2\n      swap1\n      pop\n      jump\t// out\n        /* \"#utility.yul\":5484:5765   */\n    tag_122:\n        /* \"#utility.yul\":5567:5594   */\n      tag_146\n        /* \"#utility.yul\":5589:5593   */\n      dup3\n        /* \"#utility.yul\":5567:5594   */\n      tag_111\n      jump\t// in\n    tag_146:\n        /* \"#utility.yul\":5559:5565   */\n      dup2\n        /* \"#utility.yul\":5555:5595   */\n      add\n        /* \"#utility.yul\":5697:5703   */\n      dup2\n        /* \"#utility.yul\":5685:5695   */\n      dup2\n        /* \"#utility.yul\":5682:5704   */\n      lt\n        /* \"#utility.yul\":5661:5679   */\n      0xffffffffffffffff\n        /* \"#utility.yul\":5649:5659   */\n      dup3\n        /* \"#utility.yul\":5646:5680   */\n      gt\n        /* \"#utility.yul\":5643:5705   */\n      or\n        /* \"#utility.yul\":5640:5728   */\n      iszero\n      tag_147\n      jumpi\n        /* \"#utility.yul\":5708:5726   */\n      tag_148\n      tag_127\n      jump\t// in\n    tag_148:\n        /* \"#utility.yul\":5640:5728   */\n    tag_147:\n        /* \"#utility.yul\":5748:5758   */\n      dup1\n        /* \"#utility.yul\":5744:5746   */\n      0x40\n        /* \"#utility.yul\":5737:5759   */\n      mstore\n        /* \"#utility.yul\":5527:5765   */\n      pop\n        /* \"#utility.yul\":5484:5765   */\n      pop\n      pop\n      jump\t// out\n        /* \"#utility.yul\":5771:5951   */\n    tag_144:\n        /* \"#utility.yul\":5819:5896   */\n      0x4e487b7100000000000000000000000000000000000000000000000000000000\n        /* \"#utility.yul\":5816:5817   */\n      0x00\n        /* \"#utility.yul\":5809:5897   */\n      mstore\n        /* \"#utility.yul\":5916:5920   */\n      0x22\n        /* \"#utility.yul\":5913:5914   */\n      0x04\n        /* \"#utility.yul\":5906:5921   */\n      mstore\n        /* \"#utility.yul\":5940:5944   */\n      0x24\n        /* \"#utility.yul\":5937:5938   */\n      0x00\n        /* \"#utility.yul\":5930:5945   */\n      revert\n        /* \"#utility.yul\":5957:6137   */\n    tag_127:\n        /* \"#utility.yul\":6005:6082   */\n      0x4e487b7100000000000000000000000000000000000000000000000000000000\n        /* \"#utility.yul\":6002:6003   */\n      0x00\n        /* \"#utility.yul\":5995:6083   */\n      mstore\n        /* \"#utility.yul\":6102:6106   */\n      0x41\n        /* \"#utility.yul\":6099:6100   */\n      0x04\n        /* \"#utility.yul\":6092:6107   */\n      mstore\n        /* \"#utility.yul\":6126:6130   */\n      0x24\n        /* \"#utility.yul\":6123:6124   */\n      0x00\n        /* \"#utility.yul\":6116:6131   */\n      revert\n        /* \"#utility.yul\":6143:6260   */\n    tag_75:\n        /* \"#utility.yul\":6252:6253   */\n      0x00\n        /* \"#utility.yul\":6249:6250   */\n      dup1\n        /* \"#utility.yul\":6242:6254   */\n      revert\n        /* \"#utility.yul\":6266:6383   */\n    tag_68:\n        /* \"#utility.yul\":6375:6376   */\n      0x00\n        /* \"#utility.yul\":6372:6373   */\n      dup1\n        /* \"#utility.yul\":6365:6377   */\n      revert\n        /* \"#utility.yul\":6389:6506   */\n    tag_83:\n        /* \"#utility.yul\":6498:6499   */\n      0x00\n        /* \"#utility.yul\":6495:6496   */\n      dup1\n        /* \"#utility.yul\":6488:6500   */\n      revert\n        /* \"#utility.yul\":6512:6629   */\n    tag_80:\n        /* \"#utility.yul\":6621:6622   */\n      0x00\n        /* \"#utility.yul\":6618:6619   */\n      dup1\n        /* \"#utility.yul\":6611:6623   */\n      revert\n        /* \"#utility.yul\":6635:6737   */\n    tag_111:\n        /* \"#utility.yul\":6676:6682   */\n      0x00\n        /* \"#utility.yul\":6727:6729   */\n      0x1f\n        /* \"#utility.yul\":6723:6730   */\n      not\n        /* \"#utility.yul\":6718:6720   */\n      0x1f\n        /* \"#utility.yul\":6711:6716   */\n      dup4\n        /* \"#utility.yul\":6707:6721   */\n      add\n        /* \"#utility.yul\":6703:6731   */\n      and\n        /* \"#utility.yul\":6693:6731   */\n      swap1\n      pop\n        /* \"#utility.yul\":6635:6737   */\n      swap2\n      swap1\n      pop\n      jump\t// out\n\n    auxdata: 0xa2646970667358221220774e1d7f46c9a2774482c4d7d8654f53df6acb7eaf894c8c105633af87fd8e8b64736f6c63430008070033\n}\n",
				"bytecode": {
					"linkReferences": {},
					"object": "608060405234801561001057600080fd5b5061001f61003a60201b60201c565b60009080519060200190610034929190610077565b5061017b565b60606040518060400160405280600b81526020017f48656c6c6f20576f726c64000000000000000000000000000000000000000000815250905090565b8280546100839061011a565b90600052602060002090601f0160209004810192826100a557600085556100ec565b82601f106100be57805160ff19168380011785556100ec565b828001600101855582156100ec579182015b828111156100eb5782518255916020019190600101906100d0565b5b5090506100f991906100fd565b5090565b5b808211156101165760008160009055506001016100fe565b5090565b6000600282049050600182168061013257607f821691505b602082108114156101465761014561014c565b5b50919050565b7f4e487b7100000000000000000000000000000000000000000000000000000000600052602260045260246000fd5b6106bc8061018a6000396000f3fe60806040526004361061004a5760003560e01c80630953aec51461004f5780631089bbc81461007a5780632fda332e146100a55780635d3a1f9d146100bc578063c605f76c146100d8575b600080fd5b34801561005b57600080fd5b50610064610103565b6040516100719190610483565b60405180910390f35b34801561008657600080fd5b5061008f610112565b60405161009c919061049e565b60405180910390f35b3480156100b157600080fd5b506100ba61014f565b005b6100d660048036038101906100d1919061035c565b61016f565b005b3480156100e457600080fd5b506100ed610189565b6040516100fa919061049e565b60405180910390f35b600061010d61021b565b905090565b60606040518060400160405280600b81526020017f48656c6c6f20576f726c64000000000000000000000000000000000000000000815250905090565b610157610112565b6000908051906020019061016c929190610249565b50565b8060009080519060200190610185929190610249565b5050565b606060008054610198906105a0565b80601f01602080910402602001604051908101604052809291908181526020018280546101c4906105a0565b80156102115780601f106101e657610100808354040283529160200191610211565b820191906000526020600020905b8154815290600101906020018083116101f457829003601f168201915b5050505050905090565b6000610225610112565b80519060200120600060405161023b919061046c565b604051809103902014905090565b828054610255906105a0565b90600052602060002090601f01602090048101928261027757600085556102be565b82601f1061029057805160ff19168380011785556102be565b828001600101855582156102be579182015b828111156102bd5782518255916020019190600101906102a2565b5b5090506102cb91906102cf565b5090565b5b808211156102e85760008160009055506001016102d0565b5090565b60006102ff6102fa846104e5565b6104c0565b90508281526020810184848401111561031b5761031a610666565b5b61032684828561055e565b509392505050565b600082601f83011261034357610342610661565b5b81356103538482602086016102ec565b91505092915050565b60006020828403121561037257610371610670565b5b600082013567ffffffffffffffff8111156103905761038f61066b565b5b61039c8482850161032e565b91505092915050565b6103ae81610552565b82525050565b600081546103c1816105a0565b6103cb8186610536565b945060018216600081146103e657600181146103f75761042a565b60ff1983168652818601935061042a565b61040085610516565b60005b8381101561042257815481890152600182019150602081019050610403565b838801955050505b50505092915050565b600061043e8261052b565b6104488185610541565b935061045881856020860161056d565b61046181610675565b840191505092915050565b600061047882846103b4565b915081905092915050565b600060208201905061049860008301846103a5565b92915050565b600060208201905081810360008301526104b88184610433565b905092915050565b60006104ca6104db565b90506104d682826105d2565b919050565b6000604051905090565b600067ffffffffffffffff821115610500576104ff610632565b5b61050982610675565b9050602081019050919050565b60008190508160005260206000209050919050565b600081519050919050565b600081905092915050565b600082825260208201905092915050565b60008115159050919050565b82818337600083830152505050565b60005b8381101561058b578082015181840152602081019050610570565b8381111561059a576000848401525b50505050565b600060028204905060018216806105b857607f821691505b602082108114156105cc576105cb610603565b5b50919050565b6105db82610675565b810181811067ffffffffffffffff821117156105fa576105f9610632565b5b80604052505050565b7f4e487b7100000000000000000000000000000000000000000000000000000000600052602260045260246000fd5b7f4e487b7100000000000000000000000000000000000000000000000000000000600052604160045260246000fd5b600080fd5b600080fd5b600080fd5b600080fd5b6000601f19601f830116905091905056fea2646970667358221220774e1d7f46c9a2774482c4d7d8654f53df6acb7eaf894c8c105633af87fd8e8b64736f6c63430008070033",
					"opcodes": "PUSH1 0x80 PUSH1 0x40 MSTORE CALLVALUE DUP1 ISZERO PUSH2 0x10 JUMPI PUSH1 0x0 DUP1 REVERT JUMPDEST POP PUSH2 0x1F PUSH2 0x3A PUSH1 0x20 SHL PUSH1 0x20 SHR JUMP JUMPDEST PUSH1 0x0 SWAP1 DUP1 MLOAD SWAP1 PUSH1 0x20 ADD SWAP1 PUSH2 0x34 SWAP3 SWAP2 SWAP1 PUSH2 0x77 JUMP JUMPDEST POP PUSH2 0x17B JUMP JUMPDEST PUSH1 0x60 PUSH1 0x40 MLOAD DUP1 PUSH1 0x40 ADD PUSH1 0x40 MSTORE DUP1 PUSH1 0xB DUP2 MSTORE PUSH1 0x20 ADD PUSH32 0x48656C6C6F20576F726C64000000000000000000000000000000000000000000 DUP2 MSTORE POP SWAP1 POP SWAP1 JUMP JUMPDEST DUP3 DUP1 SLOAD PUSH2 0x83 SWAP1 PUSH2 0x11A JUMP JUMPDEST SWAP1 PUSH1 0x0 MSTORE PUSH1 0x20 PUSH1 0x0 KECCAK256 SWAP1 PUSH1 0x1F ADD PUSH1 0x20 SWAP1 DIV DUP2 ADD SWAP3 DUP3 PUSH2 0xA5 JUMPI PUSH1 0x0 DUP6 SSTORE PUSH2 0xEC JUMP JUMPDEST DUP3 PUSH1 0x1F LT PUSH2 0xBE JUMPI DUP1 MLOAD PUSH1 0xFF NOT AND DUP4 DUP1 ADD OR DUP6 SSTORE PUSH2 0xEC JUMP JUMPDEST DUP3 DUP1 ADD PUSH1 0x1 ADD DUP6 SSTORE DUP3 ISZERO PUSH2 0xEC JUMPI SWAP2 DUP3 ADD JUMPDEST DUP3 DUP2 GT ISZERO PUSH2 0xEB JUMPI DUP3 MLOAD DUP3 SSTORE SWAP2 PUSH1 0x20 ADD SWAP2 SWAP1 PUSH1 0x1 ADD SWAP1 PUSH2 0xD0 JUMP JUMPDEST JUMPDEST POP SWAP1 POP PUSH2 0xF9 SWAP2 SWAP1 PUSH2 0xFD JUMP JUMPDEST POP SWAP1 JUMP JUMPDEST JUMPDEST DUP1 DUP3 GT ISZERO PUSH2 0x116 JUMPI PUSH1 0x0 DUP2 PUSH1 0x0 SWAP1 SSTORE POP PUSH1 0x1 ADD PUSH2 0xFE JUMP JUMPDEST POP SWAP1 JUMP JUMPDEST PUSH1 0x0 PUSH1 0x2 DUP3 DIV SWAP1 POP PUSH1 0x1 DUP3 AND DUP1 PUSH2 0x132 JUMPI PUSH1 0x7F DUP3 AND SWAP2 POP JUMPDEST PUSH1 0x20 DUP3 LT DUP2 EQ ISZERO PUSH2 0x146 JUMPI PUSH2 0x145 PUSH2 0x14C JUMP JUMPDEST JUMPDEST POP SWAP2 SWAP1 POP JUMP JUMPDEST PUSH32 0x4E487B7100000000000000000000000000000000000000000000000000000000 PUSH1 0x0 MSTORE PUSH1 0x22 PUSH1 0x4 MSTORE PUSH1 0x24 PUSH1 0x0 REVERT JUMPDEST PUSH2 0x6BC DUP1 PUSH2 0x18A PUSH1 0x0 CODECOPY PUSH1 0x0 RETURN INVALID PUSH1 0x80 PUSH1 0x40 MSTORE PUSH1 0x4 CALLDATASIZE LT PUSH2 0x4A JUMPI PUSH1 0x0 CALLDATALOAD PUSH1 0xE0 SHR DUP1 PUSH4 0x953AEC5 EQ PUSH2 0x4F JUMPI DUP1 PUSH4 0x1089BBC8 EQ PUSH2 0x7A JUMPI DUP1 PUSH4 0x2FDA332E EQ PUSH2 0xA5 JUMPI DUP1 PUSH4 0x5D3A1F9D EQ PUSH2 0xBC JUMPI DUP1 PUSH4 0xC605F76C EQ PUSH2 0xD8 JUMPI JUMPDEST PUSH1 0x0 DUP1 REVERT JUMPDEST CALLVALUE DUP1 ISZERO PUSH2 0x5B JUMPI PUSH1 0x0 DUP1 REVERT JUMPDEST POP PUSH2 0x64 PUSH2 0x103 JUMP JUMPDEST PUSH1 0x40 MLOAD PUSH2 0x71 SWAP2 SWAP1 PUSH2 0x483 JUMP JUMPDEST PUSH1 0x40 MLOAD DUP1 SWAP2 SUB SWAP1 RETURN JUMPDEST CALLVALUE DUP1 ISZERO PUSH2 0x86 JUMPI PUSH1 0x0 DUP1 REVERT JUMPDEST POP PUSH2 0x8F PUSH2 0x112 JUMP JUMPDEST PUSH1 0x40 MLOAD PUSH2 0x9C SWAP2 SWAP1 PUSH2 0x49E JUMP JUMPDEST PUSH1 0x40 MLOAD DUP1 SWAP2 SUB SWAP1 RETURN JUMPDEST CALLVALUE DUP1 ISZERO PUSH2 0xB1 JUMPI PUSH1 0x0 DUP1 REVERT JUMPDEST POP PUSH2 0xBA PUSH2 0x14F JUMP JUMPDEST STOP JUMPDEST PUSH2 0xD6 PUSH1 0x4 DUP1 CALLDATASIZE SUB DUP2 ADD SWAP1 PUSH2 0xD1 SWAP2 SWAP1 PUSH2 0x35C JUMP JUMPDEST PUSH2 0x16F JUMP JUMPDEST STOP JUMPDEST CALLVALUE DUP1 ISZERO PUSH2 0xE4 JUMPI PUSH1 0x0 DUP1 REVERT JUMPDEST POP PUSH2 0xED PUSH2 0x189 JUMP JUMPDEST PUSH1 0x40 MLOAD PUSH2 0xFA SWAP2 SWAP1 PUSH2 0x49E JUMP JUMPDEST PUSH1 0x40 MLOAD DUP1 SWAP2 SUB SWAP1 RETURN JUMPDEST PUSH1 0x0 PUSH2 0x10D PUSH2 0x21B JUMP JUMPDEST SWAP1 POP SWAP1 JUMP JUMPDEST PUSH1 0x60 PUSH1 0x40 MLOAD DUP1 PUSH1 0x40 ADD PUSH1 0x40 MSTORE DUP1 PUSH1 0xB DUP2 MSTORE PUSH1 0x20 ADD PUSH32 0x48656C6C6F20576F726C64000000000000000000000000000000000000000000 DUP2 MSTORE POP SWAP1 POP SWAP1 JUMP JUMPDEST PUSH2 0x157 PUSH2 0x112 JUMP JUMPDEST PUSH1 0x0 SWAP1 DUP1 MLOAD SWAP1 PUSH1 0x20 ADD SWAP1 PUSH2 0x16C SWAP3 SWAP2 SWAP1 PUSH2 0x249 JUMP JUMPDEST POP JUMP JUMPDEST DUP1 PUSH1 0x0 SWAP1 DUP1 MLOAD SWAP1 PUSH1 0x20 ADD SWAP1 PUSH2 0x185 SWAP3 SWAP2 SWAP1 PUSH2 0x249 JUMP JUMPDEST POP POP JUMP JUMPDEST PUSH1 0x60 PUSH1 0x0 DUP1 SLOAD PUSH2 0x198 SWAP1 PUSH2 0x5A0 JUMP JUMPDEST DUP1 PUSH1 0x1F ADD PUSH1 0x20 DUP1 SWAP2 DIV MUL PUSH1 0x20 ADD PUSH1 0x40 MLOAD SWAP1 DUP2 ADD PUSH1 0x40 MSTORE DUP1 SWAP3 SWAP2 SWAP1 DUP2 DUP2 MSTORE PUSH1 0x20 ADD DUP3 DUP1 SLOAD PUSH2 0x1C4 SWAP1 PUSH2 0x5A0 JUMP JUMPDEST DUP1 ISZERO PUSH2 0x211 JUMPI DUP1 PUSH1 0x1F LT PUSH2 0x1E6 JUMPI PUSH2 0x100 DUP1 DUP4 SLOAD DIV MUL DUP4 MSTORE SWAP2 PUSH1 0x20 ADD SWAP2 PUSH2 0x211 JUMP JUMPDEST DUP3 ADD SWAP2 SWAP1 PUSH1 0x0 MSTORE PUSH1 0x20 PUSH1 0x0 KECCAK256 SWAP1 JUMPDEST DUP2 SLOAD DUP2 MSTORE SWAP1 PUSH1 0x1 ADD SWAP1 PUSH1 0x20 ADD DUP1 DUP4 GT PUSH2 0x1F4 JUMPI DUP3 SWAP1 SUB PUSH1 0x1F AND DUP3 ADD SWAP2 JUMPDEST POP POP POP POP POP SWAP1 POP SWAP1 JUMP JUMPDEST PUSH1 0x0 PUSH2 0x225 PUSH2 0x112 JUMP JUMPDEST DUP1 MLOAD SWAP1 PUSH1 0x20 ADD KECCAK256 PUSH1 0x0 PUSH1 0x40 MLOAD PUSH2 0x23B SWAP2 SWAP1 PUSH2 0x46C JUMP JUMPDEST PUSH1 0x40 MLOAD DUP1 SWAP2 SUB SWAP1 KECCAK256 EQ SWAP1 POP SWAP1 JUMP JUMPDEST DUP3 DUP1 SLOAD PUSH2 0x255 SWAP1 PUSH2 0x5A0 JUMP JUMPDEST SWAP1 PUSH1 0x0 MSTORE PUSH1 0x20 PUSH1 0x0 KECCAK256 SWAP1 PUSH1 0x1F ADD PUSH1 0x20 SWAP1 DIV DUP2 ADD SWAP3 DUP3 PUSH2 0x277 JUMPI PUSH1 0x0 DUP6 SSTORE PUSH2 0x2BE JUMP JUMPDEST DUP3 PUSH1 0x1F LT PUSH2 0x290 JUMPI DUP1 MLOAD PUSH1 0xFF NOT AND DUP4 DUP1 ADD OR DUP6 SSTORE PUSH2 0x2BE JUMP JUMPDEST DUP3 DUP1 ADD PUSH1 0x1 ADD DUP6 SSTORE DUP3 ISZERO PUSH2 0x2BE JUMPI SWAP2 DUP3 ADD JUMPDEST DUP3 DUP2 GT ISZERO PUSH2 0x2BD JUMPI DUP3 MLOAD DUP3 SSTORE SWAP2 PUSH1 0x20 ADD SWAP2 SWAP1 PUSH1 0x1 ADD SWAP1 PUSH2 0x2A2 JUMP JUMPDEST JUMPDEST POP SWAP1 POP PUSH2 0x2CB SWAP2 SWAP1 PUSH2 0x2CF JUMP JUMPDEST POP SWAP1 JUMP JUMPDEST JUMPDEST DUP1 DUP3 GT ISZERO PUSH2 0x2E8 JUMPI PUSH1 0x0 DUP2 PUSH1 0x0 SWAP1 SSTORE POP PUSH1 0x1 ADD PUSH2 0x2D0 JUMP JUMPDEST POP SWAP1 JUMP JUMPDEST PUSH1 0x0 PUSH2 0x2FF PUSH2 0x2FA DUP5 PUSH2 0x4E5 JUMP JUMPDEST PUSH2 0x4C0 JUMP JUMPDEST SWAP1 POP DUP3 DUP2 MSTORE PUSH1 0x20 DUP2 ADD DUP5 DUP5 DUP5 ADD GT ISZERO PUSH2 0x31B JUMPI PUSH2 0x31A PUSH2 0x666 JUMP JUMPDEST JUMPDEST PUSH2 0x326 DUP5 DUP3 DUP6 PUSH2 0x55E JUMP JUMPDEST POP SWAP4 SWAP3 POP POP POP JUMP JUMPDEST PUSH1 0x0 DUP3 PUSH1 0x1F DUP4 ADD SLT PUSH2 0x343 JUMPI PUSH2 0x342 PUSH2 0x661 JUMP JUMPDEST JUMPDEST DUP2 CALLDATALOAD PUSH2 0x353 DUP5 DUP3 PUSH1 0x20 DUP7 ADD PUSH2 0x2EC JUMP JUMPDEST SWAP2 POP POP SWAP3 SWAP2 POP POP JUMP JUMPDEST PUSH1 0x0 PUSH1 0x20 DUP3 DUP5 SUB SLT ISZERO PUSH2 0x372 JUMPI PUSH2 0x371 PUSH2 0x670 JUMP JUMPDEST JUMPDEST PUSH1 0x0 DUP3 ADD CALLDATALOAD PUSH8 0xFFFFFFFFFFFFFFFF DUP2 GT ISZERO PUSH2 0x390 JUMPI PUSH2 0x38F PUSH2 0x66B JUMP JUMPDEST JUMPDEST PUSH2 0x39C DUP5 DUP3 DUP6 ADD PUSH2 0x32E JUMP JUMPDEST SWAP2 POP POP SWAP3 SWAP2 POP POP JUMP JUMPDEST PUSH2 0x3AE DUP2 PUSH2 0x552 JUMP JUMPDEST DUP3 MSTORE POP POP JUMP JUMPDEST PUSH1 0x0 DUP2 SLOAD PUSH2 0x3C1 DUP2 PUSH2 0x5A0 JUMP JUMPDEST PUSH2 0x3CB DUP2 DUP7 PUSH2 0x536 JUMP JUMPDEST SWAP5 POP PUSH1 0x1 DUP3 AND PUSH1 0x0 DUP2 EQ PUSH2 0x3E6 JUMPI PUSH1 0x1 DUP2 EQ PUSH2 0x3F7 JUMPI PUSH2 0x42A JUMP JUMPDEST PUSH1 0xFF NOT DUP4 AND DUP7 MSTORE DUP2 DUP7 ADD SWAP4 POP PUSH2 0x42A JUMP JUMPDEST PUSH2 0x400 DUP6 PUSH2 0x516 JUMP JUMPDEST PUSH1 0x0 JUMPDEST DUP4 DUP2 LT ISZERO PUSH2 0x422 JUMPI DUP2 SLOAD DUP2 DUP10 ADD MSTORE PUSH1 0x1 DUP3 ADD SWAP2 POP PUSH1 0x20 DUP2 ADD SWAP1 POP PUSH2 0x403 JUMP JUMPDEST DUP4 DUP9 ADD SWAP6 POP POP POP JUMPDEST POP POP POP SWAP3 SWAP2 POP POP JUMP JUMPDEST PUSH1 0x0 PUSH2 0x43E DUP3 PUSH2 0x52B JUMP JUMPDEST PUSH2 0x448 DUP2 DUP6 PUSH2 0x541 JUMP JUMPDEST SWAP4 POP PUSH2 0x458 DUP2 DUP6 PUSH1 0x20 DUP7 ADD PUSH2 0x56D JUMP JUMPDEST PUSH2 0x461 DUP2 PUSH2 0x675 JUMP JUMPDEST DUP5 ADD SWAP2 POP POP SWAP3 SWAP2 POP POP JUMP JUMPDEST PUSH1 0x0 PUSH2 0x478 DUP3 DUP5 PUSH2 0x3B4 JUMP JUMPDEST SWAP2 POP DUP2 SWAP1 POP SWAP3 SWAP2 POP POP JUMP JUMPDEST PUSH1 0x0 PUSH1 0x20 DUP3 ADD SWAP1 POP PUSH2 0x498 PUSH1 0x0 DUP4 ADD DUP5 PUSH2 0x3A5 JUMP JUMPDEST SWAP3 SWAP2 POP POP JUMP JUMPDEST PUSH1 0x0 PUSH1 0x20 DUP3 ADD SWAP1 POP DUP2 DUP2 SUB PUSH1 0x0 DUP4 ADD MSTORE PUSH2 0x4B8 DUP2 DUP5 PUSH2 0x433 JUMP JUMPDEST SWAP1 POP SWAP3 SWAP2 POP POP JUMP JUMPDEST PUSH1 0x0 PUSH2 0x4CA PUSH2 0x4DB JUMP JUMPDEST SWAP1 POP PUSH2 0x4D6 DUP3 DUP3 PUSH2 0x5D2 JUMP JUMPDEST SWAP2 SWAP1 POP JUMP JUMPDEST PUSH1 0x0 PUSH1 0x40 MLOAD SWAP1 POP SWAP1 JUMP JUMPDEST PUSH1 0x0 PUSH8 0xFFFFFFFFFFFFFFFF DUP3 GT ISZERO PUSH2 0x500 JUMPI PUSH2 0x4FF PUSH2 0x632 JUMP JUMPDEST JUMPDEST PUSH2 0x509 DUP3 PUSH2 0x675 JUMP JUMPDEST SWAP1 POP PUSH1 0x20 DUP2 ADD SWAP1 POP SWAP2 SWAP1 POP JUMP JUMPDEST PUSH1 0x0 DUP2 SWAP1 POP DUP2 PUSH1 0x0 MSTORE PUSH1 0x20 PUSH1 0x0 KECCAK256 SWAP1 POP SWAP2 SWAP1 POP JUMP JUMPDEST PUSH1 0x0 DUP2 MLOAD SWAP1 POP SWAP2 SWAP1 POP JUMP JUMPDEST PUSH1 0x0 DUP2 SWAP1 POP SWAP3 SWAP2 POP POP JUMP JUMPDEST PUSH1 0x0 DUP3 DUP3 MSTORE PUSH1 0x20 DUP3 ADD SWAP1 POP SWAP3 SWAP2 POP POP JUMP JUMPDEST PUSH1 0x0 DUP2 ISZERO ISZERO SWAP1 POP SWAP2 SWAP1 POP JUMP JUMPDEST DUP3 DUP2 DUP4 CALLDATACOPY PUSH1 0x0 DUP4 DUP4 ADD MSTORE POP POP POP JUMP JUMPDEST PUSH1 0x0 JUMPDEST DUP4 DUP2 LT ISZERO PUSH2 0x58B JUMPI DUP1 DUP3 ADD MLOAD DUP2 DUP5 ADD MSTORE PUSH1 0x20 DUP2 ADD SWAP1 POP PUSH2 0x570 JUMP JUMPDEST DUP4 DUP2 GT ISZERO PUSH2 0x59A JUMPI PUSH1 0x0 DUP5 DUP5 ADD MSTORE JUMPDEST POP POP POP POP JUMP JUMPDEST PUSH1 0x0 PUSH1 0x2 DUP3 DIV SWAP1 POP PUSH1 0x1 DUP3 AND DUP1 PUSH2 0x5B8 JUMPI PUSH1 0x7F DUP3 AND SWAP2 POP JUMPDEST PUSH1 0x20 DUP3 LT DUP2 EQ ISZERO PUSH2 0x5CC JUMPI PUSH2 0x5CB PUSH2 0x603 JUMP JUMPDEST JUMPDEST POP SWAP2 SWAP1 POP JUMP JUMPDEST PUSH2 0x5DB DUP3 PUSH2 0x675 JUMP JUMPDEST DUP2 ADD DUP2 DUP2 LT PUSH8 0xFFFFFFFFFFFFFFFF DUP3 GT OR ISZERO PUSH2 0x5FA JUMPI PUSH2 0x5F9 PUSH2 0x632 JUMP JUMPDEST JUMPDEST DUP1 PUSH1 0x40 MSTORE POP POP POP JUMP JUMPDEST PUSH32 0x4E487B7100000000000000000000000000000000000000000000000000000000 PUSH1 0x0 MSTORE PUSH1 0x22 PUSH1 0x4 MSTORE PUSH1 0x24 PUSH1 0x0 REVERT JUMPDEST PUSH32 0x4E487B7100000000000000000000000000000000000000000000000000000000 PUSH1 0x0 MSTORE PUSH1 0x41 PUSH1 0x4 MSTORE PUSH1 0x24 PUSH1 0x0 REVERT JUMPDEST PUSH1 0x0 DUP1 REVERT JUMPDEST PUSH1 0x0 DUP1 REVERT JUMPDEST PUSH1 0x0 DUP1 REVERT JUMPDEST PUSH1 0x0 DUP1 REVERT JUMPDEST PUSH1 0x0 PUSH1 0x1F NOT PUSH1 0x1F DUP4 ADD AND SWAP1 POP SWAP2 SWAP1 POP JUMP INVALID LOG2 PUSH5 0x6970667358 0x22 SLT KECCAK256 PUSH24 0x4E1D7F46C9A2774482C4D7D8654F53DF6ACB7EAF894C8C10 JUMP CALLER 0xAF DUP8 REVERT DUP15 DUP12 PUSH5 0x736F6C6343 STOP ADDMOD SMOD STOP CALLER "
				},
				"gasEstimates": {
					"creation": {
						"codeDepositCost": "344800",
						"executionCost": "infinite",
						"totalCost": "infinite"
					},
					"external": {
						"helloWorld()": "infinite",
						"isPure()": "infinite",
						"pureText()": "infinite",
						"restore()": "infinite",
						"setText(string)": "infinite"
					},
					"internal": {
						"_isPure()": "infinite"
					}
				},
				"methodIdentifiers": {
					"helloWorld()": "c605f76c",
					"isPure()": "0953aec5",
					"pureText()": "1089bbc8",
					"restore()": "2fda332e",
					"setText(string)": "5d3a1f9d"
				}
			},
			"storageLayout": {
				"storage": [
					{
						"astId": 4,
						"contract": "HelloWorld.sol:HelloWorld",
						"label": "text",
						"offset": 0,
						"slot": "0",
						"type": "t_string_storage"
					}
				],
				"types": {
					"t_string_storage": {
						"encoding": "bytes",
						"label": "string",
						"numberOfBytes": "32"
					}
				}
			},
			"userdoc": {
				"kind": "user",
				"methods": {},
				"notice": "Hello World implementation example with solidity",
				"version": 1
			}
		}
	}
}